:020000040800F2
:100000000050002021020008270200082B020008EF
:100010009D020008A1020008E9020008000000009B
:100020000000000000000000000000003103000894
:100030003503000800000000390300081121000802
:100040004D0300084D0300084D0300084D03000850
:100050004D0300084D0300084D070008690700081C
:1000600085070008A1070008BD0700084D03000828
:100070004D0300084D0300084D0300084D03000820
:100080004D0300084D0300084D0300084D03000810
:100090004D0300084D0300084D0300084D03000800
:1000A0004D0300084D0300084D0300084D030008F0
:1000B0004D0300084D0300084D0300084D030008E0
:1000C0004D0300084D0300084D0300084D030008D0
:1000D0004D0300084D0300084D0300084D030008C0
:1000E0004D0300084D0300084D0300080000000008
:1000F0000000000000000000000000000000000000
:1001000000000000000000005FF808F100B583B0B7
:1001100000F0AAF9304B314A1360314A1360314B79
:10012000314A32498B4204D21168196004330432D7
:10013000F7E72A4B1A682E4B9A4200D0FEE7284B6D
:100140001A682C4B9A42F9D1234B2B4A13602B4A45
:1001500013602B4B02E000221A600433294A9342B9
:10016000F9D3254B1B6813B9244B1B6803B1FEE779
:1001700000F086F9694601A800F022F9224C234BD1
:10018000E41AA4100025AC4214DC214C214BE41AE3
:10019000A4100025AC4213DC0099019801F0F0FF97
:1001A00005461D4C1D4BE41AA410002C0EDC2846FD
:1001B00000F0E2F8154B53F8253098470135E2E797
:1001C000144B53F8253098470135E3E7013C134BB6
:1001D00053F824309847E8E7BABADECA0000002096
:1001E0008400002000000020C82B000888000020A8
:1001F00078563412325476988800002098010020F6
:10020000880000209C010020780300087803000883
:1002100078030008780300087803000878030008D2
:1002200008B5FFF773FF00BEFEE71EF0040F0CBF1A
:10023000EFF30880EFF309807146414A10472DE93A
:10024000F04182B004468846124B5E6B9F6B9D6AFC
:100250001B6B13F0020F03D00E4BDB6A002B0CDB81
:100260000D4800F0B5F8CDF800803B4632462946EF
:10027000204600F009F900BEFEE74BF6AB6100F046
:100280007DF90028ECD0034B4FF00042DA6202B057
:10029000BDE8F08100ED00E0682B000800BEFEE73D
:1002A0001EF0040F0CBFEFF30880EFF309807146D6
:1002B000244A10472DE9F04182B004468846084B95
:1002C0005E6B9F6B9D6A074800F082F8CDF8008056
:1002D0003B4632462946204600F0D6F800BEFEE7EF
:1002E00000ED00E0782B00081EF0040F0CBFEFF3C8
:1002F0000880EFF309807146134A10472DE9F04159
:1003000082B004468846084B5E6B9F6B9D6A074827
:1003100000F05EF8CDF800803B4632462946204684
:1003200000F0B2F800BEFEE700ED00E0842B00080C
:1003300000BEFEE700BEFEE700BEFEE7704700001D
:100340003F020008B5020008FD02000800BEFEE7FB
:10035000C82B00080000002088000020C82B0008DF
:100360000000000000000000880000209C01002028
:08037000000000000000000085
:10037800FEE7000008B503460C4A12685AB10B4A5A
:100388001068033323F003030344094A934206D851
:10039800064A136008BD054A06491160EFE701F0F7
:1003A80021FF0C2303604FF0FF30F3E78C0000209F
:1003B800004C00209C01002001230360014B0B60CE
:1003C800704700BF040000200FB400B583B004AB31
:1003D80053F8042B01938021064801F035FF0028CB
:1003E80003DD0146034800F037F803B05DF804EB7D
:1003F80004B07047940000202DE9F04385B004460E
:100408000F4643560BB10E461EE0042528462146EA
:10041800ABBE0446384605B0BDE8F08314F9011BAD
:1004280004AA1A4402F8101C0133AB42F6D304AAFA
:100438001344002203F8102C4FF00408E946404604
:100448004946ABBE8046761B002EE3D03546102EBB
:1004580028BF10250023E8E708B5FFF7CDFF08BD42
:1004680008B500F0FDF8024A024B9A6008BD00BFCB
:100478000000000800ED00E008B500F019F908BD1B
:10048800F8B504460D4617461E462748FFF79CFF59
:1004980021682648FFF798FF61682548FFF794FF11
:1004A800A1682448FFF790FFE1682348FFF78CFF15
:1004B80021692248FFF788FF61692148FFF784FF17
:1004C800A1692048FFF780FFE1691F48FFF77CFF1B
:1004D8001E48FFF779FF29461D48FFF775FF1D4C99
:1004E800E16A1D48FFF770FF216B1C48FFF76CFF9E
:1004F800E16B1B48FFF768FF15F0800F0AD115F470
:10050800004F0CD11748FFF75FFF06991648FFF711
:100518005BFFF8BD39461548FFF756FFEFE7314650
:100528001348FFF751FFEDE74C2A00085C2A000842
:100538006C2A00087C2A00088C2A00089C2A0008DB
:10054800AC2A0008BC2A0008CC2A0008DC2A0008CB
:10055800E82A000800ED00E0F82A0008082B000847
:10056800182B0008482B0008502B0008282B0008DF
:10057800382B000883691A888A4201D00020704706
:100588000268033A012A03D80233836101207047C5
:100598000020704782B00023019300932C4A13680F
:1005A80043F4803313602A4B1B6803F40033009331
:1005B800019B01330193009B1BB9019BB3F5A06F0D
:1005C800F1D1234B1B6813F4003F06D0012300939D
:1005D800009B012B04D002B0704700230093F7E77B
:1005E8001C4B1A6842F010021A601A6822F00302C3
:1005F8001A601A6842F002021A60A3F580535A681A
:100608005A605A685A605A6842F480625A605A6856
:1006180022F47C125A605A6842F4E8125A601A6846
:1006280042F080721A600A4B1B6813F0007FFAD000
:10063800074B5A6822F003025A605A6842F00202D5
:100648005A60034B5B6803F00C03082BF9D1C2E72F
:10065800001002400020024008B5FFF79BFF08BDCC
:1006680008B5104B1A6842F001021A6059680E4A20
:100678000A405A601A6822F0847222F480321A60A2
:100688001A6822F480221A605A6822F4FE025A601C
:100698004FF41F029A60FFF7DFFF044B4FF0006230
:1006A8009A6008BD001002400000FFF800ED00E06D
:1006B8001F4B5B6803F00C03042B15D0082B17D0D5
:1006C8001BB11C4B1C4A1A6002E01A4B1A4A1A60EA
:1006D800174B5B68C3F30313184AD35CDAB21549A6
:1006E8000B68D3400B607047124B134A1A60EFE750
:1006F8000F4A53685268C3F38343023312F4803FAE
:100708000AD00B4A526812F4003F0BD00C4A02FB85
:1007180003F3084A1360DBE7094A02FB03F3054ABF
:100728001360D5E7044A02FB03F3024A1360CFE7DC
:10073800001002401C00002000127A000C0000206B
:1007480000093D0008B5044B1B689847034A5369E4
:1007580043F00103536108BD440100200004014037
:1007680008B5044B5B689847034A536943F0020392
:10077800536108BD440100200004014008B5044B42
:100788009B689847034A536943F00403536108BDC3
:10079800440100200004014008B5044BDB68984779
:1007A800034A536943F00803536108BD440100201C
:1007B8000004014008B5044B1B699847034A536974
:1007C80043F01003536108BD4401002000040140B8
:1007D80070B49DF80C409DF81050032841D8DFE80C
:1007E80010F004005C00C8003501E9B101293AD0D5
:1007F800022936D1B2490E68012000FA02F226EA2F
:1008080002020A600A6800FA03F322EA03030B6093
:100818000B6800FA04F423EA04040C600B6800FA7D
:1008280005F51D430D601CE001F1804101F584319F
:100838000E68012000FA02F226EA02020A600A683B
:1008480000FA03F322EA03030B600B6800FA04F4CE
:1008580023EA04040C600B6800FA05F523EA050591
:100868000D6070BC704796490E68012000FA02F2CC
:1008780026EA02020A600A6800FA03F322EA03037E
:100888000B600B6800FA04F41C430C600B6800FA58
:1008980005F523EA05050D60E3E703291DD00429C2
:1008A80035D005294CD00629DBD185490E680120B1
:1008B80000FA02F232430A600A6800FA03F322EAF5
:1008C80003030B600B6800FA04F41C430C600B680C
:1008D80000FA05F51D430D60C3E779490E6801204C
:1008E80000FA02F232430A600A6800FA03F322EAC5
:1008F80003030B600B6800FA04F423EA04040C6099
:100908000B6800FA05F523EA05050D60A9E76C49AF
:100918000E68012000FA02F232430A600A6800FAFF
:1009280003F322EA03030B600B6800FA04F41C4388
:100938000C600B6800FA05F523EA05050D6090E7E1
:100948005F490E68012000FA02F232430A600A6821
:1009580000FA03F322EA03030B600B6800FA04F4BD
:1009680023EA04040C600B6800FA05F51D430D60CA
:1009780077E703291ED0042936D005294DD006294A
:100988007FF46FAF4E490E68012000FA02F226EAA2
:1009980002020A600A6800FA03F313430B600B684B
:1009A80000FA04F41C430C600B6800FA05F51D43BB
:1009B8000D6056E742490E68012000FA02F226EA65
:1009C80002020A600A6800FA03F313430B600B681B
:1009D80000FA04F423EA04040C600B6800FA05F535
:1009E80023EA05050D603CE735490E68012000FA49
:1009F80002F226EA02020A600A6800FA03F31343C5
:100A08000B600B6800FA04F41C430C600B6800FAD6
:100A180005F523EA05050D6023E729490E6801203D
:100A280000FA02F226EA02020A600A6800FA03F3F0
:100A380013430B600B6800FA04F423EA04040C6007
:100A48000B6800FA05F51D430D600AE703291DD060
:100A5800042937D005294DD006297FF402AF18495B
:100A68000E68012000FA02F232430A600A6800FAAE
:100A780003F313430B600B6800FA04F41C430C6087
:100A88000B6800FA05F51D430D60EAE60C490E688F
:100A9800012000FA02F232430A600A6800FA03F3FE
:100AA80013430B600B6800FA04F423EA04040C6097
:100AB8000B6800FA05F523EA05050D60D1E600BFCD
:100AC8000008014017490E68012000FA02F232437B
:100AD8000A600A6800FA03F313430B600B6800FA14
:100AE80004F41C430C600B6800FA05F523EA0505BD
:100AF8000D60B6E60B490E68012000FA02F2324397
:100B08000A600A6800FA03F313430B600B6800FAE3
:100B180004F423EA04040C600B6800FA05F51D438D
:100B28000D609EE60008014070B49DF80C409DF8E9
:100B38001050032841D8DFE810F004005C00C8001A
:100B48003501E9B101293AD0022936D1B2494E68B6
:100B5800012000FA02F226EA02024A604A6800FA14
:100B680003F322EA03034B604B6800FA04F423EA18
:100B780004044C604B6800FA05F51D434D601CE009
:100B880001F1804101F584314E68012000FA02F23A
:100B980026EA02024A604A6800FA03F322EA0303DB
:100BA8004B604B6800FA04F423EA04044C604B6879
:100BB80000FA05F523EA05054D6070BC70479649B3
:100BC8004E68012000FA02F226EA02024A604A68E8
:100BD80000FA03F322EA03034B604B6800FA04F4BB
:100BE8001C434C604B6800FA05F523EA05054D6087
:100BF800E3E703291DD0042935D005294CD006295F
:100C0800DBD185494E68012000FA02F232434A607E
:100C18004A6800FA03F322EA03034B604B6800FAC0
:100C280004F41C434C604B6800FA05F51D434D6005
:100C3800C3E779494E68012000FA02F232434A605C
:100C48004A6800FA03F322EA03034B604B6800FA90
:100C580004F423EA04044C604B6800FA05F523EA1F
:100C680005054D60A9E76C494E68012000FA02F2BB
:100C780032434A604A6800FA03F322EA03034B60EE
:100C88004B6800FA04F41C434C604B6800FA05F505
:100C980023EA05054D6090E75F494E68012000FA98
:100CA80002F232434A604A6800FA03F322EA030375
:100CB8004B604B6800FA04F423EA04044C604B6868
:100CC80000FA05F51D434D6077E703291ED0042976
:100CD80036D005294DD006297FF46FAF4E494E68AE
:100CE800012000FA02F226EA02024A604A6800FA83
:100CF80003F313434B604B6800FA04F41C434C6045
:100D08004B6800FA05F51D434D6056E742494E68A9
:100D1800012000FA02F226EA02024A604A6800FA52
:100D280003F313434B604B6800FA04F423EA04040A
:100D38004C604B6800FA05F523EA05054D603CE771
:100D480035494E68012000FA02F226EA02024A609A
:100D58004A6800FA03F313434B604B6800FA04F443
:100D68001C434C604B6800FA05F523EA05054D6005
:100D780023E729494E68012000FA02F226EA020216
:100D88004A604A6800FA03F313434B604B6800FA61
:100D980004F423EA04044C604B6800FA05F51D438B
:100DA8004D600AE703291DD0042937D005294DD005
:100DB80006297FF402AF18494E68012000FA02F2B2
:100DC80032434A604A6800FA03F313434B604B68A6
:100DD80000FA04F41C434C604B6800FA05F51D4307
:100DE8004D60EAE60C494E68012000FA02F23243EF
:100DF8004A604A6800FA03F313434B604B6800FAF1
:100E080004F423EA04044C604B6800FA05F523EA6D
:100E180005054D60D1E600BF0008014017494E683E
:100E2800012000FA02F232434A604A6800FA03F3EA
:100E380013434B604B6800FA04F41C434C604B6846
:100E480000FA05F523EA05054D60B6E60B494E683C
:100E5800012000FA02F232434A604A6800FA03F3BA
:100E680013434B604B6800FA04F423EA04044C6013
:100E78004B6800FA05F51D434D609EE600080140E9
:100E880010B582B00C4611460F2812D8DFE800F0E2
:100E980008131D27313B454F59636D77818B959F0B
:100EA8000323019302230093012300222046FFF726
:100EB8008FFC02B010BD072301930623009305237E
:100EC80004222046FFF784FCF3E70B2301930A234F
:100ED8000093092308222046FFF77AFCE9E70F234D
:100EE80001930E2300930D230C222046FFF770FC7C
:100EF800DFE71323019312230093112310222046C6
:100F0800FFF766FCD5E717230193162300931523F3
:100F180014222046FFF75CFCCBE71B2301931A231E
:100F28000093192318222046FFF752FCC1E71F231C
:100F380001931E2300931D231C222046FFF748FC23
:100F4800B7E70323019302230093012300222046DD
:100F5800FFF7EAFDADE70723019306230093052376
:100F680004222046FFF7E0FDA3E70B2301930A23A1
:100F78000093092308222046FFF7D6FD99E70F239F
:100F880001930E2300930D230C222046FFF7CCFD7E
:100F98008FE7132301931223009311231022204675
:100FA800FFF7C2FD85E71723019316230093152346
:100FB80014222046FFF7B8FD7BE71B2301931A2371
:100FC8000093192318222046FFF7AEFD71E71F236F
:100FD80001931E2300931D231C222046FFF7A4FD26
:100FE80067E7000070B49DF80C409DF81050032886
:100FF8003ED8DFE810F004005900C5003201E9B11D
:10100800012937D0022933D1B0490E68012000FAEE
:1010180002F226EA02020A600A6800FA03F322EAE8
:1010280003030B600B6800FA04F423EA04040C6061
:101038000B6800FA05F51D430D6019E0A3490E6819
:10104800012000FA02F226EA02020A600A6800FA9F
:1010580003F322EA03030B600B6800FA04F423EAA3
:1010680004040C600B6800FA05F523EA05050D6019
:1010780070BC704795490E68012000FA02F226EA12
:1010880002020A600A6800FA03F322EA03030B600B
:101098000B6800FA04F41C430C600B6800FA05F5B1
:1010A80023EA05050D60E3E703291DD0042935D09F
:1010B80005294CD00629DBD184490E68012000FAA5
:1010C80002F232430A600A6800FA03F322EA0303D1
:1010D8000B600B6800FA04F41C430C600B6800FA00
:1010E80005F51D430D60C3E778490E68012000FA35
:1010F80002F232430A600A6800FA03F322EA0303A1
:101108000B600B6800FA04F423EA04040C600B6813
:1011180000FA05F523EA05050D60A9E76B490E6895
:10112800012000FA02F232430A600A6800FA03F367
:1011380022EA03030B600B6800FA04F41C430C60FA
:101148000B6800FA05F523EA05050D6090E75F498D
:101158000E68012000FA02F232430A600A6800FAB7
:1011680003F322EA03030B600B6800FA04F423EA92
:1011780004040C600B6800FA05F51D430D6077E761
:1011880003291ED0042936D005294DD006297FF41D
:101198006FAF4E490E68012000FA02F226EA0202F9
:1011A8000A600A6800FA03F313430B600B6800FA3D
:1011B80004F41C430C600B6800FA05F51D430D6030
:1011C80056E742490E68012000FA02F226EA0202B6
:1011D8000A600A6800FA03F313430B600B6800FA0D
:1011E80004F423EA04040C600B6800FA05F523EA0A
:1011F80005050D603CE735490E68012000FA02F24A
:1012080026EA02020A600A6800FA03F313430B6035
:101218000B6800FA04F41C430C600B6800FA05F52F
:1012280023EA05050D6023E728490E68012000FA26
:1012380002F226EA02020A600A6800FA03F313437C
:101248000B600B6800FA04F423EA04040C600B68D2
:1012580000FA05F51D430D600AE703291DD004298E
:1012680036D005294CD006297FF402AF17490E68FD
:10127800012000FA02F232430A600A6800FA03F316
:1012880013430B600B6800FA04F41C430C600B68F2
:1012980000FA05F51D430D60EAE60C490E680120C9
:1012A80000FA02F232430A600A6800FA03F31343B1
:1012B8000B600B6800FA04F423EA04040C600B6862
:1012C80000FA05F523EA05050D60D1E6000C01409A
:1012D80017490E68012000FA02F232430A600A68D0
:1012E80000FA03F313430B600B6800FA04F41C4381
:1012F8000C600B6800FA05F523EA05050D60B7E6F2
:101308000B490E68012000FA02F232430A600A68AB
:1013180000FA03F313430B600B6800FA04F423EAA2
:1013280004040C600B6800FA05F51D430D609FE688
:10133800000C014070B49DF80C409DF81050032833
:101348003ED8DFE810F004005900C5003201E9B1C9
:10135800012937D0022933D1B0494E68012000FA5B
:1013680002F226EA02024A604A6800FA03F322EA15
:1013780003034B604B6800FA04F423EA04044C604E
:101388004B6800FA05F51D434D6019E0A3494E6806
:10139800012000FA02F226EA02024A604A6800FACC
:1013A80003F322EA03034B604B6800FA04F423EAD0
:1013B80004044C604B6800FA05F523EA05054D6006
:1013C80070BC704795494E68012000FA02F226EA7F
:1013D80002024A604A6800FA03F322EA03034B60F8
:1013E8004B6800FA04F41C434C604B6800FA05F59E
:1013F80023EA05054D60E3E703291DD0042935D00C
:1014080005294CD00629DBD184494E68012000FA11
:1014180002F232434A604A6800FA03F322EA0303FD
:101428004B604B6800FA04F41C434C604B6800FAAC
:1014380005F51D434D60C3E778494E68012000FA61
:1014480002F232434A604A6800FA03F322EA0303CD
:101458004B604B6800FA04F423EA04044C604B68C0
:1014680000FA05F523EA05054D60A9E76B494E68C2
:10147800012000FA02F232434A604A6800FA03F394
:1014880022EA03034B604B6800FA04F41C434C60E7
:101498004B6800FA05F523EA05054D6090E75F49BA
:1014A8004E68012000FA02F232434A604A6800FAA4
:1014B80003F322EA03034B604B6800FA04F423EABF
:1014C80004044C604B6800FA05F51D434D6077E74E
:1014D80003291ED0042936D005294DD006297FF4CA
:1014E8006FAF4E494E68012000FA02F226EA020266
:1014F8004A604A6800FA03F313434B604B6800FAEA
:1015080004F41C434C604B6800FA05F51D434D601C
:1015180056E742494E68012000FA02F226EA020222
:101528004A604A6800FA03F313434B604B6800FAB9
:1015380004F423EA04044C604B6800FA05F523EA36
:1015480005054D603CE735494E68012000FA02F276
:1015580026EA02024A604A6800FA03F313434B6022
:101568004B6800FA04F41C434C604B6800FA05F51C
:1015780023EA05054D6023E728494E68012000FA53
:1015880002F226EA02024A604A6800FA03F31343A9
:101598004B604B6800FA04F423EA04044C604B687F
:1015A80000FA05F51D434D600AE703291DD00429FB
:1015B80036D005294CD006297FF402AF17494E686A
:1015C800012000FA02F232434A604A6800FA03F343
:1015D80013434B604B6800FA04F41C434C604B689F
:1015E80000FA05F51D434D60EAE60C494E680120F6
:1015F80000FA02F232434A604A6800FA03F31343DE
:101608004B604B6800FA04F423EA04044C604B680E
:1016180000FA05F523EA05054D60D1E6000C014006
:1016280017494E68012000FA02F232434A604A68BC
:1016380000FA03F313434B604B6800FA04F41C43AD
:101648004C604B6800FA05F523EA05054D60B7E6DE
:101658000B494E68012000FA02F232434A604A6898
:1016680000FA03F313434B604B6800FA04F423EACF
:1016780004044C604B6800FA05F51D434D609FE675
:10168800000C014010B582B00C4611460F2812D844
:10169800DFE800F008131D27313B454F59636D778C
:1016A800818B959F0323019302230093012300223A
:1016B8002046FFF797FC02B010BD072301930623CD
:1016C8000093052304222046FFF78CFCF3E70B2345
:1016D80001930A230093092308222046FFF782FC7E
:1016E800E9E70F2301930E2300930D230C222046D4
:1016F800FFF778FCDFE713230193122300931123EC
:1017080010222046FFF76EFCD5E717230193162316
:101718000093152314222046FFF764FCCBE71B2314
:1017280001931A230093192318222046FFF75AFC25
:10173800C1E71F2301931E2300931D231C2220466B
:10174800FFF750FCB7E7032301930223009301231B
:1017580000222046FFF7EEFDADE70723019306239D
:101768000093052304222046FFF7E4FDA3E70B239B
:1017780001930A230093092308222046FFF7DAFD84
:1017880099E70F2301930E2300930D230C22204683
:10179800FFF7D0FD8FE71323019312230093112342
:1017A80010222046FFF7C6FD85E71723019316236D
:1017B8000093152314222046FFF7BCFD7BE71B236B
:1017C80001931A230093192318222046FFF7B2FD2C
:1017D80071E71F2301931E2300931D231C2220461B
:1017E800FFF7A8FD67E7000070B49DF80C409DF86E
:1017F8001050032841D8DFE810F004005C00C8004E
:101808003501E9B101293AD0022936D1B2490E6829
:10181800012000FA02F226EA02020A600A6800FAC7
:1018280003F322EA03030B600B6800FA04F423EACB
:1018380004040C600B6800FA05F51D430D601CE0FC
:1018480001F1804101F588310E68012000FA02F2A9
:1018580026EA02020A600A6800FA03F322EA03038E
:101868000B600B6800FA04F423EA04040C600B68AC
:1018780000FA05F523EA05050D6070BC7047964926
:101888000E68012000FA02F226EA02020A600A68DB
:1018980000FA03F322EA03030B600B6800FA04F46E
:1018A8001C430C600B6800FA05F523EA05050D607A
:1018B800E3E703291DD0042935D005294CD0062992
:1018C800DBD185490E68012000FA02F232430A6032
:1018D8000A6800FA03F322EA03030B600B6800FAB4
:1018E80004F41C430C600B6800FA05F51D430D60F9
:1018F800C3E779490E68012000FA02F232430A6010
:101908000A6800FA03F322EA03030B600B6800FA83
:1019180004F423EA04040C600B6800FA05F523EAD2
:1019280005050D60A9E76C490E68012000FA02F26E
:1019380032430A600A6800FA03F322EA03030B60E1
:101948000B6800FA04F41C430C600B6800FA05F5F8
:1019580023EA05050D6090E75F490E68012000FA4B
:1019680002F232430A600A6800FA03F322EA030328
:101978000B600B6800FA04F423EA04040C600B689B
:1019880000FA05F51D430D6077E703291ED00429E9
:1019980036D005294DD006297FF46FAF4E490E6821
:1019A800012000FA02F226EA02020A600A6800FA36
:1019B80003F313430B600B6800FA04F41C430C6038
:1019C8000B6800FA05F51D430D6056E742490E689D
:1019D800012000FA02F226EA02020A600A6800FA06
:1019E80003F313430B600B6800FA04F423EA0404BE
:1019F8000C600B6800FA05F523EA05050D603CE765
:101A080035490E68012000FA02F226EA02020A604D
:101A18000A6800FA03F313430B600B6800FA04F436
:101A28001C430C600B6800FA05F523EA05050D60F8
:101A380023E729490E68012000FA02F226EA020289
:101A48000A600A6800FA03F313430B600B6800FA94
:101A580004F423EA04040C600B6800FA05F51D433E
:101A68000D600AE703291DD0042937D005294DD078
:101A780006297FF402AF18490E68012000FA02F225
:101A880032430A600A6800FA03F313430B600B68D9
:101A980000FA04F41C430C600B6800FA05F51D43BA
:101AA8000D60EAE60C490E68012000FA02F23243A2
:101AB8000A600A6800FA03F313430B600B6800FA24
:101AC80004F423EA04040C600B6800FA05F523EA21
:101AD80005050D60D1E600BF0010014017490E68EA
:101AE800012000FA02F232430A600A6800FA03F39E
:101AF80013430B600B6800FA04F41C430C600B687A
:101B080000FA05F523EA05050D60B6E60B490E68EF
:101B1800012000FA02F232430A600A6800FA03F36D
:101B280013430B600B6800FA04F423EA04040C6006
:101B38000B6800FA05F51D430D609EE60010014094
:101B480070B49DF80C409DF81050032841D8DFE888
:101B580010F004005C00C8003501E9B101293AD051
:101B6800022936D1B2494E68012000FA02F226EA6B
:101B780002024A604A6800FA03F322EA03034B6050
:101B88004B6800FA04F423EA04044C604B6800FA3A
:101B980005F51D434D601CE001F1804101F58831D8
:101BA8004E68012000FA02F226EA02024A604A68F8
:101BB80000FA03F322EA03034B604B6800FA04F4CB
:101BC80023EA04044C604B6800FA05F523EA05058E
:101BD8004D6070BC704796494E68012000FA02F2C9
:101BE80026EA02024A604A6800FA03F322EA03037B
:101BF8004B604B6800FA04F41C434C604B6800FAD5
:101C080005F523EA05054D60E3E703291DD00429FE
:101C180035D005294CD00629DBD185494E680120ED
:101C280000FA02F232434A604A6800FA03F322EAF1
:101C380003034B604B6800FA04F41C434C604B6888
:101C480000FA05F51D434D60C3E779494E68012048
:101C580000FA02F232434A604A6800FA03F322EAC1
:101C680003034B604B6800FA04F423EA04044C6055
:101C78004B6800FA05F523EA05054D60A9E76C49AC
:101C88004E68012000FA02F232434A604A6800FABC
:101C980003F322EA03034B604B6800FA04F41C4385
:101CA8004C604B6800FA05F523EA05054D6090E79E
:101CB8005F494E68012000FA02F232434A604A68DE
:101CC80000FA03F322EA03034B604B6800FA04F4BA
:101CD80023EA04044C604B6800FA05F51D434D6087
:101CE80077E703291ED0042936D005294DD00629C7
:101CF8007FF46FAF4E494E68012000FA02F226EADF
:101D080002024A604A6800FA03F313434B604B68C7
:101D180000FA04F41C434C604B6800FA05F51D43B7
:101D28004D6056E742494E68012000FA02F226EA61
:101D380002024A604A6800FA03F313434B604B6897
:101D480000FA04F423EA04044C604B6800FA05F531
:101D580023EA05054D603CE735494E68012000FA45
:101D680002F226EA02024A604A6800FA03F31343C1
:101D78004B604B6800FA04F41C434C604B6800FA53
:101D880005F523EA05054D6023E729494E6801203A
:101D980000FA02F226EA02024A604A6800FA03F3ED
:101DA80013434B604B6800FA04F423EA04044C60C4
:101DB8004B6800FA05F51D434D600AE703291DD05D
:101DC800042937D005294DD006297FF402AF1849D8
:101DD8004E68012000FA02F232434A604A6800FA6B
:101DE80003F313434B604B6800FA04F41C434C6044
:101DF8004B6800FA05F51D434D60EAE60C494E684C
:101E0800012000FA02F232434A604A6800FA03F3FA
:101E180013434B604B6800FA04F423EA04044C6053
:101E28004B6800FA05F523EA05054D60D1E600BFC9
:101E38000010014017494E68012000FA02F23243AF
:101E48004A604A6800FA03F313434B604B6800FA90
:101E580004F41C434C604B6800FA05F523EA0505B9
:101E68004D60B6E60B494E68012000FA02F2324393
:101E78004A604A6800FA03F313434B604B6800FA60
:101E880004F423EA04044C604B6800FA05F51D438A
:101E98004D609EE60010014010B582B00C46114618
:101EA8000F2812D8DFE800F008131D27313B454FF3
:101EB80059636D77818B959F0323019302230093C8
:101EC800012300222046FFF78FFC02B010BD072334
:101ED800019306230093052304222046FFF784FC80
:101EE800F3E70B2301930A230093092308222046D2
:101EF800FFF77AFCE9E70F2301930E2300930D23E4
:101F08000C222046FFF770FCDFE71323019312230E
:101F18000093112310222046FFF766FCD5E717230C
:101F2800019316230093152314222046FFF75CFC27
:101F3800CBE71B2301931A23009319231822204669
:101F4800FFF752FCC1E71F2301931E2300931D23B3
:101F58001C222046FFF748FCB7E70323019302231E
:101F68000093012300222046FFF7EAFDADE707238F
:101F7800019306230093052304222046FFF7E0FD82
:101F8800A3E70B2301930A23009309230822204681
:101F9800FFF7D6FD99E70F2301930E2300930D2336
:101FA8000C222046FFF7CCFD8FE713230193122361
:101FB8000093112310222046FFF7C2FD85E717235F
:101FC800019316230093152314222046FFF7B8FD2A
:101FD8007BE71B2301931A23009319231822204619
:101FE800FFF7AEFD71E71F2301931E2300931D2306
:101FF8001C222046FFF7A4FD67E710B50C461146E2
:10200800012808D010B102280AD010BD1A4620466F
:10201800FEF736FFF9E71A462046FFF733FBF4E7E9
:102028001A462046FFF738FFEFE70000064B1A680C
:1020380042F400721A605A6842F001025A605A6803
:1020480022F002025A6070470010024003498B696F
:10205800012202FA00F003438B617047001002402E
:1020680038B5002408E004EB44018800124A024411
:10207800013B13810134E4B2022C1CD804EB440365
:102088009A000D4B13445B68002BF3D00A4B1344A2
:102098009B7A002BEED1084B13441B89002BE2D10D
:1020A800054B62001519A8001D18185A0138288117
:1020B8006B689847DEE738BD1401002008B505486D
:1020C80000F02AF800F02EF84FF47A7000F030F89B
:1020D80008BD00BF69200008F0B400EB4004A5006B
:1020E800084C2C4464680CB1F0BC7047054C4500A2
:1020F8002F18BE00A719A1537A603B810023BB7239
:10210800F2E700BF1401002008B5024B1B6898478E
:1021180008BD00BF94010020014B1860704700BF44
:1021280094010020014B02221A60704710E000E081
:102138000138044B586000229A601A6842F0010284
:102148001A60704710E000E0024AD36883F0010388
:10215800D360704700080140024AD36883F0020345
:10216800D360704700080140024AD36883F0040333
:10217800D36070470008014008B5FFF757FF0220F9
:10218800FFF764FF0323022200210846FFF735FF0B
:102198000323022201210020FFF72FFF032302223D
:1021A80011460020FFF729FF00230B4A4FF47A71EC
:1021B8001846FFF791FF0023084A4FF4FA610120FF
:1021C800FFF78AFF0023064A40F6B8310220FFF7DE
:1021D80083FFFFF773FFFEE7512100086121000824
:1021E80071210008014B1868704700BF20000020CB
:1021F80030B5141E05469BB0184605DA8B234FF000
:10220800FF302B601BB030BD4FF40273ADF80C30BB
:102218000CBF234604F1FF33029305934FF6FF7377
:1022280000910491ADF80E3002461E9B694628467F
:1022380000F072F8431CBCBF8B232B60002CE1D04C
:102248000022009B1A70DDE707B5009313460A4683
:10225800014603480068FFF7CBFF03B05DF804FBB5
:10226800200000202DE9F0478E6882469E420C46E9
:102278009046994637D88A8912F4906F31D0022354
:10228800256809696F1A656905EB450595FBF3F53E
:1022980009F101033B449D4238BF1D46530530D523
:1022A800294600F035FB064650B90C234FF0FF30A5
:1022B800CAF80030A38943F04003A381BDE8F08742
:1022C8003A46216900F0B4FAA38923F4906343F0F5
:1022D8008003A38126613E4426604E466561ED1B5E
:1022E800A5604E4500D94E4632464146206800F06A
:1022F800AAFAA36800209B1BA36023681E442660DB
:10230800DCE72A4600F05EFB06460028E2D1216998
:10231800504600F0B1FAC8E72DE9F04F9DB003939D
:102328008B8980461D060C4616460FD50B696BB97E
:10233800402100F0EDFA2060206128B90C23C8F88C
:1023480000304FF0FF30C7E040236361002309935A
:1023580020238DF8293030234FF0010B8DF82A30D7
:1023680037463D4615F8013B0BB1252B3ED1B7EB5F
:10237800060A0BD05346324621464046FFF772FF05
:10238800013000F0A480099B534409933B78002B4B
:1023980000F09D8000234FF0FF32CDE90523049320
:1023A80007938DF853301A932F46052217F8011B0F
:1023B8004F4800F02FFA049BD0B9D90644BF202219
:1023C8008DF853201A0744BF2B228DF853202A7802
:1023D8002A2A15D02F4600200A25079A394611F8CF
:1023E800013B303B092B4DD9B8B10FE02F46B8E778
:1023F8003F4A3D46801A0BFA00F018430490D3E791
:10240800039A111D12680391002A01DB079204E068
:10241800524243F00203079204933B782E2B0CD1CF
:102428007B782A2B33D1039B02371A1D1B68039232
:10243800002BB8BF4FF0FF3305932E4D0322397898
:10244800284600F0E7F938B14023401B03FA00F0B2
:10245800049B0137034304933978062226487E1CDF
:102468008DF8281000F0D6F9002838D0234B13BB7C
:10247800039B073323F0070308330393099B4B445B
:1024880009936DE705FB023201200F46A6E70023FA
:102498000A25194601370593384610F8012B303ABA
:1024A800092A03D9002BC8D00591C6E705FB0121ED
:1024B80001230746F0E703AB00932246104B04A91B
:1024C8004046AFF30080B0F1FF3F8146D6D1A389E3
:1024D8005B063FF536AF09981DB0BDE8F08F03AB3A
:1024E80000932246064B04A9404600F081F8EAE72B
:1024F800942B00089A2B00089E2B0008000000006F
:102508006D2200082DE9F04791461F468A680B693D
:1025180006469342B8BF1346C9F8003091F84320E5
:102528000C46DDF8208012B10133C9F80030236869
:10253800990642BFD9F800300233C9F8003025683F
:1025480015F0060507D104F1190AE368D9F8002047
:102558009B1AAB4229DC94F843302268003318BF39
:10256800012392062ED404F1430239463046C0476F
:10257800013021D02368E56803F00603042B18BF57
:102588000025D9F800204FF0000908BFAD1AA3684C
:10259800226908BF25EAE5759342C4BF9B1AED1866
:1025A8001A344D451AD1002008E001235246394615
:1025B8003046C047013003D14FF0FF30BDE8F08707
:1025C8000135C2E73020E11881F843005A1C94F81D
:1025D80045102244023382F84310C4E701232246FF
:1025E80039463046C0470130E6D009F10109D8E73D
:1025F8002DE9F04301F1430C0C46097E85B06E29A4
:102608001746064698460C9A00F0B38022D86329EC
:1026180036D00AD8002900F0B980582900F0838004
:1026280004F1420584F8421032E0642901D0692996
:10263800F6D120681368050603F104012AD51B6842
:102648001160002B03DA2D225B4284F843206F4887
:102658000A2239E0732900F09D8008D86F2920D01C
:102668007029DDD1236843F02003236003E0752936
:1026780017D07829D4D17823654884F8453055E0B7
:10268800136804F14205191D1B68116084F8423073
:1026980001238CE01B6810F0400F116018BF1BB2BB
:1026A800CFE713682568181D1060280601D51B6838
:1026B80002E06806FBD51B886F2914BF0A2208228E
:1026C8005248002184F843106568002DA560C0F2C7
:1026D8009580216821F004012160002B3DD1002D57
:1026E80040F08E806546082A0BD12368DB0708D5A1
:1026F800236962689A42DEBF302305F8013C05F180
:10270800FF35ACEB05032361CDF800803B4603AAF7
:1027180021463046FFF7F6FE01304DD14FF0FF302D
:1027280005B0BDE8F083394884F84510136821687E
:102738001D1D1B6815600A060BD5CA0744BF41F06A
:10274800200121601BB9226822F020022260102299
:10275800B7E74D0648BF9BB2EFE76546B3FBF2F11A
:1027680002FB1133C35C05F8013D0B460029F5D186
:10277800B9E713682568181D6169106028061B6889
:1027880001D5196002E06A06FBD519800023654669
:102798002361B9E71368191D11601D68626800217B
:1027A800284600F037F808B1401B60606368236171
:1027B800002384F84330A7E723692A463946304680
:1027C800C0470130AAD023689B0713D4E068039B55
:1027D8009842B8BF1846A3E701234A46394630460F
:1027E800C04701309AD00135E368039A9B1AAB427F
:1027F800F2DCEBE7002504F11909F5E7002BACD171
:10280800037804F1420584F842306CE7A52B0008F0
:10281800B62B000810B5C9B202449042034601D154
:10282800002303E01C7801308C42F6D1184610BD15
:1028380010B5431E0A44914200D110BD11F8014B56
:1028480003F8014FF7E7884210B501EB020307D8F8
:10285800421E99420AD011F8014B02F8014FF8E7DD
:102868008342F5D98118D21AD34200D110BD13F88A
:10287800014D01F8014DF7E738B50546002943D069
:1028880051F8043C0C1F002BB8BFE41800F0D0F836
:102898001E4A1368104633B9636014602846BDE8C1
:1028A800384000F0C6B8A3420BD921686218934299
:1028B80001BF1A685B685218226063600460EDE724
:1028C80013465A680AB1A242FAD919685818A042A0
:1028D8000BD120680144581882421960DED1106873
:1028E8005268014419605A60D8E702D90C232B605A
:1028F800D4E7206821188A4201BF11685268091874
:10290800216062605C60C9E738BD00BF3801002003
:1029180070B5CD1C25F0030508350C2D38BF0C25E6
:10292800002D064601DBA94203D90C2333600020A1
:1029380070BD00F07DF8214A1468214691B9204CF9
:1029480023681BB9304600F063F8206029463046FA
:1029580000F05EF8431C24D10C233046336000F0AD
:1029680068F8E4E70B685B1B18D40B2B0FD90B60D6
:10297800CC18CD50304600F05CF804F10B00231D54
:1029880020F00700C31AD3D05A42E250D0E74B6870
:102998008C4216BF636013600C46EBE70C4649682F
:1029A800CCE7C41C24F00304A04205D0211A304609
:1029B80000F02EF80130CFD02560DBE73801002089
:1029C8003C010020F8B5074614460E4621B9BDE87B
:1029D800F8401146FFF79CBF22B9FFF74DFF254687
:1029E8002846F8BD00F026F8A0420FD22146384606
:1029F800FFF78EFF05460028F2D031462246FFF742
:102A080017FF31463846FFF737FFE9E73546E7E76E
:102A180038B50023054C054608462360FDF7AAFC97
:102A2800431C02D1236803B12B6038BD400100204C
:102A38007047704751F8043C181F002BBCBF0B5857
:102A4800C0187047537461636B206672616D653A94
:102A58000A000000205230203D2020253038580A36
:102A680000000000205231203D2020253038580A2F
:102A780000000000205232203D2020253038580A1E
:102A880000000000205233203D2020253038580A0D
:102A98000000000020523132203D20253038580AED
:102AA80000000000204C52203D2020253038580AD4
:102AB80000000000205043203D2020253038580ACF
:102AC8000000000020505352203D20253038580A7D
:102AD800000000004653522F4641523A0A000000B7
:102AE8002043465352203D2020253038580A000004
:102AF8002048465352203D2020253038580A0000EF
:102B08002044465352203D2020253038580A0000E2
:102B18002041465352203D2020253038580A0000D5
:102B2800204D4D464152203D20253038580A00009E
:102B38002042464152203D2020253038580A0000C6
:102B48004D6973630A000000204C522F4558435FBB
:102B580052455455524E3D20253038580A00000041
:102B68005B486172644661756C745D0A0000000020
:102B78005B4275734661756C745D0A005B557361E1
:102B880067654661756C745D0A000000232D302B63
:102B98002000686C4C006566674546470030313256
:102BA80033343536373839414243444546003031AD
:0F2BB8003233343536373839616263646566000D
:102BC8007856341290000020000000000000000039
:102BD80000000000010203040607080900A24A04D5
:102BE8002400002000000000000000000000000099
:102BF80000000000000000000000000000000000CD
:102C080000000000000000000000000000000000BC
:102C180000000000000000000000000000000000AC
:102C2800000000000000000000000000000000009C
:102C3800000000000000000000000000000000008C
:082C48000000000032547698F0
:040000050800010DE1
:00000001FF
