:020000040800F2
:1000000000500020FD2E00084D2F00084D2F000845
:100010004D2F00084D2F00084D2F00080000000054
:100020000000000000000000000000004D2F00084C
:100030004D2F0008000000004D2F0008492E000839
:100040004D2F00084D2F00084D2F00084D2F0008A0
:100050004D2F00084D2F00084D2F00084D2F000890
:100060004D2F00084D2F00084D2F00084D2F000880
:100070004D2F00084D2F00084D2F00084D2F000870
:100080004D2F00084D2F00084D2F00084D2F000860
:100090004D2F00084D2F00084D2F00084D2F000850
:1000A0004D2F00084D2F00084D2F00084D2F000840
:1000B0004D2F00084D2F00084D2F00084D2F000830
:1000C0004D2F00084D2F00084D2F0008912D0008DE
:1000D0004D2F00084D2F00084D2F00084D2F000810
:1000E0004D2F00084D2F0008000000004D2F000884
:1000F0004D2F00084D2F00084D2F00084D2F0008F0
:100100004D2F00084D2F00084D2F00084D2F0008DF
:100110004D2F00084D2F00084D2F00084D2F0008CF
:100120004D2F00084D2F00084D2F00084D2F0008BF
:1001300010B5054C237833B9044B13B10448AFF321
:1001400000800123237010BD00000020000000008B
:10015000982F000808B5034B1BB103490348AFF3C0
:10016000008008BD0000000004000020982F000857
:1001700080B582B000AF0346FB710022022100204F
:1001800002F0D0FCFB79184602F0EAFD00BF083708
:10019000BD4680BD80B582B000AF0346FB71012231
:1001A0000221002002F0BEFCFB79184602F0D8FDC7
:1001B00000BF0837BD4680BD80B500AF00220121D9
:1001C000002002F0AFFC4FF47A7002F00BFE012227
:1001D0000121002002F0A6FC0E4802F003FE1120CF
:1001E000FFF7C6FF0B4802F0FDFD3A20FFF7C0FF06
:1001F0000520FFF7CFFF2920FFF7BAFF4FF47A70F1
:1002000002F0F0FD3620FFF7B3FFC020FFF7C2FF7A
:1002100000BF80BDF049020080B584B000AF7860B7
:100220000023BB7334E02A20FFF7A2FF0020FFF772
:10023000B1FF0020FFF7AEFF2B20FFF799FF002052
:10024000FFF7A8FFBB7B1846FFF7A4FF2C20FFF7A2
:100250008FFF0023FB7314E07B681B88BB81BB8985
:100260001B0A9BB2DBB21846FFF794FFBB89DBB2D7
:100270001846FFF78FFF7B6802337B60FB7B0133FF
:10028000FB7397F90F30002BE6DABB7B0133BB73AE
:10029000BB7B9F2BC7D900BF00BF1037BD4680BDB9
:1002A00090B482B000AF0446084611461A46234671
:1002B000FB710346BB710B467B7113463B71FB79A7
:1002C000032B00F2CC8201A252F823F0DD020008D9
:1002D000FB03000871050008E3060008BB79002B4A
:1002E0002CD1A24B1B687A79012101FA02F2D24388
:1002F00011469E4A0B4013609C4B1B683A790121C2
:1003000001FA02F2D2431146984A0B401360974B10
:100310001B683A7C012101FA02F2D2431146934A4A
:100320000B401360914B1B683A7D012101FA02F2E8
:10033000D24311468D4A0B40136089E2BB79012BF1
:100340002BD18A4B1B687A79012101FA02F2D24340
:100350001146864A0B401360844B1B683A79012191
:1003600001FA02F2D2431146804A0B4013607F4BE0
:100370001B683A7C012101FA02F211467B4A0B43C9
:1003800013607A4B1B683A7D012101FA02F2D243D5
:100390001146764A0B4013605AE2BB79022B40F0BB
:1003A0005782724B1B687A79012101FA02F2D2431B
:1003B00011466E4A0B4013606C4B1B683A79012161
:1003C00001FA02F2D2431146684A0B401360674BB0
:1003D0001B683A7C012101FA02F2D2431146634ABA
:1003E0000B401360614B1B683A7D012101FA02F258
:1003F00011465E4A0B4313602AE2BB79032B2BD1D3
:100400005A4B1B687A79012101FA02F21146574AC8
:100410000B431360554B1B683A79012101FA02F234
:10042000D2431146514A0B401360504B1B683A7C33
:10043000012101FA02F2D24311464C4A0B401360EB
:100440004A4B1B683A7D012101FA02F2D243114660
:10045000464A0B401360FDE1BB79042B2AD1434B84
:100460001B687A79012101FA02F211463F4A0B43D7
:1004700013603E4B1B683A79012101FA02F2D24324
:1004800011463A4A0B401360384B1B683A7C0121F5
:1004900001FA02F21146354A0B431360334B1B68D5
:1004A0003A7D012101FA02F2D24311462F4A0B4054
:1004B0001360CFE1BB79052B2AD12C4B1B687A79CD
:1004C000012101FA02F21146284A0B431360274B1F
:1004D0001B683A79012101FA02F2D2431146234AFC
:1004E0000B401360214B1B683A7C012101FA02F298
:1004F000D24311461D4A0B4013601C4B1B683A7DCA
:10050000012101FA02F21146184A0B431360A1E1DE
:10051000BB79062B40F09E81144B1B687A79012130
:1005200001FA02F21146114A0B4313600F4B1B688C
:100530003A79012101FA02F2D24311460B4A0B40EB
:1005400013600A4B1B683A7C012101FA02F2114642
:10055000064A0B431360054B1B683A7D012101FAE3
:1005600002F21146014A0B43136073E10008014097
:10057000BB79032B2BD19F4B1B687A79012101FAA0
:1005800002F2D24311469B4A0B401360994B1B6801
:100590003A79012101FA02F21146964A0B4313609F
:1005A000944B1B683A7C012101FA02F2D2431146B6
:1005B000904A0B4013608F4B1B683A7D012101FA72
:1005C00002F2D24311468B4A0B40136044E1BB79DF
:1005D000042B2AD1874B1B687A79012101FA02F298
:1005E000D2431146834A0B401360824B1B683A7911
:1005F000012101FA02F211467E4A0B4313607D4B42
:100600001B683A7C012101FA02F21146794A0B4338
:100610001360784B1B683A7D012101FA02F2D24344
:100620001146744A0B40136016E1BB79052B2AD1A1
:10063000704B1B687A79012101FA02F2D24311460C
:100640006C4A0B4013606B4B1B683A79012101FA2D
:1006500002F21146674A0B431360664B1B683A7CF3
:10066000012101FA02F2D2431146624A0B401360A3
:10067000604B1B683A7D012101FA02F211465D4A86
:100680000B431360E8E0BB79062B40F0E580594B43
:100690001B687A79012101FA02F2D2431146554AC8
:1006A0000B401360534B1B683A79012101FA02F2A7
:1006B0001146504A0B4313604E4B1B683A7C012194
:1006C00001FA02F211464B4A0B431360494B1B6877
:1006D0003A7D012101FA02F21146464A0B431360AA
:1006E000BAE0BB79032B2AD1424B1B687A790121EE
:1006F00001FA02F211463F4A0B4313603D4B1B685F
:100700003A79012101FA02F211463A4A0B43136089
:10071000384B1B683A7C012101FA02F2D2431146A0
:10072000344A0B401360334B1B683A7D012101FAB8
:1007300002F2D24311462F4A0B4013608EE0BB7980
:10074000042B29D12B4B1B687A79012101FA02F283
:100750001146284A0B431360264B1B683A79012146
:1007600001FA02F21146234A0B431360214B1B6826
:100770003A7C012101FA02F211461E4A0B43136032
:100780001C4B1B683A7D012101FA02F2D24311464B
:10079000184A0B40136061E0BB79052B2CD1154B37
:1007A0001B687A79012101FA02F21146114A0B43C2
:1007B0001360104B1B683A79012101FA02F21146CD
:1007C0000C4A0B4313600B4B1B683A7C012101FA66
:1007D00002F2D2431146074A0B401360054B1B68D7
:1007E0003A7D012101FA02F21146024A0B431360DD
:1007F00034E000BF00080140BB79062B2ED11A4B14
:100800001B687A79012101FA02F21146164A0B435C
:100810001360154B1B683A79012101FA02F2114667
:10082000114A0B431360104B1B683A7C012101FAFB
:1008300002F211460C4A0B4313600B4B1B683A7DC6
:10084000012101FA02F21146074A0B43136005E049
:1008500000BF04E000BF02E000BF00E000BF00BF37
:100860000837BD4690BC70470008014090B482B084
:1008700000AF0446084611461A462346FB7103465C
:10088000BB710B467B7113463B71FB79032B00F266
:10089000CC8201A252F823F0A9080008C709000879
:1008A0003D0B0008AF0C0008BB79002B2CD1A24BEC
:1008B0005B687A79012101FA02F2D24311469E4A1D
:1008C0000B4053609C4B5B683A79012101FA02F2BC
:1008D000D2431146984A0B405360974B5B683A7C71
:1008E000012101FA02F2D2431146934A0B405360B0
:1008F000914B5B683A7D012101FA02F2D243114625
:100900008D4A0B40536089E2BB79012B2BD18A4B76
:100910005B687A79012101FA02F2D2431146864AD4
:100920000B405360844B5B683A79012101FA02F273
:10093000D2431146804A0B4053607F4B5B683A7C40
:10094000012101FA02F211467B4A0B4353607A4BB4
:100950005B683A7D012101FA02F2D2431146764AE0
:100960000B4053605AE2BB79022B40F05782724B26
:100970005B687A79012101FA02F2D24311466E4A8C
:100980000B4053606C4B5B683A79012101FA02F22B
:10099000D2431146684A0B405360674B5B683A7C10
:1009A000012101FA02F2D2431146634A0B4053601F
:1009B000614B5B683A7D012101FA02F211465E4A01
:1009C0000B4353602AE2BB79032B2BD15A4B5B6854
:1009D0007A79012101FA02F21146574A0B4353601A
:1009E000554B5B683A79012101FA02F2D243114674
:1009F000514A0B405360504B5B683A7C012101FA2D
:100A000002F2D24311464C4A0B4053604A4B5B689A
:100A10003A7D012101FA02F2D2431146464A0B40C7
:100A20005360FDE1BB79042B2AD1434B5B687A7993
:100A3000012101FA02F211463F4A0B4353603E4B3B
:100A40005B683A79012101FA02F2D24311463A4A2F
:100A50000B405360384B5B683A7C012101FA02F28B
:100A60001146354A0B435360334B5B683A7D012195
:100A700001FA02F2D24311462F4A0B405360CFE1F4
:100A8000BB79052B2AD12C4B5B687A79012101FABD
:100A900002F21146284A0B435360274B5B683A79B0
:100AA000012101FA02F2D2431146234A0B4053605E
:100AB000214B5B683A7C012101FA02F2D2431146D4
:100AC0001D4A0B4053601C4B5B683A7D012101FAC3
:100AD00002F21146184A0B435360A1E1BB79062B81
:100AE00040F09E81144B5B687A79012101FA02F291
:100AF0001146114A0B4353600F4B5B683A79012151
:100B000001FA02F2D24311460B4A0B4053600A4BE2
:100B10005B683A7C012101FA02F21146064A0B4356
:100B20005360054B5B683A7D012101FA02F21146E0
:100B3000014A0B43536073E100080140BB79032B6A
:100B40002BD19F4B5B687A79012101FA02F2D243E3
:100B500011469B4A0B405360994B5B683A790121DF
:100B600001FA02F21146964A0B435360944B5B68BC
:100B70003A7C012101FA02F2D2431146904A0B401D
:100B800053608F4B5B683A7D012101FA02F2D24338
:100B900011468B4A0B40536044E1BB79042B2AD1A8
:100BA000874B5B687A79012101FA02F2D243114640
:100BB000834A0B405360824B5B683A79012101FA0A
:100BC00002F211467E4A0B4353607D4B5B683A7CD0
:100BD000012101FA02F21146794A0B435360784B26
:100BE0005B683A7D012101FA02F2D2431146744A50
:100BF0000B40536016E1BB79052B2AD1704B5B6823
:100C00007A79012101FA02F2D24311466C4A0B4073
:100C100053606B4B5B683A79012101FA02F211468D
:100C2000674A0B435360664B5B683A7C012101FACB
:100C300002F2D2431146624A0B405360604B5B683C
:100C40003A7D012101FA02F211465D4A0B435360DD
:100C5000E8E0BB79062B40F0E580594B5B687A7978
:100C6000012101FA02F2D2431146554A0B4053606A
:100C7000534B5B683A79012101FA02F21146504A5E
:100C80000B4353604E4B5B683A7C012101FA02F240
:100C900011464B4A0B435360494B5B683A7D012137
:100CA00001FA02F21146464A0B435360BAE0BB799F
:100CB000032B2AD1424B5B687A79012101FA02F2B7
:100CC00011463F4A0B4353603D4B5B683A79012123
:100CD00001FA02F211463A4A0B435360384B5B6803
:100CE0003A7C012101FA02F2D2431146344A0B4008
:100CF0005360334B5B683A7D012101FA02F2D24323
:100D000011462F4A0B4053608EE0BB79042B29D14A
:100D10002B4B5B687A79012101FA02F21146284ACD
:100D20000B435360264B5B683A79012101FA02F2CA
:100D30001146234A0B435360214B5B683A7C0121E7
:100D400001FA02F211461E4A0B4353601C4B5B68CA
:100D50003A7D012101FA02F2D2431146184A0B40B2
:100D6000536061E0BB79052B2CD1154B5B687A7918
:100D7000012101FA02F21146114A0B435360104B54
:100D80005B683A79012101FA02F211460C4A0B43E1
:100D900053600B4B5B683A7C012101FA02F2D243AB
:100DA0001146074A0B405360054B5B683A7D0121B1
:100DB00001FA02F21146024A0B43536034E000BFCD
:100DC00000080140BB79062B2ED11A4B5B687A795B
:100DD000012101FA02F21146164A0B435360154BEA
:100DE0005B683A79012101FA02F21146114A0B437C
:100DF0005360104B5B683A7C012101FA02F2114604
:100E00000C4A0B4353600B4B5B683A7D012101FA9E
:100E100002F21146074A0B43536005E000BF04E0AD
:100E200000BF02E000BF00E000BF00BF0837BD46C2
:100E300090BC70470008014080B584B002AF034603
:100E4000FB710B46BB7113467B71FB790F2B00F2D4
:100E5000D38001A252F823F0990E0008AF0E0008CB
:100E6000C50E0008DB0E0008F10E0008070F000891
:100E70001D0F0008330F0008490F00085F0F00081E
:100E8000750F00088B0F0008A10F0008B70F0008AE
:100E9000CD0F0008E30F00087979B8790323019397
:100EA0000223009301230022FFF7FAF9A4E07979E5
:100EB000B879072301930623009305230422FFF743
:100EC000EFF999E07979B8790B2301930A2300931C
:100ED00009230822FFF7E4F98EE07979B8790F2326
:100EE00001930E2300930D230C22FFF7D9F983E021
:100EF0007979B879132301931223009311231022D7
:100F0000FFF7CEF978E07979B879172301931623A2
:100F1000009315231422FFF7C3F96DE07979B879AE
:100F20001B2301931A23009319231822FFF7B8F902
:100F300062E07979B8791F2301931E2300931D2362
:100F40001C22FFF7ADF957E07979B87903230193B3
:100F50000223009301230022FFF788FC4CE07979FB
:100F6000B879072301930623009305230422FFF792
:100F70007DFC41E07979B8790B2301930A23009332
:100F800009230822FFF772FC36E07979B8790F233C
:100F900001930E2300930D230C22FFF767FC2BE037
:100FA0007979B87913230193122300931123102226
:100FB000FFF75CFC20E07979B879172301931623B9
:100FC000009315231422FFF751FC15E07979B879C5
:100FD0001B2301931A23009319231822FFF746FCC1
:100FE0000AE07979B8791F2301931E2300931D230A
:100FF0001C22FFF73BFC00BF00BF0837BD4680BD89
:1010000090B482B000AF0446084611461A46234603
:10101000FB710346BB710B467B7113463B71FB7939
:10102000032B00F2CC8201A252F823F03D100008FD
:101030005B110008D112000843140008BB79002B93
:101040002CD1A24B1B687A79012101FA02F2D2431A
:1010500011469E4A0B4013609C4B1B683A79012154
:1010600001FA02F2D2431146984A0B401360974BA3
:101070001B683A7C012101FA02F2D2431146934ADD
:101080000B401360914B1B683A7D012101FA02F27B
:10109000D24311468D4A0B40136089E2BB79012B84
:1010A0002BD18A4B1B687A79012101FA02F2D243D3
:1010B0001146864A0B401360844B1B683A79012124
:1010C00001FA02F2D2431146804A0B4013607F4B73
:1010D0001B683A7C012101FA02F211467B4A0B435C
:1010E00013607A4B1B683A7D012101FA02F2D24368
:1010F0001146764A0B4013605AE2BB79022B40F04E
:101100005782724B1B687A79012101FA02F2D243AD
:1011100011466E4A0B4013606C4B1B683A790121F3
:1011200001FA02F2D2431146684A0B401360674B42
:101130001B683A7C012101FA02F2D2431146634A4C
:101140000B401360614B1B683A7D012101FA02F2EA
:1011500011465E4A0B4313602AE2BB79032B2BD165
:101160005A4B1B687A79012101FA02F21146574A5B
:101170000B431360554B1B683A79012101FA02F2C7
:10118000D2431146514A0B401360504B1B683A7CC6
:10119000012101FA02F2D24311464C4A0B4013607E
:1011A0004A4B1B683A7D012101FA02F2D2431146F3
:1011B000464A0B401360FDE1BB79042B2AD1434B17
:1011C0001B687A79012101FA02F211463F4A0B436A
:1011D00013603E4B1B683A79012101FA02F2D243B7
:1011E00011463A4A0B401360384B1B683A7C012188
:1011F00001FA02F21146354A0B431360334B1B6868
:101200003A7D012101FA02F2D24311462F4A0B40E6
:101210001360CFE1BB79052B2AD12C4B1B687A795F
:10122000012101FA02F21146284A0B431360274BB1
:101230001B683A79012101FA02F2D2431146234A8E
:101240000B401360214B1B683A7C012101FA02F22A
:10125000D24311461D4A0B4013601C4B1B683A7D5C
:10126000012101FA02F21146184A0B431360A1E171
:10127000BB79062B40F09E81144B1B687A790121C3
:1012800001FA02F21146114A0B4313600F4B1B681F
:101290003A79012101FA02F2D24311460B4A0B407E
:1012A00013600A4B1B683A7C012101FA02F21146D5
:1012B000064A0B431360054B1B683A7D012101FA76
:1012C00002F21146014A0B43136073E1000C014026
:1012D000BB79032B2BD19F4B1B687A79012101FA33
:1012E00002F2D24311469B4A0B401360994B1B6894
:1012F0003A79012101FA02F21146964A0B43136032
:10130000944B1B683A7C012101FA02F2D243114648
:10131000904A0B4013608F4B1B683A7D012101FA04
:1013200002F2D24311468B4A0B40136044E1BB7971
:10133000042B2AD1874B1B687A79012101FA02F22A
:10134000D2431146834A0B401360824B1B683A79A3
:10135000012101FA02F211467E4A0B4313607D4BD4
:101360001B683A7C012101FA02F21146794A0B43CB
:101370001360784B1B683A7D012101FA02F2D243D7
:101380001146744A0B40136016E1BB79052B2AD134
:10139000704B1B687A79012101FA02F2D24311469F
:1013A0006C4A0B4013606B4B1B683A79012101FAC0
:1013B00002F21146674A0B431360664B1B683A7C86
:1013C000012101FA02F2D2431146624A0B40136036
:1013D000604B1B683A7D012101FA02F211465D4A19
:1013E0000B431360E8E0BB79062B40F0E580594BD6
:1013F0001B687A79012101FA02F2D2431146554A5B
:101400000B401360534B1B683A79012101FA02F239
:101410001146504A0B4313604E4B1B683A7C012126
:1014200001FA02F211464B4A0B431360494B1B6809
:101430003A7D012101FA02F21146464A0B4313603C
:10144000BAE0BB79032B2AD1424B1B687A79012180
:1014500001FA02F211463F4A0B4313603D4B1B68F1
:101460003A79012101FA02F211463A4A0B4313601C
:10147000384B1B683A7C012101FA02F2D243114633
:10148000344A0B401360334B1B683A7D012101FA4B
:1014900002F2D24311462F4A0B4013608EE0BB7913
:1014A000042B29D12B4B1B687A79012101FA02F216
:1014B0001146284A0B431360264B1B683A790121D9
:1014C00001FA02F21146234A0B431360214B1B68B9
:1014D0003A7C012101FA02F211461E4A0B431360C5
:1014E0001C4B1B683A7D012101FA02F2D2431146DE
:1014F000184A0B40136061E0BB79052B2CD1154BCA
:101500001B687A79012101FA02F21146114A0B4354
:101510001360104B1B683A79012101FA02F211465F
:101520000C4A0B4313600B4B1B683A7C012101FAF8
:1015300002F2D2431146074A0B401360054B1B6869
:101540003A7D012101FA02F21146024A0B4313606F
:1015500034E000BF000C0140BB79062B2ED11A4BA2
:101560001B687A79012101FA02F21146164A0B43EF
:101570001360154B1B683A79012101FA02F21146FA
:10158000114A0B431360104B1B683A7C012101FA8E
:1015900002F211460C4A0B4313600B4B1B683A7D59
:1015A000012101FA02F21146074A0B43136005E0DC
:1015B00000BF04E000BF02E000BF00E000BF00BFCA
:1015C0000837BD4690BC7047000C014090B482B013
:1015D00000AF0446084611461A462346FB710346EF
:1015E000BB710B467B7113463B71FB79032B00F2F9
:1015F000CC8201A252F823F0091600082717000830
:101600009D1800080F1A0008BB79002B2CD1A24BA3
:101610005B687A79012101FA02F2D24311469E4AAF
:101620000B4053609C4B5B683A79012101FA02F24E
:10163000D2431146984A0B405360974B5B683A7C03
:10164000012101FA02F2D2431146934A0B40536042
:10165000914B5B683A7D012101FA02F2D2431146B7
:101660008D4A0B40536089E2BB79012B2BD18A4B09
:101670005B687A79012101FA02F2D2431146864A67
:101680000B405360844B5B683A79012101FA02F206
:10169000D2431146804A0B4053607F4B5B683A7CD3
:1016A000012101FA02F211467B4A0B4353607A4B47
:1016B0005B683A7D012101FA02F2D2431146764A73
:1016C0000B4053605AE2BB79022B40F05782724BB9
:1016D0005B687A79012101FA02F2D24311466E4A1F
:1016E0000B4053606C4B5B683A79012101FA02F2BE
:1016F000D2431146684A0B405360674B5B683A7CA3
:10170000012101FA02F2D2431146634A0B405360B1
:10171000614B5B683A7D012101FA02F211465E4A93
:101720000B4353602AE2BB79032B2BD15A4B5B68E6
:101730007A79012101FA02F21146574A0B435360AC
:10174000554B5B683A79012101FA02F2D243114606
:10175000514A0B405360504B5B683A7C012101FABF
:1017600002F2D24311464C4A0B4053604A4B5B682D
:101770003A7D012101FA02F2D2431146464A0B405A
:101780005360FDE1BB79042B2AD1434B5B687A7926
:10179000012101FA02F211463F4A0B4353603E4BCE
:1017A0005B683A79012101FA02F2D24311463A4AC2
:1017B0000B405360384B5B683A7C012101FA02F21E
:1017C0001146354A0B435360334B5B683A7D012128
:1017D00001FA02F2D24311462F4A0B405360CFE187
:1017E000BB79052B2AD12C4B5B687A79012101FA50
:1017F00002F21146284A0B435360274B5B683A7943
:10180000012101FA02F2D2431146234A0B405360F0
:10181000214B5B683A7C012101FA02F2D243114666
:101820001D4A0B4053601C4B5B683A7D012101FA55
:1018300002F21146184A0B435360A1E1BB79062B13
:1018400040F09E81144B5B687A79012101FA02F223
:101850001146114A0B4353600F4B5B683A790121E3
:1018600001FA02F2D24311460B4A0B4053600A4B75
:101870005B683A7C012101FA02F21146064A0B43E9
:101880005360054B5B683A7D012101FA02F2114673
:10189000014A0B43536073E1000C0140BB79032BF9
:1018A0002BD19F4B5B687A79012101FA02F2D24376
:1018B00011469B4A0B405360994B5B683A79012172
:1018C00001FA02F21146964A0B435360944B5B684F
:1018D0003A7C012101FA02F2D2431146904A0B40B0
:1018E00053608F4B5B683A7D012101FA02F2D243CB
:1018F00011468B4A0B40536044E1BB79042B2AD13B
:10190000874B5B687A79012101FA02F2D2431146D2
:10191000834A0B405360824B5B683A79012101FA9C
:1019200002F211467E4A0B4353607D4B5B683A7C62
:10193000012101FA02F21146794A0B435360784BB8
:101940005B683A7D012101FA02F2D2431146744AE2
:101950000B40536016E1BB79052B2AD1704B5B68B5
:101960007A79012101FA02F2D24311466C4A0B4006
:1019700053606B4B5B683A79012101FA02F2114620
:10198000674A0B435360664B5B683A7C012101FA5E
:1019900002F2D2431146624A0B405360604B5B68CF
:1019A0003A7D012101FA02F211465D4A0B43536070
:1019B000E8E0BB79062B40F0E580594B5B687A790B
:1019C000012101FA02F2D2431146554A0B405360FD
:1019D000534B5B683A79012101FA02F21146504AF1
:1019E0000B4353604E4B5B683A7C012101FA02F2D3
:1019F00011464B4A0B435360494B5B683A7D0121CA
:101A000001FA02F21146464A0B435360BAE0BB7931
:101A1000032B2AD1424B5B687A79012101FA02F249
:101A200011463F4A0B4353603D4B5B683A790121B5
:101A300001FA02F211463A4A0B435360384B5B6895
:101A40003A7C012101FA02F2D2431146344A0B409A
:101A50005360334B5B683A7D012101FA02F2D243B5
:101A600011462F4A0B4053608EE0BB79042B29D1DD
:101A70002B4B5B687A79012101FA02F21146284A60
:101A80000B435360264B5B683A79012101FA02F25D
:101A90001146234A0B435360214B5B683A7C01217A
:101AA00001FA02F211461E4A0B4353601C4B5B685D
:101AB0003A7D012101FA02F2D2431146184A0B4045
:101AC000536061E0BB79052B2CD1154B5B687A79AB
:101AD000012101FA02F21146114A0B435360104BE7
:101AE0005B683A79012101FA02F211460C4A0B4374
:101AF00053600B4B5B683A7C012101FA02F2D2433E
:101B00001146074A0B405360054B5B683A7D012143
:101B100001FA02F21146024A0B43536034E000BF5F
:101B2000000C0140BB79062B2ED11A4B5B687A79E9
:101B3000012101FA02F21146164A0B435360154B7C
:101B40005B683A79012101FA02F21146114A0B430E
:101B50005360104B5B683A7C012101FA02F2114696
:101B60000C4A0B4353600B4B5B683A7D012101FA31
:101B700002F21146074A0B43536005E000BF04E040
:101B800000BF02E000BF00E000BF00BF0837BD4655
:101B900090BC7047000C014080B584B002AF034692
:101BA000FB710B46BB7113467B71FB790F2B00F267
:101BB000D38001A252F823F0F91B00080F1C000883
:101BC000251C00083B1C0008511C0008671C00086D
:101BD0007D1C0008931C0008A91C0008BF1C0008FD
:101BE000D51C0008EB1C0008011D0008171D00088B
:101BF0002D1D0008431D00087979B879032301934E
:101C00000223009301230022FFF7FAF9A4E0797977
:101C1000B879072301930623009305230422FFF7D5
:101C2000EFF999E07979B8790B2301930A230093AE
:101C300009230822FFF7E4F98EE07979B8790F23B8
:101C400001930E2300930D230C22FFF7D9F983E0B3
:101C50007979B87913230193122300931123102269
:101C6000FFF7CEF978E07979B87917230193162335
:101C7000009315231422FFF7C3F96DE07979B87941
:101C80001B2301931A23009319231822FFF7B8F995
:101C900062E07979B8791F2301931E2300931D23F5
:101CA0001C22FFF7ADF957E07979B8790323019346
:101CB0000223009301230022FFF788FC4CE079798E
:101CC000B879072301930623009305230422FFF725
:101CD0007DFC41E07979B8790B2301930A230093C5
:101CE00009230822FFF772FC36E07979B8790F23CF
:101CF00001930E2300930D230C22FFF767FC2BE0CA
:101D00007979B879132301931223009311231022B8
:101D1000FFF75CFC20E07979B8791723019316234B
:101D2000009315231422FFF751FC15E07979B87957
:101D30001B2301931A23009319231822FFF746FC53
:101D40000AE07979B8791F2301931E2300931D239C
:101D50001C22FFF73BFC00BF00BF0837BD4680BD1B
:101D600090B482B000AF0446084611461A46234696
:101D7000FB710346BB710B467B7113463B71FB79CC
:101D8000032B00F2CC8201A252F823F09D1D000823
:101D9000BB1E000831200008A3210008BB79002BDE
:101DA0002CD1A24B1B687A79012101FA02F2D243AD
:101DB00011469E4A0B4013609C4B1B683A790121E7
:101DC00001FA02F2D2431146984A0B401360974B36
:101DD0001B683A7C012101FA02F2D2431146934A70
:101DE0000B401360914B1B683A7D012101FA02F20E
:101DF000D24311468D4A0B40136089E2BB79012B17
:101E00002BD18A4B1B687A79012101FA02F2D24365
:101E10001146864A0B401360844B1B683A790121B6
:101E200001FA02F2D2431146804A0B4013607F4B05
:101E30001B683A7C012101FA02F211467B4A0B43EE
:101E400013607A4B1B683A7D012101FA02F2D243FA
:101E50001146764A0B4013605AE2BB79022B40F0E0
:101E60005782724B1B687A79012101FA02F2D24340
:101E700011466E4A0B4013606C4B1B683A79012186
:101E800001FA02F2D2431146684A0B401360674BD5
:101E90001B683A7C012101FA02F2D2431146634ADF
:101EA0000B401360614B1B683A7D012101FA02F27D
:101EB00011465E4A0B4313602AE2BB79032B2BD1F8
:101EC0005A4B1B687A79012101FA02F21146574AEE
:101ED0000B431360554B1B683A79012101FA02F25A
:101EE000D2431146514A0B401360504B1B683A7C59
:101EF000012101FA02F2D24311464C4A0B40136011
:101F00004A4B1B683A7D012101FA02F2D243114685
:101F1000464A0B401360FDE1BB79042B2AD1434BA9
:101F20001B687A79012101FA02F211463F4A0B43FC
:101F300013603E4B1B683A79012101FA02F2D24349
:101F400011463A4A0B401360384B1B683A7C01211A
:101F500001FA02F21146354A0B431360334B1B68FA
:101F60003A7D012101FA02F2D24311462F4A0B4079
:101F70001360CFE1BB79052B2AD12C4B1B687A79F2
:101F8000012101FA02F21146284A0B431360274B44
:101F90001B683A79012101FA02F2D2431146234A21
:101FA0000B401360214B1B683A7C012101FA02F2BD
:101FB000D24311461D4A0B4013601C4B1B683A7DEF
:101FC000012101FA02F21146184A0B431360A1E104
:101FD000BB79062B40F09E81144B1B687A79012156
:101FE00001FA02F21146114A0B4313600F4B1B68B2
:101FF0003A79012101FA02F2D24311460B4A0B4011
:1020000013600A4B1B683A7C012101FA02F2114667
:10201000064A0B431360054B1B683A7D012101FA08
:1020200002F21146014A0B43136073E100100140B4
:10203000BB79032B2BD19F4B1B687A79012101FAC5
:1020400002F2D24311469B4A0B401360994B1B6826
:102050003A79012101FA02F21146964A0B431360C4
:10206000944B1B683A7C012101FA02F2D2431146DB
:10207000904A0B4013608F4B1B683A7D012101FA97
:1020800002F2D24311468B4A0B40136044E1BB7904
:10209000042B2AD1874B1B687A79012101FA02F2BD
:1020A000D2431146834A0B401360824B1B683A7936
:1020B000012101FA02F211467E4A0B4313607D4B67
:1020C0001B683A7C012101FA02F21146794A0B435E
:1020D0001360784B1B683A7D012101FA02F2D2436A
:1020E0001146744A0B40136016E1BB79052B2AD1C7
:1020F000704B1B687A79012101FA02F2D243114632
:102100006C4A0B4013606B4B1B683A79012101FA52
:1021100002F21146674A0B431360664B1B683A7C18
:10212000012101FA02F2D2431146624A0B401360C8
:10213000604B1B683A7D012101FA02F211465D4AAB
:102140000B431360E8E0BB79062B40F0E580594B68
:102150001B687A79012101FA02F2D2431146554AED
:102160000B401360534B1B683A79012101FA02F2CC
:102170001146504A0B4313604E4B1B683A7C0121B9
:1021800001FA02F211464B4A0B431360494B1B689C
:102190003A7D012101FA02F21146464A0B431360CF
:1021A000BAE0BB79032B2AD1424B1B687A79012113
:1021B00001FA02F211463F4A0B4313603D4B1B6884
:1021C0003A79012101FA02F211463A4A0B431360AF
:1021D000384B1B683A7C012101FA02F2D2431146C6
:1021E000344A0B401360334B1B683A7D012101FADE
:1021F00002F2D24311462F4A0B4013608EE0BB79A6
:10220000042B29D12B4B1B687A79012101FA02F2A8
:102210001146284A0B431360264B1B683A7901216B
:1022200001FA02F21146234A0B431360214B1B684B
:102230003A7C012101FA02F211461E4A0B43136057
:102240001C4B1B683A7D012101FA02F2D243114670
:10225000184A0B40136061E0BB79052B2CD1154B5C
:102260001B687A79012101FA02F21146114A0B43E7
:102270001360104B1B683A79012101FA02F21146F2
:102280000C4A0B4313600B4B1B683A7C012101FA8B
:1022900002F2D2431146074A0B401360054B1B68FC
:1022A0003A7D012101FA02F21146024A0B43136002
:1022B00034E000BF00100140BB79062B2ED11A4B31
:1022C0001B687A79012101FA02F21146164A0B4382
:1022D0001360154B1B683A79012101FA02F211468D
:1022E000114A0B431360104B1B683A7C012101FA21
:1022F00002F211460C4A0B4313600B4B1B683A7DEC
:10230000012101FA02F21146074A0B43136005E06E
:1023100000BF04E000BF02E000BF00E000BF00BF5C
:102320000837BD4690BC70470010014090B482B0A1
:1023300000AF0446084611461A462346FB71034681
:10234000BB710B467B7113463B71FB79032B00F28B
:10235000CC8201A252F823F06923000887240008E8
:10236000FD2500086F270008BB79002B2CD1A24B5C
:102370005B687A79012101FA02F2D24311469E4A42
:102380000B4053609C4B5B683A79012101FA02F2E1
:10239000D2431146984A0B405360974B5B683A7C96
:1023A000012101FA02F2D2431146934A0B405360D5
:1023B000914B5B683A7D012101FA02F2D24311464A
:1023C0008D4A0B40536089E2BB79012B2BD18A4B9C
:1023D0005B687A79012101FA02F2D2431146864AFA
:1023E0000B405360844B5B683A79012101FA02F299
:1023F000D2431146804A0B4053607F4B5B683A7C66
:10240000012101FA02F211467B4A0B4353607A4BD9
:102410005B683A7D012101FA02F2D2431146764A05
:102420000B4053605AE2BB79022B40F05782724B4B
:102430005B687A79012101FA02F2D24311466E4AB1
:102440000B4053606C4B5B683A79012101FA02F250
:10245000D2431146684A0B405360674B5B683A7C35
:10246000012101FA02F2D2431146634A0B40536044
:10247000614B5B683A7D012101FA02F211465E4A26
:102480000B4353602AE2BB79032B2BD15A4B5B6879
:102490007A79012101FA02F21146574A0B4353603F
:1024A000554B5B683A79012101FA02F2D243114699
:1024B000514A0B405360504B5B683A7C012101FA52
:1024C00002F2D24311464C4A0B4053604A4B5B68C0
:1024D0003A7D012101FA02F2D2431146464A0B40ED
:1024E0005360FDE1BB79042B2AD1434B5B687A79B9
:1024F000012101FA02F211463F4A0B4353603E4B61
:102500005B683A79012101FA02F2D24311463A4A54
:102510000B405360384B5B683A7C012101FA02F2B0
:102520001146354A0B435360334B5B683A7D0121BA
:1025300001FA02F2D24311462F4A0B405360CFE119
:10254000BB79052B2AD12C4B5B687A79012101FAE2
:1025500002F21146284A0B435360274B5B683A79D5
:10256000012101FA02F2D2431146234A0B40536083
:10257000214B5B683A7C012101FA02F2D2431146F9
:102580001D4A0B4053601C4B5B683A7D012101FAE8
:1025900002F21146184A0B435360A1E1BB79062BA6
:1025A00040F09E81144B5B687A79012101FA02F2B6
:1025B0001146114A0B4353600F4B5B683A79012176
:1025C00001FA02F2D24311460B4A0B4053600A4B08
:1025D0005B683A7C012101FA02F21146064A0B437C
:1025E0005360054B5B683A7D012101FA02F2114606
:1025F000014A0B43536073E100100140BB79032B88
:102600002BD19F4B5B687A79012101FA02F2D24308
:1026100011469B4A0B405360994B5B683A79012104
:1026200001FA02F21146964A0B435360944B5B68E1
:102630003A7C012101FA02F2D2431146904A0B4042
:1026400053608F4B5B683A7D012101FA02F2D2435D
:1026500011468B4A0B40536044E1BB79042B2AD1CD
:10266000874B5B687A79012101FA02F2D243114665
:10267000834A0B405360824B5B683A79012101FA2F
:1026800002F211467E4A0B4353607D4B5B683A7CF5
:10269000012101FA02F21146794A0B435360784B4B
:1026A0005B683A7D012101FA02F2D2431146744A75
:1026B0000B40536016E1BB79052B2AD1704B5B6848
:1026C0007A79012101FA02F2D24311466C4A0B4099
:1026D00053606B4B5B683A79012101FA02F21146B3
:1026E000674A0B435360664B5B683A7C012101FAF1
:1026F00002F2D2431146624A0B405360604B5B6862
:102700003A7D012101FA02F211465D4A0B43536002
:10271000E8E0BB79062B40F0E580594B5B687A799D
:10272000012101FA02F2D2431146554A0B4053608F
:10273000534B5B683A79012101FA02F21146504A83
:102740000B4353604E4B5B683A7C012101FA02F265
:1027500011464B4A0B435360494B5B683A7D01215C
:1027600001FA02F21146464A0B435360BAE0BB79C4
:10277000032B2AD1424B5B687A79012101FA02F2DC
:1027800011463F4A0B4353603D4B5B683A79012148
:1027900001FA02F211463A4A0B435360384B5B6828
:1027A0003A7C012101FA02F2D2431146344A0B402D
:1027B0005360334B5B683A7D012101FA02F2D24348
:1027C00011462F4A0B4053608EE0BB79042B29D170
:1027D0002B4B5B687A79012101FA02F21146284AF3
:1027E0000B435360264B5B683A79012101FA02F2F0
:1027F0001146234A0B435360214B5B683A7C01210D
:1028000001FA02F211461E4A0B4353601C4B5B68EF
:102810003A7D012101FA02F2D2431146184A0B40D7
:10282000536061E0BB79052B2CD1154B5B687A793D
:10283000012101FA02F21146114A0B435360104B79
:102840005B683A79012101FA02F211460C4A0B4306
:1028500053600B4B5B683A7C012101FA02F2D243D0
:102860001146074A0B405360054B5B683A7D0121D6
:1028700001FA02F21146024A0B43536034E000BFF2
:1028800000100140BB79062B2ED11A4B5B687A7978
:10289000012101FA02F21146164A0B435360154B0F
:1028A0005B683A79012101FA02F21146114A0B43A1
:1028B0005360104B5B683A7C012101FA02F2114629
:1028C0000C4A0B4353600B4B5B683A7D012101FAC4
:1028D00002F21146074A0B43536005E000BF04E0D3
:1028E00000BF02E000BF00E000BF00BF0837BD46E8
:1028F00090BC70470010014080B584B002AF034621
:10290000FB710B46BB7113467B71FB790F2B00F2F9
:10291000D38001A252F823F0592900086F2900083A
:10292000852900089B290008B1290008C72900084B
:10293000DD290008F3290008092A00081F2A0008D9
:10294000352A00084B2A0008612A0008772A000867
:102950008D2A0008A32A00087979B8790323019306
:102960000223009301230022FFF7FAF9A4E079790A
:10297000B879072301930623009305230422FFF768
:10298000EFF999E07979B8790B2301930A23009341
:1029900009230822FFF7E4F98EE07979B8790F234B
:1029A00001930E2300930D230C22FFF7D9F983E046
:1029B0007979B879132301931223009311231022FC
:1029C000FFF7CEF978E07979B879172301931623C8
:1029D000009315231422FFF7C3F96DE07979B879D4
:1029E0001B2301931A23009319231822FFF7B8F928
:1029F00062E07979B8791F2301931E2300931D2388
:102A00001C22FFF7ADF957E07979B87903230193D8
:102A10000223009301230022FFF788FC4CE0797920
:102A2000B879072301930623009305230422FFF7B7
:102A30007DFC41E07979B8790B2301930A23009357
:102A400009230822FFF772FC36E07979B8790F2361
:102A500001930E2300930D230C22FFF767FC2BE05C
:102A60007979B8791323019312230093112310224B
:102A7000FFF75CFC20E07979B879172301931623DE
:102A8000009315231422FFF751FC15E07979B879EA
:102A90001B2301931A23009319231822FFF746FCE6
:102AA0000AE07979B8791F2301931E2300931D232F
:102AB0001C22FFF73BFC00BF00BF0837BD4680BDAE
:102AC00090B583B000AF0446084611461A46234627
:102AD000FB710346BB710B467B7113463B71FB795F
:102AE000022B14D0022B19DC002B02D0012B07D0B3
:102AF00014E03A797979BB791846FEF79DF90DE033
:102B00003A797979BB791846FFF746F806E03A79C1
:102B10007979BB791846FFF7EFFE00BF00BF0C378D
:102B2000BD4690BD80B483B000AF0346FB710B4639
:102B3000BB7113467B71FB79022B40D0022B60DC0A
:102B4000002B02D0012B1DD05BE07B79012B0AD139
:102B50002E4BDB68BA79012101FA02F211462B4AA9
:102B60000B43D36048E07B79002B45D1274BDB68D2
:102B7000BA79012101FA02F2D2431146234A0B40ED
:102B8000D36039E07B79012B0AD1214BDB68BA791C
:102B9000012101FA02F211461D4A0B43D3602DE0D8
:102BA0007B79002B2AD11A4BDB68BA79012101FA13
:102BB00002F2D2431146164A0B40D3601EE07B79E5
:102BC000012B0AD1134BDB68BA79012101FA02F219
:102BD0001146104A0B43D36012E07B79002B0FD1D2
:102BE0000C4BDB68BA79012101FA02F2D24311469B
:102BF000084A0B40D36003E000BF02E000BF00E0E2
:102C000000BF00BF0C37BD4680BC704700080140C4
:102C1000000C01400010014080B400AF0A4B1B685B
:102C2000094A43F400731360074B5B68064A43F09C
:102C300001035360044B5B68034A23F002035360B3
:102C400000BFBD4680BC70470010024080B483B016
:102C500000AF0346FB71074B9B69FA79012101FA2A
:102C600002F21146034A0B43936100BF0C37BD4685
:102C700080BC70470010024080B400AF374B1B6827
:102C8000364A23F040031360344B1B68334A23F069
:102C900001031360314B1B68304A23F002031360B9
:102CA0002E4B1B682D4A43F0040313602B4B5B68CB
:102CB0002A4A43F004035360284B1B68274A43F019
:102CC00008031360254B1B68244A23F0100313608C
:102CD000224B1B68214A23F0200313601F4B1B6803
:102CE0001E4A23F0800313601C4B1B681B4A23F40D
:102CF00000731360194B1B68184A23F400531360C8
:102D0000164B1B68154A23F400431360134B1B68D2
:102D1000124A23F480631360104B1B680F4A23F49C
:102D2000006313600D4B5B680C4A43F02003536053
:102D30000A4B5B68094A43F040035360074B5B68EA
:102D4000064A43F080035360044B1B68034A43F078
:102D50004003136000BFBD4680BC70470030014097
:102D600080B483B000AF0346FB71084AFB79D3609F
:102D700000BF064B9B68DB0903F00103012BF8D071
:102D800000BF00BF0C37BD4680BC7047003001401B
:102D900080B500AF024B1B68984700BF80BD00BFE5
:102DA0001C00002080B400AF0D4B1B680C4A23F0C0
:102DB000010313600A4B1B68094A23F002031360E6
:102DC000074B1B68064A23F004031360044B0022E0
:102DD0005A60034B00229A6000BFBD4680BC70471A
:102DE00010E000E080B483B000AF7860154B1B6842
:102DF000144A23F001031360124B1B68114A23F09D
:102E0000020313600F4A7B6853600E4B00229A60E6
:102E10000C4B1B680B4A43F00103136000BF094BC6
:102E20001B681B0C03F00103002BF8D0054B1B683B
:102E3000044A23F00103136000BF0C37BD4680BC79
:102E4000704700BF10E000E080B500AF104B1B786A
:102E5000DBB2002B11D10F4B1B680E4A23F001038C
:102E600013600C4B1B680B4A23F0020313600A4BE0
:102E70001B689847064B01221A70074B1B6898473E
:102E8000064B1B680133054A136000BF80BD00BFBD
:102E90002400002010E000E0200000202800002096
:102EA00080B500AFFFF7B8FE0220FFF7CFFE0C2081
:102EB000FFF7CCFE0523012205210020FFF700FECD
:102EC0000523012207210020FFF7FAFD0323012239
:102ED00001210020FFF7F4FD03230122022100203D
:102EE000FFF7EEFDFFF75EFFFFF7C6FEFDF764F9A3
:102EF0000148FDF791F9FEE7B02F00080D4885461F
:102F0000AFF300800C480D490D4A002302E0D4586D
:102F1000C4500433C4188C42F9D30A4A0A4C002323
:102F200001E013600432A242FBD300F011F8FFF776
:102F3000B7FFFEE700500020000000200000002046
:102F4000B8CF0008000000202C000020FEE70000A1
:102F500070B500260C4D0D4C641BA410A64209D17F
:102F600000F01AF800260A4D0A4C641BA410A64271
:102F700005D170BD55F8043B98470136EEE755F88A
:102F8000043B98470136F2E7B0CF0008B0CF000805
:102F9000B0CF0008B4CF0008F8B500BFF8BC08BC3B
:102FA0009E467047F8B500BFF8BC08BC9E46704707
:102FB000BFE7BFEFDFEFDFEFDFEFDFEFDFEFFFEFC9
:102FC000DFEFDFEFDFEFDFEFDFEFDFEFDFEFDFEF91
:102FD000FFEFFFEFFFEFFFEFFFEFFFEFDFEFDFEFC1
:102FE000DFEFDFEFDFEFDFEFDFEFDFEFDFEFDFEF71
:102FF000FFEFDFEFDFEFDFEFDFEFDFEFDFEFDFEF41
:10300000DFEFDFEFBFEFBFEFBFEFBFEFDFEFDFEFD0
:10301000DFEFDFEFDFEFDFEFFFEFFFEFDFEFDFEF00
:10302000DFEFDFEFDFEFDFEFDFEFDFEFDFEFDFEF30
:10303000DFEFDFEFDFEFDFEFDFEFDFEFBFEFBFEF60
:10304000DFEFBFEFBFEFDFEFDFEFDFEFDFEFDFEF50
:10305000BFEFBFEFBFEFBFEFBFEFDFEFDFEFDFEFA0
:10306000BFEFBFEFDFEFDFEFDFEFDFEFDFEFBFEF50
:10307000DFEFBFEFBFEFBFEFBFEFBFEFBFEFBFEFC0
:10308000DFEFDFEFDFEFDFEFDFEFDFEFDFEFDFEFD0
:10309000BFE7BFE7DFEFDFEFDFEFDFEFBFEFBFE758
:1030A000BFEFBFE7BFE7BFE7BFE7DFEFDFEFDFEF70
:1030B000BFEFBFEFDFEFDFEFDFEFDFEFDFEFFFEFC0
:1030C000DFEFDFEFDFEFDFEFDFEFDFEFDFEFDFEF90
:1030D000DFEFFFEFFFEFFFEFFFEFFFEFFFEFDFEFC0
:1030E000DFEFDFEFDFEFDFEFDFEFDFEFDFEFDFEF70
:1030F000DFEFDFEFDFEFDFEFDFEFDFEFDFEFDFEF60
:10310000DFEFDFEFBFEFBFEFBFEFBFEFDFEFDFEFCF
:10311000DFEFDFEFDFEFDFEFDFEFFFEFFFEFFFEFDF
:10312000DFEFDFEFDFEFDFEFDFEFDFEFDFEFDFEF2F
:10313000DFEFDFEFDFEFDFEFDFEFDFEFDFEFBFEF3F
:10314000BFEFBFEFBFE7BFEFDFEFDFEFDFEFBFEFB7
:10315000BFEFBFEFBFEFBFEFBFEFDFEFDFEFDFEF9F
:10316000BFEFBFEFBFEFBFEFDFEFDFEFDFEFDFEF6F
:10317000BFEFBFEFBFEFBFEFBFEFBFEFBFEFBFEFDF
:10318000DFEFDFEFDFEFDFEFDFEFDFEFDFEFDFEFCF
:10319000DFEFDFEFDFEFDFEFBFEFBFEFBFE7BFE74F
:1031A000DFEFBFEFBFE7BFE7BFE7DFEFDFEFDFEF47
:1031B000BFEFBFEFDFEFDFEFDFEFDFEFDFEFDFEFDF
:1031C000DFEFDFEFDFEFDFEFDFEFDFEFDFEFFFEF6F
:1031D000DFEFDFEFDFEFDFEFFFEFFFEFFFEFFFEFFF
:1031E000DFEFDFEFDFEFDFEFDFEFDFEFDFEFDFEF6F
:1031F000DFEFDFEFDFEFDFEFDFEFDFEFDFEFDFEF5F
:10320000DFEFDFEFDFEFBFEFBFE7BFE7BFEFBFEFFE
:10321000BFEFBFEFDFEFDFEFDFEFDFEFDFEFFFEF5E
:10322000DFEFDFEFDFEFDFEFDFEFDFEFDFEFDFEF2E
:10323000DFEFDFEFDFEFDFEFDFEFDFEFDFEFDFEF1E
:10324000DFEFBFEFBFEFBFEFDFEFDFEFDFEFBFEF8E
:10325000BFEFBFEFBFEFBFEFBFEFDFEFDFEFDFEF9E
:10326000DFEFDFEFBFE7BFE7BFEFDFEFDFEFDFEF5E
:10327000BFEFBFEFBFEFBFEFDFEFDFEFDFEFDFEF5E
:10328000DFEFDFEFDFEFDFEFDFEFDFEFDFEFDFEFCE
:10329000DFEFDFEFDFEFBFEFBFEFBFEFBFEFBFEF5E
:1032A000DFEFBFEFBFE7BFE7BFE7BFEFDFEFDFEF66
:1032B000BFEFBFEFBFEFDFEFDFEFDFEFDFEFDFEFFE
:1032C000DFEFDFEFDFEFDFEFDFEFDFEFDFEFFFEF6E
:1032D000DFEFDFEFDFEFDFEFDFEFDFEFFFEFFFEF3E
:1032E000DFEFDFEFDFEFDFEFDFEFDFEFDFEFDFEF6E
:1032F000DFEFDFEFDFEFDFEFDFEFDFEFDFEFDFEF5E
:10330000DFEFDFEFDFEFBFEFBFEFBFE7BFE7BFE705
:10331000BFEFDFEFDFEFBFEFBFE7BFEFDFEFDFEFC5
:10332000DFEFDFEFDFEFDFEFDFEFDFEFDFEFDFEF2D
:10333000DFEFDFEFDFEFDFEFDFEFDFEFDFEFDFEF1D
:10334000DFEFDFEFDFEFDFEFDFEFDFEFDFEFDFEF0D
:10335000DFEFDFEFDFEFDFEFDFEFDFEFDFEFDFEFFD
:10336000DFEFDFEFBFE7BFE7BFEFBFEFDFEFDFEF7D
:10337000BFEFBFEFBFEFDFEFDFEFDFEFDFEFDFEF3D
:10338000DFEFDFEFDFEFDFEFDFEFDFEFDFEFDFEFCD
:10339000DFEFDFEFDFEFBFEFBFEFDFEFDFEFDFEFFD
:1033A000DFEFBFEFBFE7BFE7BFE7DFEFDFEFDFEF45
:1033B000BFEFBFEFBFEFDFEFDFEFDFEFDFEFDFEFFD
:1033C000DFEFDFEFDFEFDFEFDFEFDFEFDFEFFFEF6D
:1033D000DFEFDFEFDFEFDFEFDFEFDFEFDFEFDFEF7D
:1033E000DFEFDFEFDFEFDFEFDFEFDFEFDFEFDFEF6D
:1033F000DFEFDFEFDFEFDFEFDFEFDFEFDFEFDFEF5D
:10340000DFEFDFEFDFEFDFEFBFEFBFEFBFE7BFE7DC
:10341000BFEFDFEFDFEFDFEFBFEFBFEFDFEFDFEF9C
:10342000DFEFFFEFFFEFFFEFFFEFFFEFFFEFFFEF4C
:10343000DFEFDFEFDFEFDFEFDFEFFFEFFFEFFFEFBC
:10344000DFEFDFEFDFEFDFEFDFEFDFEFDFEFDFEF0C
:10345000FFEFDFEFDFEFDFEFDFEFDFEFDFEFDFEFDC
:10346000DFEFDFEFBFEFBFEFBFEFDFEFDFEFBFEF6C
:10347000BFEFBFEFBFEFDFEFDFEFDFEFDFEFDFEF3C
:10348000DFEFDFEFDFEFDFEFDFEFDFEFDFEFDFEFCC
:10349000DFEFDFEFDFEFDFEFDFEFDFEFDFEFDFEFBC
:1034A000BFEFBFE7BFE7BFE7BFEFDFEFDFEFDFEF64
:1034B000BFEFBFEFBFEFDFEFDFEFDFEFDFEFDFEFFC
:1034C000DFEFDFEFDFEFDFEFDFEFDFEFDFEFDFEF8C
:1034D000DFEFDFEFDFEFDFEFDFEFDFEFDFEFDFEF7C
:1034E000DFEFDFEFDFEFDFEFDFEFDFEFDFEFDFEF6C
:1034F000DFEFDFEFDFEFDFEFDFEFDFEFDFEFDFEF5C
:10350000DFEFDFEFDFEFDFEFDFEFDFE7DFE7DFE763
:10351000DFE7DFE7DFEFDFEFDFEFDFEFFFEFFFEF0B
:10352000DFEFDFEFFFEFFFEFFFEFFFEFFFEFFFEF6B
:10353000DFEFDFEFDFEFDFEFDFEFDFEFFFEFFFEFDB
:10354000DFEFDFEFDFEFDFEFDFEFDFEFDFEFDFEF0B
:10355000FFEFFFEFFFEFDFEFDFEFDFEFDFEFDFEF9B
:10356000DFEFDFEFBFEFDFEFDFEFDFEFDFEFBFEF2B
:10357000DFEFDFEFDFEFDFEFDFEFDFEFDFEFDFEFDB
:10358000DFEFDFEFDFEFDFEFDFEFDFEFDFEFDFEFCB
:10359000DFEFDFEFDFEFDFEFDFEFDFEFBFEFBFE703
:1035A000BFEFBFE7BFE7BFE7BFEFDFEFDFEFDFEF63
:1035B000BFEFBFEFDFEFDFEFBFEFDFEFDFEFDFEFFB
:1035C000DFEFDFEFDFEFDFEFDFEFDFEFDFEFDFEF8B
:1035D000DFEFDFEFDFEFDFEFDFEFDFEFDFEFDFEF7B
:1035E000DFEFDFEFDFEFDFEFDFEFDFEFDFEFDFEF6B
:1035F000DFEFDFEFDFEFDFEFDFEFDFEFDFEFDFEF5B
:10360000DFEFDFEFDFEFDFEFDFEFDFEFDFE7DFE75A
:10361000DFE7DFE7DFEFDFEFFFEFFFEFFFEFFFEFCA
:10362000DFEFDFEFDFEFDFEFDFEFDFEFDFEFDFEF2A
:10363000DFEFDFEFDFEFDFEFDFEFDFEFDFEFDFEF1A
:10364000DFEFDFEFDFEFDFEFDFEFDFEFDFEFDFEF0A
:10365000DFEFDFEFDFEFDFEFDFEFDFEFDFEFDFEFFA
:10366000DFEFDFEFDFEFBFEFDFEFDFEFDFEFDFEF0A
:10367000DFEFDFEFDFEFDFEFDFEFDFEFDFEFDFEFDA
:10368000DFEFDFEFDFEFDFEFDFEFDFEFDFEFDFEFCA
:10369000DFEFDFEFDFEFDFEFDFEFBFEFBFEFBFEF1A
:1036A000BFEFBFEFBFE7BFE7BFEFDFEFDFEFDFEF5A
:1036B000BFE7BFEFDFEFDFEFBFEFDFEFDFEFDFEF02
:1036C000DFEFDFEFDFEFDFEFDFEFDFEFDFEFDFEF8A
:1036D000DFEFDFEFDFEFDFEFDFEFDFEFDFEFDFEF7A
:1036E000DFEFDFEFDFEFDFEFDFEFDFEFDFEFDFEF6A
:1036F000DFEFDFEFBFEFBFEFDFEFDFEFDFEFDFEF9A
:10370000DFEFDFEFDFEFDFEFDFEFDFEFDFEFDFEF49
:10371000DFEFDFE7DFE7DFEFDFEFDFEFDFEFDFEF49
:10372000DFEFDFEFDFEFDFEFDFEFDFEFDFEFDFEF29
:10373000DFEFDFEFDFEFDFEFDFEFDFEFDFEFDFEF19
:10374000DFEFDFEFDFEFDFEFDFEFDFEFDFEFDFEF09
:10375000DFEFDFEFDFEFDFEFDFEFDFEFDFEFDFEFF9
:10376000FFEFDFEFDFEFBFE7BFEFDFEFDFEFDFEF11
:10377000DFEFDFEFDFEFDFEFDFEFDFEFDFEFDFEFD9
:10378000DFEFDFEFDFEFDFEFDFEFDFEFDFEFDFEFC9
:10379000DFEFDFEFDFEFBFEFBFEFDFEFDFEFDFEFF9
:1037A000DFEFBFEFBFEFBFEFBFEFDFEFBFEFBFEF69
:1037B000BFEFBFEFBFEFDFEFBFEFDFEFDFEFDFEF19
:1037C000DFEFDFEFDFEFDFEFDFEFDFEFDFEFDFEF89
:1037D000DFEFDFEFDFEFDFEFDFEFDFEFDFEFDFEF79
:1037E000DFEFDFEFDFEFDFEFDFEFDFEFDFEFDFEF69
:1037F000DFEFDFEFDFEFDFEFDFEFDFEFDFEFDFEF59
:10380000BFE7DFEFFFEFDFEFDFEFDFEFDFEFDFEF50
:10381000DFEFDFEFDFEFDFEFDFEFDFEFDFEFDFEF38
:10382000FFF79EE7DFEFDFEF9EE7DFEFFFF79EE7B3
:10383000BFEFDFEFDFEFBFEFBEE79EE7DFEFFFEFAA
:10384000FFF7FFF7FFF7FFF7FFEFDFEFDFEFFFEF28
:10385000BFEFBEEFBFEFBEEFBFEFDFEFDFEFDFEF9A
:10386000DFEFDFEFFFEFDFEFBFE7BFEFDFEFDFEF10
:10387000DFEFDFEFDFEFDFEFDFEFDFEFDFEFDFEFD8
:10388000DFEFDFEFFFEFDFEFDFEFDFEFDFEFDFEFA8
:10389000DFEFDFEFDFEFDFEFDFEFDFEFBFEFBFEFF8
:1038A000DFEFBFEFBFE7BFE7BFE7BFEFDFEFDFEF60
:1038B000BFEFBFEFDFEFDFEFDFEFDFEFDFEFDFEFD8
:1038C000DFEFDFEFDFEFDFEFDFEFDFEFDFEFDFEF88
:1038D000DFEFDFEFDFEFDFEFDFEFDFEFDFEFDFEF78
:1038E000DFEFDFEFDFEFDFEFDFEFDFEFDFEFDFEF68
:1038F000DFEFDFEFDFEFDFEFBFEFBFEFDFEFDFEF98
:10390000FFEFBFE7DFEFFFEFBFE7DFEFFFEFDFEF37
:10391000DFEFDFEFFFEFDFEFDFEFDFEFDFEFDFEF17
:10392000BEE7FFF7FFF7FFF7FFF7DFEF7DE7BEEF3B
:10393000FFF79EEF3DDF1CDF3DDF3DDF1DDFFCD6E7
:1039400039BE39BE59C6BBCEDBD6FCD63DDF9EE7BD
:10395000FFF7FFF7BEEFBFEFFFF79EE7BEE7FFEF12
:10396000DFEFBFE7DFEFFFEFFFF7FFEF5DDFDFEF39
:10397000DFEFDFEFDFEFDFEFDFEFDFEFDFEFDFEFD7
:10398000DFEFDFEFDFEFDFEFDFEFDFEFDFEFDFEFC7
:10399000DFEFDFEFDFEFDFEFDFEFDFEFBFEFBFEFF7
:1039A000DFEFBFEFBFE7BFE7BFE7DFEFDFEFDFEF3F
:1039B000BFEFBFEFDFEFDFEFDFEFDFEFDFEFDFEFD7
:1039C000DFEFDFEFDFEFDFEFDFEFDFEFDFEFDFEF87
:1039D000DFEFDFEFDFEFDFEFDFEFDFEFDFEFDFEF77
:1039E000DFE7DFE7DFE7DFE7DFE7DFE7DFE7DFE7A7
:1039F000DFEFDFEFDFEFDFEFBFEFBFEFDFEFDFEF97
:103A00009EE7BFEFFFEFFFEFBFEFDFEFDFEFDFEF8F
:103A1000BFEFBFE7BFE7BFEFDFEFDFEFBFEF9EEF27
:103A2000BFEFFFF7FCD655A551842C5B283A283A06
:103A3000AB4A6942083AA7298629862945212519D2
:103A4000E310C310E4104521452145216621C7310B
:103A5000518459BE7EE7FFF7BFEF9EE7FFF79EE771
:103A6000DFEFDFEFDFEFDFEF9EE7BFE7FFF7DFEF2F
:103A7000DFEFDFEFDFEFDFEFDFEFDFEFDFEFDFEFD6
:103A8000DFEFDFEFDFEFDFEFDFEFDFEFDFEFDFEFC6
:103A9000DFEFDFEFDFEFDFEFDFEFDFEFDFEFBFEFD6
:103AA000DFEFBFEFBFE7BFE7BFE7DFEFDFEFDFEF3E
:103AB000BFEFDFEFDFEFDFEFDFEFDFEFDFEFDFEFB6
:103AC000DFEFDFEFDFEFDFEFDFEFDFEFDFEFDFEF86
:103AD000DFEFDFEFDFEFDFEFDFEFDFEFDFEFDFEF76
:103AE000DFE7DFE7DFE7DFE7DFE7DFE7DFE7DFE7A6
:103AF000DFEFDFEFDFEFDFEFDFE7DFE7DFE7DFEF6E
:103B0000FFEFDFEFBFE7BFEFFFEFDFF7BFEF9EEFA6
:103B1000FFF7FFF7FFF7FFF7DFF7BFEF9EEF9EE737
:103B20003DDF7284A7298208210000000000000008
:103B30000000000021004100410041008208A31064
:103B4000A310A310A310C31082082100210041007C
:103B50004100A729AA4A928C1CDFFFF7DFF7DFEFAD
:103B60009EEFDFEFDFEF9EE7FFF7DFEFFFEFDFEF27
:103B7000DFEFDFEFDFEFDFEFDFEFDFEFDFEFFFEFB5
:103B8000FFEFDFEFDFEFDFEFDFEFDFEFDFEFDFEFA5
:103B9000DFEFDFEFDFEFDFEFDFEFDFEFDFEFDFEFB5
:103BA000DFEFBFEFBFE7BFE7BFEFDFEFDFEFDFEF35
:103BB000BFEFDFEFDFEFDFEFDFEFDFEFDFEFDFEFB5
:103BC000DFEFDFEFDFEFDFEFDFEFDFEFDFEFDFEF85
:103BD000DFEFDFEFDFEFDFEFDFEFDFEFDFEFDFEF75
:103BE000DFEFDFEFDFEFDFEFDFEFDFEFDFEFDFEF65
:103BF000DFEFDFEFDFEFDFEFDFE7DFE7DFE7DFEF6D
:103C0000DFE7DFEFDFEFBFEFDFEFDFEFDFF7FFF73C
:103C1000DFF7FCD6D7ADD38C307CAE6B2C5BCB52B0
:103C2000E73182080000620861084100620862080A
:103C300082088208A210A310C310C310C310C310BF
:103C4000C310E318E418C310820862084100410061
:103C50006208210021006200083AD394DBD6FFF706
:103C6000DFEFDFEFFFF7BFEFBEE7BFEFBFE7FFEF2D
:103C7000DFEFDFEFDFEFDFEFDFEFDFEFDFEFDFEFD4
:103C8000FFEFDFEFDFEFDFEFDFEFDFEFDFEFDFEFA4
:103C9000DFEFDFEFDFEFDFEFDFEFDFEFDFEFDFEFB4
:103CA000DFEFBFEFBFE7BFE7BFEFDFEFDFEFDFEF34
:103CB000BFEFDFEFDFEFDFEFDFEFDFEFDFEFDFEFB4
:103CC000DFEFDFEFDFEFDFEFDFEFDFEFDFEFDFEF84
:103CD000DFEFDFEFDFEFDFEFDFEFDFEFDFEFDFEF74
:103CE000DFEFDFEFDFEFDFEFDFEFDFEFDFEFDFEF64
:103CF000DFE7DFEFDFE7DFE7DFE7BFE7DFE7BFE7CC
:103D0000FFEFBFE7FFF7FFEF9EE7FFF75DE7349DAB
:103D1000EC52083A0419820862008208410021002E
:103D200021006108610820002000410841080000CE
:103D30004108410862088210A310C310C318C310C1
:103D40008210821082106208410841084108410037
:103D500062086208A310410041006208A72992840A
:103D60005DE7FFF75DDFFFF7FFEFBFE7DFE7DFEFBF
:103D7000DFEFDFEFDFEFDFEFDFEFDFEFDFEFDFEFD3
:103D8000DFEFDFEFDFEFDFEFDFEFDFEFDFEFDFEFC3
:103D9000DFEFDFEFDFEFDFEFDFEFDFEFDFEFDFEFB3
:103DA000DFEFBFEFBFE7BFE7BFEFDFEFDFEFDFEF33
:103DB000BFEFBFEFDFEFDFEFDFEFDFEFDFEFDFEFD3
:103DC000DFEFDFEFDFEFDFEFDFEFDFEFDFEFDFEF83
:103DD000DFEFDFEFDFEFDFEFDFEFDFEFDFEFDFEF73
:103DE000DFEFDFEFDFEFDFEFDFEFDFEFDFEFDFEF63
:103DF000DFE7DFEFDFE7DFE7DFE7BFE7DFE7BFE7CB
:103E00007EDFFFF79FE79EE7FFF79ACECB52410098
:103E1000610082088208820862084100410061084E
:103E2000210021002000210041082000000041085D
:103E3000200041086108821082108210A210A31095
:103E4000A210821062086108410841084108410837
:103E5000620800006208A310C310C3106208A20821
:103E60004942FBD6FFF7DFEFBFEFDFE7DFEFBFE74A
:103E7000DFEFDFEFFFEFFFEFFFEFDFEFDFEFDFEF72
:103E8000DFEFDFEFDFEFDFEFDFEFDFEFFFEFFFEF82
:103E9000DFEFDFEFDFEFDFEFDFEFDFEFDFEFDFEFB2
:103EA000DFEFBFEFBFE7BFE7BFEFDFEFDFEFDFEF32
:103EB000BFEFBFEFDFEFDFEFDFEFDFEFDFEFDFEFD2
:103EC000DFEFDFEFDFEFDFEFDFEFDFEFDFEFFFEF62
:103ED000DFEFDFEFDFEFDFEFDFEFDFEFDFEFDFEF72
:103EE000DFEFDFEFDFEFDFEFDFEFDFEFDFEFDFEF62
:103EF000DFE7FFEFDFE7DFE7DFE7DFE7DFE7DFE76A
:103F0000FFEF9FE7FFF73DDF107404114100A308A6
:103F1000A31082084100410041004100210021001E
:103F200020002000200000000000200021002000D0
:103F300041084108620882108210821082106210CB
:103F400041082108210041084108210821084108B1
:103F5000210041082108410882088310A310C310E2
:103F60004100E731DBCEFFF7BFE7DFE7DFE7FFEF39
:103F7000DFEFDFEFFFEFFFEFFFEFDFEFDFEFDFEF71
:103F8000DFEFDFEFDFEFDFEFDFEFDFEFFFEFFFEF81
:103F9000DFEFDFEFDFEFDFEFDFEFDFEFDFEFDFEFB1
:103FA000DFEFBFEFBFE7BFE7BFEFDFEFDFEFDFEF31
:103FB000DFE7DFE7DFEFDFEFDFE7DFE7DFEFDFEFB1
:103FC000DFEFDFEFDFEFDFEFDFEFDFEFDFEFDFEF81
:103FD000DFE7DFE7DFEFDFEFDFEFDFEFDFEFDFE789
:103FE000DFEFDFEFDFEFDFE7DFE7DFEFDFEFDFEF71
:103FF000DFE7DFE7DFE7FFEFBFE7DFE7FFEFBFE781
:104000009EDFFFEFD7ADC731410082104108410864
:10401000610041004100200020002000200020001D
:1040200020000000000020002100210021004100AC
:1040300041086208A310A310A310A210820861080F
:1040400041002100200041008208C318A31041084C
:10405000410820002000200020084108620882104A
:1040600083102100C73159C6DFF7DFEFDFEFDFEF45
:10407000DFEFBFE7FFEFFFF7BEE7DFEFDEEFFFEFBA
:10408000FFEFFFEFFFEFDFEFDFEFDFEFDFEFDFEF60
:10409000DFEFDFEFDFEFDFEFDFEFDFEFDFEFDFEFB0
:1040A000BFE79EE79EE79EE7BFEFDFEFDFEFDFEFC3
:1040B000DFE7DFE7DFEFDFEFDFEFDFEFDFEFDFEFA0
:1040C000DFEFDFEFDFEFDFEFDFEFDFEFDFEFDFEF80
:1040D000DFE7DFEFDFEFDFEFDFEFDFEFDFEFDFE780
:1040E000DFEFDFEFDFEFDFE7DFE7DFEFDFEFDFEF70
:1040F000FFEFBFE7DFE7BFE7DFE79EDFDFEFBFE709
:10410000FFEF7284A2086208E418610862102008B8
:10411000200020002000200020002000200020009F
:104120002000000000002000210021004100820842
:104130008310A310E418E418C31082086208210059
:1041400041004100410861086108A210A3108210DB
:1041500061084108610861086108410821082108D7
:104160000000A3100000251939BEDFEFDFEFBEE726
:10417000DFEFBFEFBFE7DFEFFFEFFFEFDFEFDEEFD8
:10418000FFEFFFEFFFEFDFEFDFEFDFEFDFEFDFEF5F
:10419000DFEFDFEFDFEFDFEFDFEFDFEFDFEFDFEFAF
:1041A000BFEFBFE79FE7BEE7BFEFDFEFDFEFBFEF98
:1041B000BFE7DFE7DFEFDFEFDFEFDFEFDFEFDFEFBF
:1041C000DFEFDFEFDFEFDFEFDFEFDFEFDFEFDFEF7F
:1041D000DFEFDFEFDFEFDFEFDFEFDFEFDFEFDFEF6F
:1041E000DFEFDFEFDFEFDFE7DFE7DFEFDFEFDFEF6F
:1041F000BEE7FFEFFFEFBFE7BFEFFFEF9EE73DDF5B
:10420000EC52A308E410E418410882104108410868
:10421000200020002000200020002000200020009E
:10422000200021004108610861086208A310E41819
:10423000C418042125210421A3106208410820008C
:104240000000000041088210A310C318A3186108E1
:104250004108200041086108611041082108210837
:104260006208410882084100862159BEFFF7BFEF6E
:10427000DFEFFFF7DFEFDFEFFFEFDFEFFFEFDFEF66
:10428000FFEFFFEFFFEFDFEFDFEFDFEFDFEFDFEF5E
:10429000FFEFDFEFDFEFDFEFDFEFDFEFDFEFDFEF8E
:1042A000BFEFBFEFBFEFBFEFBFEFBFEFDFEFDFEF5E
:1042B000BFE7DFE7DFE7DFEFDFEFDFEFDFEFDFEFC6
:1042C000DFE7DFEFDFEFDFEFDFEFDFEFDFEFDFEF86
:1042D000DFEFDFEFDFEFDFEFDFEFDFEFDFEFDFEF6E
:1042E000DFE7DFE7DFE7DFE7DFE7DFE7DFE7DFE79E
:1042F000BEE7BFE7BFEFFFEF7EDFDFEF9BCE093A00
:104300004200E41862088210C318410861080000E6
:10431000200020002000200020002000200020009D
:10432000210061088210A210A210A310E31824211A
:10433000042104210421C4188210620841082100CC
:10434000210021006108A310E4180421A31821080A
:1043500020000000000041084108210021086108F8
:10436000410841088208A310A208E7311CD7DFF7F3
:10437000BEE7DFEFFFEFBFEFBEEFDFEFFFF7DFEFEF
:10438000FFEFFFEFFFEFFFEFDFEFDFEFDFEFDFEF3D
:10439000FFEFDFEFDFEFDFEFDFEFDFEFDFEFDFEF8D
:1043A000BFEFBFEFBFEFBFEFBFEFBFEFDFEFDFEF5D
:1043B000BFE7DFE7DFE7DFEFDFEFDFEFDFEFDFEFC5
:1043C000DFE7DFE7DFEFDFEFDFEFDFEFDFEFDFEF8D
:1043D000DFEFDFEFDFEFDFEFDFEFDFEFDFEFDFEF6D
:1043E000DFE7DFE7DFE7DFE7DFE7DFE7DFE7DFE79D
:1043F000FFEFFFEFDFEFBFEFBFEF19BEE83962005D
:10440000E418821082104208410841082000200868
:10441000000000002000200000000000200020001C
:1044200061088210A210A2108210A210A310C3185B
:10443000C318C318A3188310620862084208410019
:1044400021004108610882108210A2108210210808
:104450002000000000002000200000002000410893
:104460004108410841006208A310C310083A5DE703
:10447000DFEFBFE7BFEFDFEFBEEFDFEFDFEFFFEF15
:10448000FFEFFFEFFFEFFFEFDFEFDFEFDFEFDFEF3C
:10449000FFEFDFEFDFEFDFEFDFEFDFEFDFEFDFEF8C
:1044A000BFEFBFEFBFEFBFEFBFEFBFEFDFEFDFEF5C
:1044B000BFE7DFE7DFE7DFE7DFE7DFE7DFEFDFEFDC
:1044C000DFE7DFE7DFEFDFEFDFEFDFEFDFEFDFEF8C
:1044D000DFEFDFEFDFEFDFE7DFE7DFE7DFE7DFE794
:1044E000DFE7DFE7DFE7DFE7DFE7DFE7DFE7DFE79C
:1044F000BFEF9EE7BFEFBFEFF8B505196208C3181D
:1045000041088210621041086208821020002000D9
:10451000200020002000200020002000200021009A
:1045200082108210821062086108610862088208A5
:1045300082106210821082106210621062104108B4
:1045400021002000210041088210A310A210410880
:104550002000200020004000410021002000200019
:104560006208410082086108820882086100AE6B1F
:10457000DFEFFFF7BFEFDFEFDFEFDFEFBEEFFFEFC4
:10458000FFEFFFEFFFEFFFEFFFEFDFEFDFEFDFEF1B
:10459000DFEFDFEFDFEFDFEFDFEFDFEFDFEFDFEFAB
:1045A000BFEFBFEFBFEFBFE7BFEFBFEFDFEFDFEF63
:1045B000BFE7DFE7DFE7BFE7BFE7BFE7DFE7DFEF43
:1045C000DFE7DFE7DFE7DFEFDFEFDFEFDFEFDFEF93
:1045D000DFEFDFEFDFE7DFE7DFE7DFE7DFE7DFE79B
:1045E000DFE7DFE7DFE7DFE7DFE7DFE7DFE7DFE79B
:1045F000BFEFFFF7DFEFDCD6E8318208A3106208D7
:10460000831041082108610800000000610841088A
:10461000410841084108210020000000200021003D
:104620004108620882086108410841086108610880
:1046300042086208821082106210821082086108AB
:104640006108210021006108A310E418E31882101A
:1046500020002000200041088208A21061082100EB
:10466000200041080000000082088208C310620890
:10467000359DFFF7BFEFDFEFBFEFDFEFDFEFFFEFBE
:10468000FFEFFFEFFFEFFFEFFFEFDFEFDFEFDFEF1A
:10469000DFEFDFEFDFEFDFEFDFEFDFEFDFEFDFEFAA
:1046A000BFEFBFEFBFEFBFEFBFEFDFEFDFEFDFEF3A
:1046B000DFE7DFE7BFE7BFE7BFE7BFE7DFE7DFE74A
:1046C000DFE7DFE7DFE7DFEFDFEFDFEFDFEFDFEF92
:1046D000DFEFDFE7DFE7DFE7DFE7DFE7DFE7DFE7A2
:1046E000DFE7DFE7DFE7DFE7DFE7DFE7DFE7DFE79A
:1046F000BFEFBFE7DFEF4D636208831083108310C5
:10470000410841080000000041084100000041004C
:10471000610861084108210000000000000000005D
:1047200000002100610861086108610882088208B0
:1047300061086208821082106208620882086108BB
:10474000610841002000200020006108A210A21092
:104750002000200020004100A210E318A210410810
:1047600021004108210021004108000041004100D2
:1047700025211CDFBFEFDFEFBFEFDFEFFFF7DFEF3C
:10478000FFEFFFEFFFEFFFEFFFEFFFEFFFEFDFEFD9
:10479000DFEFDFEFDFEFDFEFDFEFDFEFDFEFDFEFA9
:1047A000DFEFBFEFBFEFBFEFBFEFDFEFFFEFFFEFD9
:1047B000DFE7DFE7BFE7BFE7BFE7DFE7DFE7DFE729
:1047C000BFE7DFE7DFE7DFE7DFE7DFE7DFE7DFEFD1
:1047D000DFEFDFE7DFE7BFE7BFE7DFE7DFE7DFEFD9
:1047E000FFEFBFE7DFE7FFEFDFE7DFE7DFEFBFE781
:1047F000BFE7FFF7F8B5A308A310620862084108F5
:1048000000004108410820002000410041006100F3
:10481000610862084108210021000000000000003A
:104820000000200041006108610841006108820821
:1048300062086208610861086108620882088208EB
:104840006108610861084100200041008208C3102E
:10485000A21020004100820861088210A3104108C4
:10486000410820002000200000000000000021007E
:1048700000004D63BFEFDFEFDFF7DFEFFFF7BFEFC4
:10488000DFEFDFEFFFEFFFEFFFEFFFEFDFEFDFEF38
:10489000DFEFDFEFDFEFDFEFDFEFDFEFDFEFDFEFA8
:1048A000BFEFBFEFBFEFDFEFDFEFDFEFDFEFDFEFF8
:1048B000DFE7DFE7DFE7DFE7DFE7DFE7DFE7DFE7C8
:1048C000DFE7DFE7DFEFDFEFDFEFDFEFDFEFDFEF88
:1048D000DFE7DFE7DFE7DFE7DFE7DFE7DFE7DFE7A8
:1048E000DFE7BFE7DFEFDFEFBFE7BFE7DFEFDFE7E0
:1048F000DFEFFFF78A422100E41062084108410817
:104900004108410820004100610841004000410089
:104910008210A210821062086208410800000000A4
:104920000000000041006208620861086108820816
:10493000820882086208620862086108410041003A
:10494000410041004100410041004100610061001F
:104950006108610841004000200041004108410811
:1049600021002000000000000000000020000000E6
:104970004100A310F8BDDFF7FFF7BFEFDFEFDFEF78
:10498000DFEFDFEFDFEFFFEFFFEFFFEFDFEFDFEF57
:10499000DFEFDFEFDFEFDFEFDFEFDFEFDFEFDFEFA7
:1049A000DFEFBFEFBFEFDFEFDFEFDFEFDFEFDFEFD7
:1049B000DFE7DFE7DFE7DFE7DFE7DFE7DFEFDFEFB7
:1049C000DFE7DFEFDFEFDFEFDFEFDFEFDFEFFFEF5F
:1049D000DFEFDFEFDFEFDFEFDFEFDFEFDFEFDFEF67
:1049E000DFE7DFEFFFEFDFEFDFE7DFEFDFEFDFE74F
:1049F000BFEFF8B5A20882088208620820004108CB
:104A00006108410020002000610841084100810840
:104A1000A210C318C318A310A310821041080000ED
:104A20004100410041084100610861088208A2106C
:104A300082108208810881088208620841082100EA
:104A4000210021002100410061006100610041005E
:104A50008108A21061080000200000000000200072
:104A60002000200000000000000000000000000006
:104A7000410000006A421CDFBFEFBFEFBFEFFFEF56
:104A8000DFEFDFEFDFEFFFEFFFEFFFEFDFEFDFEF56
:104A9000FFEFDFEFDFEFDFEFDFEFDFEFDFEFDFEF86
:104AA000DFEFBFEFBFEFBFEFBFEFDFEFDFEFDFEF16
:104AB000DFE7DFE7DFE7DFE7DFEFDFEFDFEFDFEFA6
:104AC000DFE7DFEFDFEFDFEFDFEFDFEFDFEFFFEF5E
:104AD000DFEFDFEFDFEFDFEFDFEFDFEFDFEFDFEF66
:104AE000DFEFDFEFDFE7DFEFFFEFFFEFDFE7DFE72E
:104AF000FFFF8E6B8208A30841008208410041003D
:104B0000410841084108200041084108610882101D
:104B1000C31804212529252125290421C318821021
:104B2000410841084108610861086108610861089D
:104B3000A210A210821082108210821082106208CD
:104B400062088208820862086108610861088208B8
:104B50008208C21061080000400020000000200010
:104B60000000000000000000000000000000000045
:104B70002100410062088E6B7EEF7EE7DFEFDFEF02
:104B8000DFEFDFEFDFEFFFEFFFEFFFEFFFEFFFEF15
:104B9000FFEFFFEFDFEFDFEFDFEFDFEFDFEFDFEF65
:104BA000DFEFBFEFBFEFBFEFBFEFDFEFDFEFDFEF15
:104BB000BFE7BFE7DFE7DFE7DFEFDFEFDFEFDFEFE5
:104BC000DFE7DFE7DFEFDFEFDFEFDFEFDFEFDFEF85
:104BD000DFE7DFE7DFEFDFEFDFEFDFEFDFE7DFE785
:104BE000DFE7DFE7DFE7DFEFFFEFDFE7DFE7FFEF3D
:104BF0009ACE083A820862088208200061084100C3
:104C00002000610861084108410861108218C3183A
:104C100004298639C741C741C739A739453104211D
:104C2000C320A3188210410841086110821082102D
:104C300082108210A210A218A21882108210621094
:104C4000C318A318A21082106208620882088208A2
:104C500061086108610861084100400040004100AE
:104C60002000000000000000000000000000200004
:104C7000210041088208620876A59EE79EE7BFE70B
:104C8000DFEFDFEFDFEFFFEFFFEFFFEFFFEFDFEF34
:104C9000FFEFFFEFDFEFDFEFDFEFDFEFDFEFDFEF64
:104CA000BFEFBFEFBFEFBFEFBFEFDFEFDFEFFFEF14
:104CB000BFE7BFE7DFE7DFE7DFEFDFEFDFEFDFEFE4
:104CC000DFE7DFE7DFEFDFEFDFEFDFEFDFEFDFEF84
:104CD000DFEFDFEFDFEFFFEFFFEFDFEFDFEFDFEF24
:104CE000DFE7DFEFFFEFFFEFDFE7BFE7DFEFFFEF2C
:104CF0001184E418C31062086208200041004000DB
:104D0000200061084108200882102429A741E849B1
:104D10000952AB620D6BEC6AEC62AB624952084A15
:104D2000E841A7394531E420C320C320C318C31884
:104D3000A218C318E4200429242904290429E42002
:104D4000C320A318821082108210821062084108CA
:104D500041084108A210A210610820006108610802
:104D6000A210410800000000000000000000000048
:104D7000000021006208210049425DDF5DE7BFE7D6
:104D8000DFEFDFEFDFEFFFEFFFEFFFEFFFEFDFEF33
:104D9000DFEFDFEFDFEFDFEFDFEFDFEFDFEFDFEFA3
:104DA000DFEFBFEFBFEFBFEFBFEFDFEFDFEFDFEF13
:104DB000BFE7BFE7BFE7DFE7DFE7DFE7DFE7DFE723
:104DC000DFE7DFE7DFEFDFEFDFEFDFEFDFEFDFEF83
:104DD000DFEFDFEFDFEFDFEFDFEFDFEFDFEFDFEF63
:104DE000DFEFFFEFFFEFFFEFBFE7DFEFDFEF7EDF8C
:104DF0008F73A318C31841002100620861082000C6
:104E000061084108200882108639CB626E7BCF830F
:104E1000F08B739CB3A493A493A4929C3194F08BD5
:104E20004D734D732D730C6BCB626952C741663164
:104E30002531253145316639A741A741A739863942
:104E400087396631253125290429E420A310620819
:104E5000410841086108C210821041084108410818
:104E6000C210A21061082000000000000000000035
:104E70000000000041006208A310B7ADBFEF9FE73C
:104E8000DFEFDFEFDFEFFFEFFFEFFFEFFFEFDFEF32
:104E9000DFEFDFEFDFEFDFEFDFEFDFEFDFEFDFEFA2
:104EA000DFEFDFEFDFEFDFEFDFEFDFEFDFEFDFEF92
:104EB000BFE7BFE7BFE7DFE7DFE7DFE7BFE7BFE762
:104EC000DFE7DFE7DFEFDFEFDFEFDFEFDFEFDFEF82
:104ED000DFE7DFE7DFE7DFE7DFE7DFE7DFE7DFE7A2
:104EE000FFEFDFEFDFEFDFE7DFE7FFEFBFE7BBC697
:104EF0002942A418831021084108000061086108B4
:104F000081106108611065310C6B519CD3ACF4AC1D
:104F100035B597C5B7C597C5B7C5D8CDB7C576BDA3
:104F200056BD55B514ADF4A4B3A47294F08B8E7B2A
:104F30002C6B0C6BEC62EC6A2D734D732D730C6B48
:104F4000CC62AB626A5A294AC73945310421C31879
:104F50002000000000006108C210810840004100EC
:104F600040008210A210200000000000000000009D
:104F70000000000001002100420072845DE7BFEFE5
:104F8000DFEFDFEFDFEFFFEFFFEFFFEFFFEFDFEF31
:104F9000DFEFDFEFDFEFDFEFDFEFDFEFDFEFDFEFA1
:104FA000DFEFDFEFDFEFDFEFDFEFDFEFDFEFDFEF91
:104FB000BFE7BFE7DFE7DFE7DFE7DFE7BFE7BFE741
:104FC000DFE7DFE7DFE7DFE7DFE7DFE7DFE7BFE7D1
:104FD000BFE7BFE7BFE7BFE7BFE7DFE7DFE7DFE741
:104FE000DFE7FFEFDFEFDFEFDFEFBFEFBFEF149D96
:104FF0002D634100820841000000210062088210F8
:10500000410862180429EC6A92A4D3ACF4B435C503
:1050100076C597CDD7CDF8D5F8D5F8CD18CE18CE22
:10502000F8CDF8CDF8CDD7CDD7CDB7CD96C576C5CF
:1050300055BD35BD35BD14B514B514B514B514B58D
:10504000F4B492A4519C10946E83AB6AE851453934
:10505000821800080000000000002000400020002E
:10506000000000004108620841000000000000004C
:10507000000000000000210082088B4AFCD6DFF708
:10508000BFEFBFEFDFEFFFEFFFEFFFEFDFEFDFEF90
:10509000DFEFDFEFDFEFDFEFFFEFDFEFFFEFFFEF40
:1050A000DFEFDFEFDFEFDFEFBFEFDFEFDFEFBFEFD0
:1050B000BFE7DFE7DFE7DFE7DFE7DFE7DFE7DFE7E0
:1050C000DFE7DFE7DFE7DFE7DFE7DFE7DFE7DFE7B0
:1050D000BFE7BFE7BFE7BFE7BFE7DFE7DFE7DFE740
:1050E000BFE7FFEFDFEFDFEFDFEFDFEF1CDFAB4A04
:1050F0002942000041004100200061088210821016
:105100008210E42849521094F4B414B555BD76C504
:1051100096C597CDD7CDF8D518D618D618D639D686
:1051200018CE18CE18CE18D618D618D6F8D5F8CD71
:10513000D8D5D7CDD7CDB7CDB7CDB7CDB7CDD7CDC6
:10514000D7CDB7CD96C576C514B572A48E83AB6A9C
:105150006531411000002000200000000000000028
:10516000410000000000200020002000400040001E
:105170000000200021002100A3106A4A3DDFBFEF9C
:10518000BFEFBFEFDFEFFFEFFFEFFFEFDFEFDFEF8F
:10519000DFEFDFEFDFEFDFEFFFEFDFEFFFEFFFEF3F
:1051A000DFEFFFEFDFEFDFEFDFEFDFEFDFEFDFEF6F
:1051B000DFE7DFE7DFE7DFEFDFEFDFEFDFE7DFE7A7
:1051C000DFEFDFE7DFE7BFE7BFE7DFE7DFE7DFE7E7
:1051D000BFE7BFE7BFE7BFE7BFE7BFE7DFE7DFE75F
:1051E000FFEFFFEFBFEFBFEF9EE7FFF7F494A308D9
:1051F000E4180000410041000000410882106210E4
:10520000042186396E7BF3AC14B535BD76C576C501
:1052100097CDB7CDD7CDF8D518D639D639D639D61A
:1052200059D659D639D639D639D639DE39D618D6DF
:10523000F8D5F8D5F8D5F8D5F8D5F8D5F8D5F8D506
:10524000D8D5F8D5F8D5D7CDB7CD96C5F4B4119C3F
:105250004D73E749621800000000000020000000C4
:10526000000000000000000020004000200020009E
:105270006108810862084108A310A731BBCEBFEFC7
:10528000BFEFDFEFDFEFFFEFFFEFFFEFFFEFFFEF2E
:10529000DFEFDFEFDFEFDFEFFFEFDFEFDFEFDFEF7E
:1052A000DFEFFFEFDFEFDFEFDFEFDFEFDFEFDFEF6E
:1052B000DFE7DFE7DFE7DFEFDFEFDFEFDFE7DFE7A6
:1052C000DFE7DFE7DFE7DFE7DFE7DFE7DFE7DFE7AE
:1052D000BFE7BFE7BFE7BFE7BFE7DFE7DFE7DFE73E
:1052E000DFEFDFEFDFEFDFEFBFEFFFF7359DC30845
:1052F0004100410041004108000020004108A2187F
:1053000086394952309414B514B555BD75C575C567
:10531000B7CDB7CDD7CD18D639DE59DE59DE59DE37
:105320007ADE79DE79DE59DE59DE39DE39DE19DEE4
:1053300038DE18D618D618D618D618D618D6F8D5F6
:1053400018D618D618D6F8D518D638DEF8D576C5BA
:1053500092A4CF8B8A5A04290000000000000000AC
:10536000000020000000000020002000200041007C
:10537000610861086108620862088208149DDFF70D
:10538000BFEFBFEFDFEFFFEFFFEFFFEFFFEFFFEF4D
:10539000DFEFDFEFDFEFFFEFFFEFDFEFDFEFDFEF5D
:1053A000DFEFDFEFDFEFDFEFBFEFDFEFDFEFDFEFAD
:1053B000DFE7DFE7DFE7DFE7DFE7DFE7DFE7DFE7BD
:1053C000DFE7DFE7DFE7DFE7DFE7DFE7DFE7DFE7AD
:1053D000BFE7BFE7BFE7BFE7BFE7DFE7DFE7DFE73D
:1053E000BFE7DFEFFFEFDFEFDFEFBFE71DDF662196
:1053F0004100610821004108000000004108E3204D
:10540000284A2C73B2A414B555BD76C575C596CD82
:10541000B7CDB7CDD7CD18D639DE59DE79DE79DEF6
:1054200079DE79DE79DE79DE79DE59DE59DE59DE24
:1054300059DE59DE59DE39DE39DE38DE38DE18D67F
:1054400018D618D618D638DE18D618D618D6D7CD0E
:1054500076C514B5929CAF834952E32041082008D9
:10546000000000000000000041084108200040004A
:105470002000400021004108620841004E63FFF710
:10548000BFEFBFEFBFEFDFEFFFEFFFEFDFEFFFEFAC
:10549000DFEFDFEFFFEFFFEFFFEFDFEFDFEFDFEF3C
:1054A000DFEFDFEFDFEFDFEFDFEFDFEFDFEFDFEF8C
:1054B000DFE7DFE7DFE7DFE7DFE7DFE7DFE7DFE7BC
:1054C000DFE7DFE7DFE7DFEFDFEFDFE7DFE7BFE7BC
:1054D000BFE7BFE7BFE7BFE7BFE7DFE7DFE7DFE73C
:1054E000FFEFDFEFDFEFBFEFDFEF9EE79BCEE831AF
:1054F0006108410800004108200020082008E3203E
:105500006A5AEF8BF4AC34BD75C576C555C5B6CDBA
:10551000B7CDD7CDD7CDF8D538D659DE59DE59DE3F
:1055200079DE79DE79DE79DE59DE59DE59DE59DE43
:1055300039DE39DE39DE39DE38DE38DE38DE38DEB7
:1055400059DE38DE39DE59DE39DE18D618D618D6DF
:10555000F8D576C555BDB6C555B5929CEF83AE7BE3
:105560008E7BCB626531611020082000200041084D
:10557000200041082100210061086208E8395EE747
:10558000BFEFBFEFBFEFDFEFDFEFDFEFDFEFFFEFEB
:10559000DFEFFFEFFFEFFFEFFFEFDFEFDFEFDFEF1B
:1055A000DFEFDFEFDFEFDFEFDFEFDFEFDFF7DFEF83
:1055B000DFE7DFE7DFE7DFE7DFE7DFE7DFE7DFE7BB
:1055C000DFE7DFE7DFE7DFE7DFE7DFE7DFE7DFE7AB
:1055D000BFE7BFE7BFE7BFE7BFE7BFE7DFE7DFE75B
:1055E000FFEFBFE7BFE7DFEFDFEFFFF71495AB4A51
:1055F00062084108410820002000000821102531E0
:105600002C73729C34B555BD75C576C575C596CDE0
:10561000B7CDD7CDD7CDF8D518D638D639D659DEAF
:1056200059DE59DE59DE59DE38DE38D638DE38DE4E
:1056300038DE38DE38DE38DE38DE38DE38DE38DEBA
:1056400038DE18D618D638DE18D6F8D518D618D6BB
:10565000F8DDD7CDB7CDB7CDB6C596BD96BD75BD76
:1056600075BDB29C0C6B8639E32061080000000018
:1056700000002000200020002100210005199BCE01
:10568000BFEFBFEFBFEFDFEFDFEFFFEFFFEFFFEFAA
:10569000DFEFFFEFFFEFFFEFFFEFFFEFDFEFDFEFFA
:1056A000DFEFDFEFDFEFDFEFDFEFDFEFDFF7DFEF82
:1056B000BFE7BFE7BFE7BFE7BFE7BFE7DFE7DFE77A
:1056C000DFEFDFE7DFE7BFE7BFE7BFE7DFE7DFE702
:1056D000BFE7BFE7BFE7BFE7BFE7BFE7BFE7DFE77A
:1056E000DFE7BFE7DFEFDFEF7EE7DFEF7284093A46
:1056F0006108610882104108200820088218E749E3
:105700001094F4AC55BD55BD75C596C5B6CD96CDB6
:10571000B7CDD7CDD7CDF7D518D618D638D638D6F9
:1057200038D638D638D638DE38D638D638DE38DEF1
:1057300038DE38DE38DE18D618D618D618D618D681
:1057400038DE18D638DE39DE38DE18D618D6F7D56A
:10575000F8DDD7D5D7D5F7D5D7CDF7CDD7CD96C5E9
:1057600055B514ADCF838A5AA739C318200020003D
:105770000000000020004108410841004521FCD6FE
:10578000BFEFBFEFBFEFDFEFFFEFFFEFFFEFFFEF89
:10579000DFEFDFEFFFEFFFEFFFEFFFEFFFEFFFEFD9
:1057A000DFEFDFEFDFEFDFEFDFEFDFEFDFEFDFEF89
:1057B000BFE7BFE7BFE7BFE7BFE7BFE7DFE7DFE779
:1057C000DFE7DFE7DFE7DFE7DFE7DFE7DFE7DFE7A9
:1057D000DFEFDFE7DFE7BFE7BFE7BFE7BFE7BFE731
:1057E000BFE7FFEFDFEFDFEF9FE7BFEFF173E510FC
:1057F00082086108A210621000002429EB6A31942B
:1058000014B534B555BD75C576C596C596CDB6CD1E
:10581000B6CDB7CDD7CDF8D518D618D638D638D618
:1058200038D638D638D638D638D618D618D618D668
:1058300018D618D618D618D618D618D618D618D6F8
:1058400018D618D618D618D618D618D618D618D6E8
:10585000F8DDF8D5F7D5F7D5F7D5F7CDD7CDD7CD36
:10586000B6C514B551944D73084A45294108000046
:1058700020000000000020002100210029429EEFAE
:10588000BFEFBFEFBFEFFFEFBFEFFFEFFFEFDFEFC8
:10589000FFEFFFEFFFEFFFEFFFEFDFEFDFEFDFEFF8
:1058A000DFEFDFEFDFEFDFEFDFEFDFEFDFEFDFEF88
:1058B000BFE7BFE7BFE7BFE7BFE7BFE7BFE7BFE7B8
:1058C000DFE7DFE7DFE7DFE7DFE7DFE7DFE7DFE7A8
:1058D000DFE7DFE7DFE7BFE7BFE7BFE7BFE7BFE738
:1058E000DFEFBFE7BFE7DFEF9FE7DFEFD48CE41028
:1058F00082106208A210A210E320CB62519435B549
:1059000014B535BD55BD75C576C596C5B6CDB6CDF4
:10591000D7CDD7CDF7CDF7D5F8D5F8D518D618D639
:1059200018D618D618D618D618D617D617D6F7D52B
:1059300018D618D618D618D618D618D618D618D6F7
:1059400018D618D618D618D618D618D618D618D6E7
:10595000F8D5F7D5F7D5F7D5F7D5D7CDD7CDD6CD5F
:10596000D6CD34BD719C8E7B284A45294108000064
:1059700020000000000021002100010045217ACE16
:10598000FFF79EEFDFF7DFEFBFEFFFEFFFEFDFEF98
:10599000FFEFFFEFFFEFFFEFFFEFDFEFDFEFDFEFF7
:1059A000DFEFDFEFDFEFDFEFDFEFDFEFDFEFDFEF87
:1059B000BFE7BFE7BFE7BFE7BFE7BFE7BFE7BFE7B7
:1059C000BFE7BFE7BFE7BFE7BFE7BFE7DFE7DFE767
:1059D000DFE7DFE7BFE7BFE7BFE7BFE7BFE7BFE757
:1059E000DFEF9FE7DFEFDFEF9FE7DFEFD8B5E410F2
:1059F000A310A210A310821045318E7BB3A414B55E
:105A000035BD35BD55BD75C576C596C5B6CDD7CDA9
:105A1000D7CDD7CDF7CDF7D5F7D5F7D5F7D5F7D57E
:105A200018D618D618D6F7D5F7D5F7D5F7D5F7D5B0
:105A3000F7D5F8D518D618D6F8D5F7D5F7D5F8D5BF
:105A4000F8D5F8D518D618D618D618D618D6F8D549
:105A5000F7D5D7D5D7D5F7D5F7D5F7CDD6CDD6CD80
:105A6000B6CD55BDB2A4AE83495224292000000012
:105A7000000000000000200021004100410051848E
:105A8000FFFF9FEFFFF7BFEFDFEFFFEFFFEFFFEF4E
:105A9000FFEFFFEFFFEFFFEFFFEFDFEFDFEFDFEFF6
:105AA000DFEFDFEFDFEFDFEFDFEFDFEFDFEFDFEF86
:105AB000BFE7BFE7BFE7BFE7BFE7BFE7BFE7BFE7B6
:105AC000BFE7BFE7BFE7BFE7BFE7BFE7DFE7DFE766
:105AD000DFE7DFE7BFE7BFE7BFE7BFE7BFE7BFE756
