:020000040800F2
:1000000000500020252F0008752F0008752F0008CC
:10001000752F0008752F0008752F000800000000DC
:10002000000000000000000000000000752F000824
:10003000752F000800000000752F0008192C00081B
:10004000752F0008752F0008752F0008752F000800
:10005000752F0008752F0008752F0008752F0008F0
:10006000752F0008752F0008752F0008752F0008E0
:10007000752F0008752F0008752F0008752F0008D0
:10008000752F0008752F0008752F0008752F0008C0
:10009000752F0008752F0008752F0008752F0008B0
:1000A000752F0008752F0008752F0008752F0008A0
:1000B000752F0008752F0008752F0008752F000890
:1000C000752F0008752F0008752F0008752F000880
:1000D000752F00082D2E0008492E0008652E0008F7
:1000E000752F0008752F000800000000752F00080C
:1000F000752F0008752F0008752F0008752F000850
:10010000752F0008752F0008752F0008752F00083F
:10011000752F0008752F0008752F0008752F00082F
:10012000752F0008752F0008752F0008752F00081F
:1001300010B5054C237833B9044B13B10448AFF321
:1001400000800123237010BD00000020000000008B
:10015000C02F000808B5034B1BB103490348AFF398
:10016000008008BD0000000004000020C02F00082F
:1001700010F8012B11F8013B012A28BF9A42F7D051
:10018000D01A704790B482B000AF044608461146BA
:100190001A462346FB710346BB710B467B7113461F
:1001A0003B71FB79032B00F2CC8201A252F823F0C1
:1001B000C1010008DF02000855040008C705000857
:1001C000BB79002B2CD1A24B1B687A79012101FA53
:1001D00002F2D24311469E4A0B4013609C4B1B68AF
:1001E0003A79012101FA02F2D2431146984A0B40B2
:1001F0001360974B1B683A7C012101FA02F2D2434B
:100200001146934A0B401360914B1B683A7D0121C4
:1002100001FA02F2D24311468D4A0B40136089E283
:10022000BB79012B2BD18A4B1B687A79012101FA0A
:1002300002F2D2431146864A0B401360844B1B687E
:100240003A79012101FA02F2D2431146804A0B4069
:1002500013607F4B1B683A7C012101FA02F21146C0
:100260007B4A0B4313607A4B1B683A7D012101FAEC
:1002700002F2D2431146764A0B4013605AE2BB7930
:10028000022B40F05782724B1B687A79012101FAE8
:1002900002F2D24311466E4A0B4013606C4B1B684E
:1002A0003A79012101FA02F2D2431146684A0B4021
:1002B0001360674B1B683A7C012101FA02F2D243BA
:1002C0001146634A0B401360614B1B683A7D012164
:1002D00001FA02F211465E4A0B4313602AE2BB792F
:1002E000032B2BD15A4B1B687A79012101FA02F2B8
:1002F0001146574A0B431360554B1B683A7901214D
:1003000001FA02F2D2431146514A0B401360504B9E
:100310001B683A7C012101FA02F2D24311464C4A91
:100320000B4013604A4B1B683A7D012101FA02F22F
:10033000D2431146464A0B401360FDE1BB79042BC2
:100340002AD1434B1B687A79012101FA02F2114646
:100350003F4A0B4313603E4B1B683A79012101FA77
:1003600002F2D24311463A4A0B401360384B1B68E5
:100370003A7C012101FA02F21146354A0B4313601F
:10038000334B1B683A7D012101FA02F2D243114638
:100390002F4A0B401360CFE1BB79052B2AD12C4BA0
:1003A0001B687A79012101FA02F21146284A0B43AF
:1003B0001360274B1B683A79012101FA02F2D243FC
:1003C0001146234A0B401360214B1B683A7C0121E4
:1003D00001FA02F2D24311461D4A0B4013601C4B36
:1003E0001B683A7D012101FA02F21146184A0B43BB
:1003F0001360A1E1BB79062B40F09E81144B1B6872
:100400007A79012101FA02F21146114A0B43136075
:100410000F4B1B683A79012101FA02F2D2431146CF
:100420000B4A0B4013600A4B1B683A7C012101FA0E
:1004300002F21146064A0B431360054B1B683A7DD6
:10044000012101FA02F21146014A0B43136073E1E4
:1004500000080140BB79032B2BD19F4B1B687A7995
:10046000012101FA02F2D24311469B4A0B4013606C
:10047000994B1B683A79012101FA02F21146964A1A
:100480000B431360944B1B683A7C012101FA02F282
:10049000D2431146904A0B4013608F4B1B683A7D44
:1004A000012101FA02F2D24311468B4A0B4013603C
:1004B00044E1BB79042B2AD1874B1B687A7901214F
:1004C00001FA02F2D2431146834A0B401360824B79
:1004D0001B683A79012101FA02F211467E4A0B4368
:1004E00013607D4B1B683A7C012101FA02F2114630
:1004F000794A0B431360784B1B683A7D012101FA5E
:1005000002F2D2431146744A0B40136016E1BB79E4
:10051000052B2AD1704B1B687A79012101FA02F26E
:10052000D24311466C4A0B4013606B4B1B683A79FF
:10053000012101FA02F21146674A0B431360664B30
:100540001B683A7C012101FA02F2D2431146624A49
:100550000B401360604B1B683A7D012101FA02F2E7
:1005600011465D4A0B431360E8E0BB79062B40F06F
:10057000E580594B1B687A79012101FA02F2D243D6
:100580001146554A0B401360534B1B683A790121C1
:1005900001FA02F21146504A0B4313604E4B1B689E
:1005A0003A7C012101FA02F211464B4A0B431360D7
:1005B000494B1B683A7D012101FA02F21146464A75
:1005C0000B431360BAE0BB79032B2AD1424B1B6863
:1005D0007A79012101FA02F211463F4A0B43136076
:1005E0003D4B1B683A79012101FA02F211463A4A61
:1005F0000B431360384B1B683A7C012101FA02F26D
:10060000D2431146344A0B401360334B1B683A7D8A
:10061000012101FA02F2D24311462F4A0B40136026
:100620008EE0BB79042B29D12B4B1B687A790121F1
:1006300001FA02F21146284A0B431360264B1B684D
:100640003A79012101FA02F21146234A0B43136061
:10065000214B1B683A7C012101FA02F211461E4A25
:100660000B4313601C4B1B683A7D012101FA02F217
:10067000D2431146184A0B40136061E0BB79052B49
:100680002CD1154B1B687A79012101FA02F211462F
:10069000114A0B431360104B1B683A79012101FA90
:1006A00002F211460C4A0B4313600B4B1B683A7C59
:1006B000012101FA02F2D2431146074A0B401360AE
:1006C000054B1B683A7D012101FA02F21146024AEC
:1006D0000B43136034E000BF00080140BB79062BD8
:1006E0002ED11A4B1B687A79012101FA02F21146C8
:1006F000164A0B431360154B1B683A79012101FA26
:1007000002F21146114A0B431360104B1B683A7CEE
:10071000012101FA02F211460C4A0B4313600B4B04
:100720001B683A7D012101FA02F21146074A0B4388
:10073000136005E000BF04E000BF02E000BF00E07E
:1007400000BF00BF0837BD4690BC7047000801409D
:1007500090B482B000AF0446084611461A462346BC
:10076000FB710346BB710B467B7113463B71FB79F2
:10077000032B00F2CC8201A252F823F08D0700086F
:10078000AB080008210A0008930B0008BB79002B76
:100790002CD1A24B5B687A79012101FA02F2D24393
:1007A00011469E4A0B4053609C4B5B683A7901218D
:1007B00001FA02F2D2431146984A0B405360974B1C
:1007C0005B683A7C012101FA02F2D2431146934A56
:1007D0000B405360914B5B683A7D012101FA02F2B4
:1007E000D24311468D4A0B40536089E2BB79012BFD
:1007F0002BD18A4B5B687A79012101FA02F2D2434C
:100800001146864A0B405360844B5B683A7901215C
:1008100001FA02F2D2431146804A0B4053607F4BEB
:100820005B683A7C012101FA02F211467B4A0B43D4
:1008300053607A4B5B683A7D012101FA02F2D243A0
:100840001146764A0B4053605AE2BB79022B40F0C6
:100850005782724B5B687A79012101FA02F2D24326
:1008600011466E4A0B4053606C4B5B683A7901212C
:1008700001FA02F2D2431146684A0B405360674BBB
:100880005B683A7C012101FA02F2D2431146634AC5
:100890000B405360614B5B683A7D012101FA02F223
:1008A00011465E4A0B4353602AE2BB79032B2BD1DE
:1008B0005A4B5B687A79012101FA02F21146574AD4
:1008C0000B435360554B5B683A79012101FA02F200
:1008D000D2431146514A0B405360504B5B683A7CFF
:1008E000012101FA02F2D24311464C4A0B405360F7
:1008F0004A4B5B683A7D012101FA02F2D24311466C
:10090000464A0B405360FDE1BB79042B2AD1434B8F
:100910005B687A79012101FA02F211463F4A0B43E2
:1009200053603E4B5B683A79012101FA02F2D243EF
:1009300011463A4A0B405360384B5B683A7C0121C0
:1009400001FA02F21146354A0B435360334B5B68A0
:100950003A7D012101FA02F2D24311462F4A0B409F
:100960005360CFE1BB79052B2AD12C4B5B687A7998
:10097000012101FA02F21146284A0B435360274B2A
:100980005B683A79012101FA02F2D2431146234A07
:100990000B405360214B5B683A7C012101FA02F263
:1009A000D24311461D4A0B4053601C4B5B683A7D95
:1009B000012101FA02F21146184A0B435360A1E1EA
:1009C000BB79062B40F09E81144B5B687A7901213C
:1009D00001FA02F21146114A0B4353600F4B5B6858
:1009E0003A79012101FA02F2D24311460B4A0B4037
:1009F00053600A4B5B683A7C012101FA02F211460E
:100A0000064A0B435360054B5B683A7D012101FAAE
:100A100002F21146014A0B43536073E100080140A2
:100A2000BB79032B2BD19F4B5B687A79012101FAAB
:100A300002F2D24311469B4A0B405360994B5B68CC
:100A40003A79012101FA02F21146964A0B435360AA
:100A5000944B5B683A7C012101FA02F2D2431146C1
:100A6000904A0B4053608F4B5B683A7D012101FA3D
:100A700002F2D24311468B4A0B40536044E1BB79EA
:100A8000042B2AD1874B5B687A79012101FA02F2A3
:100A9000D2431146834A0B405360824B5B683A79DC
:100AA000012101FA02F211467E4A0B4353607D4B4D
:100AB0005B683A7C012101FA02F21146794A0B4344
:100AC0005360784B5B683A7D012101FA02F2D24310
:100AD0001146744A0B40536016E1BB79052B2AD1AD
:100AE000704B5B687A79012101FA02F2D243114618
:100AF0006C4A0B4053606B4B5B683A79012101FAF9
:100B000002F21146674A0B435360664B5B683A7CBE
:100B1000012101FA02F2D2431146624A0B405360AE
:100B2000604B5B683A7D012101FA02F211465D4A91
:100B30000B435360E8E0BB79062B40F0E580594B4E
:100B40005B687A79012101FA02F2D2431146554AD3
:100B50000B405360534B5B683A79012101FA02F272
:100B60001146504A0B4353604E4B5B683A7C01215F
:100B700001FA02F211464B4A0B435360494B5B6842
:100B80003A7D012101FA02F21146464A0B435360B5
:100B9000BAE0BB79032B2AD1424B5B687A790121F9
:100BA00001FA02F211463F4A0B4353603D4B5B682A
:100BB0003A79012101FA02F211463A4A0B43536095
:100BC000384B5B683A7C012101FA02F2D2431146AC
:100BD000344A0B405360334B5B683A7D012101FA84
:100BE00002F2D24311462F4A0B4053608EE0BB798C
:100BF000042B29D12B4B5B687A79012101FA02F28F
:100C00001146284A0B435360264B5B683A79012111
:100C100001FA02F21146234A0B435360214B5B68F1
:100C20003A7C012101FA02F211461E4A0B4353603D
:100C30001C4B5B683A7D012101FA02F2D243114656
:100C4000184A0B40536061E0BB79052B2CD1154B42
:100C50005B687A79012101FA02F21146114A0B43CD
:100C60005360104B5B683A79012101FA02F2114698
:100C70000C4A0B4353600B4B5B683A7C012101FA31
:100C800002F2D2431146074A0B405360054B5B68A2
:100C90003A7D012101FA02F21146024A0B435360E8
:100CA00034E000BF00080140BB79062B2ED11A4B5F
:100CB0005B687A79012101FA02F21146164A0B4368
:100CC0005360154B5B683A79012101FA02F2114633
:100CD000114A0B435360104B5B683A7C012101FAC7
:100CE00002F211460C4A0B4353600B4B5B683A7D92
:100CF000012101FA02F21146074A0B43536005E055
:100D000000BF04E000BF02E000BF00E000BF00BF82
:100D10000837BD4690BC70470008014080B584B0DC
:100D200002AF0346FB710B46BB7113467B71FB7927
:100D30000F2B00F2D38001A252F823F07D0D0008A2
:100D4000930D0008A90D0008BF0D0008D50D00087F
:100D5000EB0D0008010E0008170E00082D0E00080C
:100D6000430E0008590E00086F0E0008850E00089B
:100D70009B0E0008B10E0008C70E00087979B879FB
:100D8000032301930223009301230022FFF7FAF9C2
:100D9000A4E07979B879072301930623009305230A
:100DA0000422FFF7EFF999E07979B8790B230193E1
:100DB0000A23009309230822FFF7E4F98EE07979EA
:100DC000B8790F2301930E2300930D230C22FFF714
:100DD000D9F983E07979B879132301931223009329
:100DE00011231022FFF7CEF978E07979B87917232B
:100DF00001931623009315231422FFF7C3F96DE026
:100E00007979B8791B2301931A23009319231822A7
:100E1000FFF7B8F962E07979B8791F2301931E23AF
:100E200000931D231C22FFF7ADF957E07979B879BB
:100E3000032301930223009301230022FFF788FC80
:100E40004CE07979B87907230193062300930523B1
:100E50000422FFF77DFC41E07979B8790B230193F7
:100E60000A23009309230822FFF772FC36E0797900
:100E7000B8790F2301930E2300930D230C22FFF763
:100E800067FC2BE07979B87913230193122300933F
:100E900011231022FFF75CFC20E07979B879172341
:100EA00001931623009315231422FFF751FC15E03C
:100EB0007979B8791B2301931A23009319231822F7
:100EC000FFF746FC0AE07979B8791F2301931E23C6
:100ED00000931D231C22FFF73BFC00BF00BF083717
:100EE000BD4680BD90B482B000AF044608461146AE
:100EF0001A462346FB710346BB710B467B711346B2
:100F00003B71FB79032B00F2CC8201A252F823F053
:100F1000210F00083F100008B51100082713000832
:100F2000BB79002B2CD1A24B1B687A79012101FAE5
:100F300002F2D24311469E4A0B4013609C4B1B6841
:100F40003A79012101FA02F2D2431146984A0B4044
:100F50001360974B1B683A7C012101FA02F2D243DD
:100F60001146934A0B401360914B1B683A7D012157
:100F700001FA02F2D24311468D4A0B40136089E216
:100F8000BB79012B2BD18A4B1B687A79012101FA9D
:100F900002F2D2431146864A0B401360844B1B6811
:100FA0003A79012101FA02F2D2431146804A0B40FC
:100FB00013607F4B1B683A7C012101FA02F2114653
:100FC0007B4A0B4313607A4B1B683A7D012101FA7F
:100FD00002F2D2431146764A0B4013605AE2BB79C3
:100FE000022B40F05782724B1B687A79012101FA7B
:100FF00002F2D24311466E4A0B4013606C4B1B68E1
:101000003A79012101FA02F2D2431146684A0B40B3
:101010001360674B1B683A7C012101FA02F2D2434C
:101020001146634A0B401360614B1B683A7D0121F6
:1010300001FA02F211465E4A0B4313602AE2BB79C1
:10104000032B2BD15A4B1B687A79012101FA02F24A
:101050001146574A0B431360554B1B683A790121DF
:1010600001FA02F2D2431146514A0B401360504B31
:101070001B683A7C012101FA02F2D24311464C4A24
:101080000B4013604A4B1B683A7D012101FA02F2C2
:10109000D2431146464A0B401360FDE1BB79042B55
:1010A0002AD1434B1B687A79012101FA02F21146D9
:1010B0003F4A0B4313603E4B1B683A79012101FA0A
:1010C00002F2D24311463A4A0B401360384B1B6878
:1010D0003A7C012101FA02F21146354A0B431360B2
:1010E000334B1B683A7D012101FA02F2D2431146CB
:1010F0002F4A0B401360CFE1BB79052B2AD12C4B33
:101100001B687A79012101FA02F21146284A0B4341
:101110001360274B1B683A79012101FA02F2D2438E
:101120001146234A0B401360214B1B683A7C012176
:1011300001FA02F2D24311461D4A0B4013601C4BC8
:101140001B683A7D012101FA02F21146184A0B434D
:101150001360A1E1BB79062B40F09E81144B1B6804
:101160007A79012101FA02F21146114A0B43136008
:101170000F4B1B683A79012101FA02F2D243114662
:101180000B4A0B4013600A4B1B683A7C012101FAA1
:1011900002F21146064A0B431360054B1B683A7D69
:1011A000012101FA02F21146014A0B43136073E177
:1011B000000C0140BB79032B2BD19F4B1B687A7924
:1011C000012101FA02F2D24311469B4A0B401360FF
:1011D000994B1B683A79012101FA02F21146964AAD
:1011E0000B431360944B1B683A7C012101FA02F215
:1011F000D2431146904A0B4013608F4B1B683A7DD7
:10120000012101FA02F2D24311468B4A0B401360CE
:1012100044E1BB79042B2AD1874B1B687A790121E1
:1012200001FA02F2D2431146834A0B401360824B0B
:101230001B683A79012101FA02F211467E4A0B43FA
:1012400013607D4B1B683A7C012101FA02F21146C2
:10125000794A0B431360784B1B683A7D012101FAF0
:1012600002F2D2431146744A0B40136016E1BB7977
:10127000052B2AD1704B1B687A79012101FA02F201
:10128000D24311466C4A0B4013606B4B1B683A7992
:10129000012101FA02F21146674A0B431360664BC3
:1012A0001B683A7C012101FA02F2D2431146624ADC
:1012B0000B401360604B1B683A7D012101FA02F27A
:1012C00011465D4A0B431360E8E0BB79062B40F002
:1012D000E580594B1B687A79012101FA02F2D24369
:1012E0001146554A0B401360534B1B683A79012154
:1012F00001FA02F21146504A0B4313604E4B1B6831
:101300003A7C012101FA02F211464B4A0B43136069
:10131000494B1B683A7D012101FA02F21146464A07
:101320000B431360BAE0BB79032B2AD1424B1B68F5
:101330007A79012101FA02F211463F4A0B43136008
:101340003D4B1B683A79012101FA02F211463A4AF3
:101350000B431360384B1B683A7C012101FA02F2FF
:10136000D2431146344A0B401360334B1B683A7D1D
:10137000012101FA02F2D24311462F4A0B401360B9
:101380008EE0BB79042B29D12B4B1B687A79012184
:1013900001FA02F21146284A0B431360264B1B68E0
:1013A0003A79012101FA02F21146234A0B431360F4
:1013B000214B1B683A7C012101FA02F211461E4AB8
:1013C0000B4313601C4B1B683A7D012101FA02F2AA
:1013D000D2431146184A0B40136061E0BB79052BDC
:1013E0002CD1154B1B687A79012101FA02F21146C2
:1013F000114A0B431360104B1B683A79012101FA23
:1014000002F211460C4A0B4313600B4B1B683A7CEB
:10141000012101FA02F2D2431146074A0B40136040
:10142000054B1B683A7D012101FA02F21146024A7E
:101430000B43136034E000BF000C0140BB79062B66
:101440002ED11A4B1B687A79012101FA02F211465A
:10145000164A0B431360154B1B683A79012101FAB8
:1014600002F21146114A0B431360104B1B683A7C81
:10147000012101FA02F211460C4A0B4313600B4B97
:101480001B683A7D012101FA02F21146074A0B431B
:10149000136005E000BF04E000BF02E000BF00E011
:1014A00000BF00BF0837BD4690BC7047000C01402C
:1014B00090B482B000AF0446084611461A4623464F
:1014C000FB710346BB710B467B7113463B71FB7985
:1014D000032B00F2CC8201A252F823F0ED14000895
:1014E0000B16000881170008F3180008BB79002BC1
:1014F0002CD1A24B5B687A79012101FA02F2D24326
:1015000011469E4A0B4053609C4B5B683A7901211F
:1015100001FA02F2D2431146984A0B405360974BAE
:101520005B683A7C012101FA02F2D2431146934AE8
:101530000B405360914B5B683A7D012101FA02F246
:10154000D24311468D4A0B40536089E2BB79012B8F
:101550002BD18A4B5B687A79012101FA02F2D243DE
:101560001146864A0B405360844B5B683A790121EF
:1015700001FA02F2D2431146804A0B4053607F4B7E
:101580005B683A7C012101FA02F211467B4A0B4367
:1015900053607A4B5B683A7D012101FA02F2D24333
:1015A0001146764A0B4053605AE2BB79022B40F059
:1015B0005782724B5B687A79012101FA02F2D243B9
:1015C00011466E4A0B4053606C4B5B683A790121BF
:1015D00001FA02F2D2431146684A0B405360674B4E
:1015E0005B683A7C012101FA02F2D2431146634A58
:1015F0000B405360614B5B683A7D012101FA02F2B6
:1016000011465E4A0B4353602AE2BB79032B2BD170
:101610005A4B5B687A79012101FA02F21146574A66
:101620000B435360554B5B683A79012101FA02F292
:10163000D2431146514A0B405360504B5B683A7C91
:10164000012101FA02F2D24311464C4A0B40536089
:101650004A4B5B683A7D012101FA02F2D2431146FE
:10166000464A0B405360FDE1BB79042B2AD1434B22
:101670005B687A79012101FA02F211463F4A0B4375
:1016800053603E4B5B683A79012101FA02F2D24382
:1016900011463A4A0B405360384B5B683A7C012153
:1016A00001FA02F21146354A0B435360334B5B6833
:1016B0003A7D012101FA02F2D24311462F4A0B4032
:1016C0005360CFE1BB79052B2AD12C4B5B687A792B
:1016D000012101FA02F21146284A0B435360274BBD
:1016E0005B683A79012101FA02F2D2431146234A9A
:1016F0000B405360214B5B683A7C012101FA02F2F6
:10170000D24311461D4A0B4053601C4B5B683A7D27
:10171000012101FA02F21146184A0B435360A1E17C
:10172000BB79062B40F09E81144B5B687A790121CE
:1017300001FA02F21146114A0B4353600F4B5B68EA
:101740003A79012101FA02F2D24311460B4A0B40C9
:1017500053600A4B5B683A7C012101FA02F21146A0
:10176000064A0B435360054B5B683A7D012101FA41
:1017700002F21146014A0B43536073E1000C014031
:10178000BB79032B2BD19F4B5B687A79012101FA3E
:1017900002F2D24311469B4A0B405360994B5B685F
:1017A0003A79012101FA02F21146964A0B4353603D
:1017B000944B5B683A7C012101FA02F2D243114654
:1017C000904A0B4053608F4B5B683A7D012101FAD0
:1017D00002F2D24311468B4A0B40536044E1BB797D
:1017E000042B2AD1874B5B687A79012101FA02F236
:1017F000D2431146834A0B405360824B5B683A796F
:10180000012101FA02F211467E4A0B4353607D4BDF
:101810005B683A7C012101FA02F21146794A0B43D6
:101820005360784B5B683A7D012101FA02F2D243A2
:101830001146744A0B40536016E1BB79052B2AD13F
:10184000704B5B687A79012101FA02F2D2431146AA
:101850006C4A0B4053606B4B5B683A79012101FA8B
:1018600002F21146674A0B435360664B5B683A7C51
:10187000012101FA02F2D2431146624A0B40536041
:10188000604B5B683A7D012101FA02F211465D4A24
:101890000B435360E8E0BB79062B40F0E580594BE1
:1018A0005B687A79012101FA02F2D2431146554A66
:1018B0000B405360534B5B683A79012101FA02F205
:1018C0001146504A0B4353604E4B5B683A7C0121F2
:1018D00001FA02F211464B4A0B435360494B5B68D5
:1018E0003A7D012101FA02F21146464A0B43536048
:1018F000BAE0BB79032B2AD1424B5B687A7901218C
:1019000001FA02F211463F4A0B4353603D4B5B68BC
:101910003A79012101FA02F211463A4A0B43536027
:10192000384B5B683A7C012101FA02F2D24311463E
:10193000344A0B405360334B5B683A7D012101FA16
:1019400002F2D24311462F4A0B4053608EE0BB791E
:10195000042B29D12B4B5B687A79012101FA02F221
:101960001146284A0B435360264B5B683A790121A4
:1019700001FA02F21146234A0B435360214B5B6884
:101980003A7C012101FA02F211461E4A0B435360D0
:101990001C4B5B683A7D012101FA02F2D2431146E9
:1019A000184A0B40536061E0BB79052B2CD1154BD5
:1019B0005B687A79012101FA02F21146114A0B4360
:1019C0005360104B5B683A79012101FA02F211462B
:1019D0000C4A0B4353600B4B5B683A7C012101FAC4
:1019E00002F2D2431146074A0B405360054B5B6835
:1019F0003A7D012101FA02F21146024A0B4353607B
:101A000034E000BF000C0140BB79062B2ED11A4BED
:101A10005B687A79012101FA02F21146164A0B43FA
:101A20005360154B5B683A79012101FA02F21146C5
:101A3000114A0B435360104B5B683A7C012101FA59
:101A400002F211460C4A0B4353600B4B5B683A7D24
:101A5000012101FA02F21146074A0B43536005E0E7
:101A600000BF04E000BF02E000BF00E000BF00BF15
:101A70000837BD4690BC7047000C014080B584B06B
:101A800002AF0346FB710B46BB7113467B71FB79BA
:101A90000F2B00F2D38001A252F823F0DD1A0008C8
:101AA000F31A0008091B00081F1B0008351B00085B
:101AB0004B1B0008611B0008771B00088D1B0008EA
:101AC000A31B0008B91B0008CF1B0008E51B00087A
:101AD000FB1B0008111C0008271C00087979B87945
:101AE000032301930223009301230022FFF7FAF955
:101AF000A4E07979B879072301930623009305239D
:101B00000422FFF7EFF999E07979B8790B23019373
:101B10000A23009309230822FFF7E4F98EE079797C
:101B2000B8790F2301930E2300930D230C22FFF7A6
:101B3000D9F983E07979B8791323019312230093BB
:101B400011231022FFF7CEF978E07979B8791723BD
:101B500001931623009315231422FFF7C3F96DE0B8
:101B60007979B8791B2301931A230093192318223A
:101B7000FFF7B8F962E07979B8791F2301931E2342
:101B800000931D231C22FFF7ADF957E07979B8794E
:101B9000032301930223009301230022FFF788FC13
:101BA0004CE07979B8790723019306230093052344
:101BB0000422FFF77DFC41E07979B8790B2301938A
:101BC0000A23009309230822FFF772FC36E0797993
:101BD000B8790F2301930E2300930D230C22FFF7F6
:101BE00067FC2BE07979B8791323019312230093D2
:101BF00011231022FFF75CFC20E07979B8791723D4
:101C000001931623009315231422FFF751FC15E0CE
:101C10007979B8791B2301931A2300931923182289
:101C2000FFF746FC0AE07979B8791F2301931E2358
:101C300000931D231C22FFF73BFC00BF00BF0837A9
:101C4000BD4680BD90B482B000AF04460846114640
:101C50001A462346FB710346BB710B467B71134644
:101C60003B71FB79032B00F2CC8201A252F823F0E6
:101C7000811C00089F1D0008151F00088720000810
:101C8000BB79002B2CD1A24B1B687A79012101FA78
:101C900002F2D24311469E4A0B4013609C4B1B68D4
:101CA0003A79012101FA02F2D2431146984A0B40D7
:101CB0001360974B1B683A7C012101FA02F2D24370
:101CC0001146934A0B401360914B1B683A7D0121EA
:101CD00001FA02F2D24311468D4A0B40136089E2A9
:101CE000BB79012B2BD18A4B1B687A79012101FA30
:101CF00002F2D2431146864A0B401360844B1B68A4
:101D00003A79012101FA02F2D2431146804A0B408E
:101D100013607F4B1B683A7C012101FA02F21146E5
:101D20007B4A0B4313607A4B1B683A7D012101FA11
:101D300002F2D2431146764A0B4013605AE2BB7955
:101D4000022B40F05782724B1B687A79012101FA0D
:101D500002F2D24311466E4A0B4013606C4B1B6873
:101D60003A79012101FA02F2D2431146684A0B4046
:101D70001360674B1B683A7C012101FA02F2D243DF
:101D80001146634A0B401360614B1B683A7D012189
:101D900001FA02F211465E4A0B4313602AE2BB7954
:101DA000032B2BD15A4B1B687A79012101FA02F2DD
:101DB0001146574A0B431360554B1B683A79012172
:101DC00001FA02F2D2431146514A0B401360504BC4
:101DD0001B683A7C012101FA02F2D24311464C4AB7
:101DE0000B4013604A4B1B683A7D012101FA02F255
:101DF000D2431146464A0B401360FDE1BB79042BE8
:101E00002AD1434B1B687A79012101FA02F211466B
:101E10003F4A0B4313603E4B1B683A79012101FA9C
:101E200002F2D24311463A4A0B401360384B1B680A
:101E30003A7C012101FA02F21146354A0B43136044
:101E4000334B1B683A7D012101FA02F2D24311465D
:101E50002F4A0B401360CFE1BB79052B2AD12C4BC5
:101E60001B687A79012101FA02F21146284A0B43D4
:101E70001360274B1B683A79012101FA02F2D24321
:101E80001146234A0B401360214B1B683A7C012109
:101E900001FA02F2D24311461D4A0B4013601C4B5B
:101EA0001B683A7D012101FA02F21146184A0B43E0
:101EB0001360A1E1BB79062B40F09E81144B1B6897
:101EC0007A79012101FA02F21146114A0B4313609B
:101ED0000F4B1B683A79012101FA02F2D2431146F5
:101EE0000B4A0B4013600A4B1B683A7C012101FA34
:101EF00002F21146064A0B431360054B1B683A7DFC
:101F0000012101FA02F21146014A0B43136073E109
:101F100000100140BB79032B2BD19F4B1B687A79B2
:101F2000012101FA02F2D24311469B4A0B40136091
:101F3000994B1B683A79012101FA02F21146964A3F
:101F40000B431360944B1B683A7C012101FA02F2A7
:101F5000D2431146904A0B4013608F4B1B683A7D69
:101F6000012101FA02F2D24311468B4A0B40136061
:101F700044E1BB79042B2AD1874B1B687A79012174
:101F800001FA02F2D2431146834A0B401360824B9E
:101F90001B683A79012101FA02F211467E4A0B438D
:101FA00013607D4B1B683A7C012101FA02F2114655
:101FB000794A0B431360784B1B683A7D012101FA83
:101FC00002F2D2431146744A0B40136016E1BB790A
:101FD000052B2AD1704B1B687A79012101FA02F294
:101FE000D24311466C4A0B4013606B4B1B683A7925
:101FF000012101FA02F21146674A0B431360664B56
:102000001B683A7C012101FA02F2D2431146624A6E
:102010000B401360604B1B683A7D012101FA02F20C
:1020200011465D4A0B431360E8E0BB79062B40F094
:10203000E580594B1B687A79012101FA02F2D243FB
:102040001146554A0B401360534B1B683A790121E6
:1020500001FA02F21146504A0B4313604E4B1B68C3
:102060003A7C012101FA02F211464B4A0B431360FC
:10207000494B1B683A7D012101FA02F21146464A9A
:102080000B431360BAE0BB79032B2AD1424B1B6888
:102090007A79012101FA02F211463F4A0B4313609B
:1020A0003D4B1B683A79012101FA02F211463A4A86
:1020B0000B431360384B1B683A7C012101FA02F292
:1020C000D2431146344A0B401360334B1B683A7DB0
:1020D000012101FA02F2D24311462F4A0B4013604C
:1020E0008EE0BB79042B29D12B4B1B687A79012117
:1020F00001FA02F21146284A0B431360264B1B6873
:102100003A79012101FA02F21146234A0B43136086
:10211000214B1B683A7C012101FA02F211461E4A4A
:102120000B4313601C4B1B683A7D012101FA02F23C
:10213000D2431146184A0B40136061E0BB79052B6E
:102140002CD1154B1B687A79012101FA02F2114654
:10215000114A0B431360104B1B683A79012101FAB5
:1021600002F211460C4A0B4313600B4B1B683A7C7E
:10217000012101FA02F2D2431146074A0B401360D3
:10218000054B1B683A7D012101FA02F21146024A11
:102190000B43136034E000BF00100140BB79062BF5
:1021A0002ED11A4B1B687A79012101FA02F21146ED
:1021B000164A0B431360154B1B683A79012101FA4B
:1021C00002F21146114A0B431360104B1B683A7C14
:1021D000012101FA02F211460C4A0B4313600B4B2A
:1021E0001B683A7D012101FA02F21146074A0B43AE
:1021F000136005E000BF04E000BF02E000BF00E0A4
:1022000000BF00BF0837BD4690BC704700100140BA
:1022100090B482B000AF0446084611461A462346E1
:10222000FB710346BB710B467B7113463B71FB7917
:10223000032B00F2CC8201A252F823F04D220008B9
:102240006B230008E124000853260008BB79002B0B
:102250002CD1A24B5B687A79012101FA02F2D243B8
:1022600011469E4A0B4053609C4B5B683A790121B2
:1022700001FA02F2D2431146984A0B405360974B41
:102280005B683A7C012101FA02F2D2431146934A7B
:102290000B405360914B5B683A7D012101FA02F2D9
:1022A000D24311468D4A0B40536089E2BB79012B22
:1022B0002BD18A4B5B687A79012101FA02F2D24371
:1022C0001146864A0B405360844B5B683A79012182
:1022D00001FA02F2D2431146804A0B4053607F4B11
:1022E0005B683A7C012101FA02F211467B4A0B43FA
:1022F00053607A4B5B683A7D012101FA02F2D243C6
:102300001146764A0B4053605AE2BB79022B40F0EB
:102310005782724B5B687A79012101FA02F2D2434B
:1023200011466E4A0B4053606C4B5B683A79012151
:1023300001FA02F2D2431146684A0B405360674BE0
:102340005B683A7C012101FA02F2D2431146634AEA
:102350000B405360614B5B683A7D012101FA02F248
:1023600011465E4A0B4353602AE2BB79032B2BD103
:102370005A4B5B687A79012101FA02F21146574AF9
:102380000B435360554B5B683A79012101FA02F225
:10239000D2431146514A0B405360504B5B683A7C24
:1023A000012101FA02F2D24311464C4A0B4053601C
:1023B0004A4B5B683A7D012101FA02F2D243114691
:1023C000464A0B405360FDE1BB79042B2AD1434BB5
:1023D0005B687A79012101FA02F211463F4A0B4308
:1023E00053603E4B5B683A79012101FA02F2D24315
:1023F00011463A4A0B405360384B5B683A7C0121E6
:1024000001FA02F21146354A0B435360334B5B68C5
:102410003A7D012101FA02F2D24311462F4A0B40C4
:102420005360CFE1BB79052B2AD12C4B5B687A79BD
:10243000012101FA02F21146284A0B435360274B4F
:102440005B683A79012101FA02F2D2431146234A2C
:102450000B405360214B5B683A7C012101FA02F288
:10246000D24311461D4A0B4053601C4B5B683A7DBA
:10247000012101FA02F21146184A0B435360A1E10F
:10248000BB79062B40F09E81144B5B687A79012161
:1024900001FA02F21146114A0B4353600F4B5B687D
:1024A0003A79012101FA02F2D24311460B4A0B405C
:1024B00053600A4B5B683A7C012101FA02F2114633
:1024C000064A0B435360054B5B683A7D012101FAD4
:1024D00002F21146014A0B43536073E100100140C0
:1024E000BB79032B2BD19F4B5B687A79012101FAD1
:1024F00002F2D24311469B4A0B405360994B5B68F2
:102500003A79012101FA02F21146964A0B435360CF
:10251000944B5B683A7C012101FA02F2D2431146E6
:10252000904A0B4053608F4B5B683A7D012101FA62
:1025300002F2D24311468B4A0B40536044E1BB790F
:10254000042B2AD1874B5B687A79012101FA02F2C8
:10255000D2431146834A0B405360824B5B683A7901
:10256000012101FA02F211467E4A0B4353607D4B72
:102570005B683A7C012101FA02F21146794A0B4369
:102580005360784B5B683A7D012101FA02F2D24335
:102590001146744A0B40536016E1BB79052B2AD1D2
:1025A000704B5B687A79012101FA02F2D24311463D
:1025B0006C4A0B4053606B4B5B683A79012101FA1E
:1025C00002F21146674A0B435360664B5B683A7CE4
:1025D000012101FA02F2D2431146624A0B405360D4
:1025E000604B5B683A7D012101FA02F211465D4AB7
:1025F0000B435360E8E0BB79062B40F0E580594B74
:102600005B687A79012101FA02F2D2431146554AF8
:102610000B405360534B5B683A79012101FA02F297
:102620001146504A0B4353604E4B5B683A7C012184
:1026300001FA02F211464B4A0B435360494B5B6867
:102640003A7D012101FA02F21146464A0B435360DA
:10265000BAE0BB79032B2AD1424B5B687A7901211E
:1026600001FA02F211463F4A0B4353603D4B5B684F
:102670003A79012101FA02F211463A4A0B435360BA
:10268000384B5B683A7C012101FA02F2D2431146D1
:10269000344A0B405360334B5B683A7D012101FAA9
:1026A00002F2D24311462F4A0B4053608EE0BB79B1
:1026B000042B29D12B4B5B687A79012101FA02F2B4
:1026C0001146284A0B435360264B5B683A79012137
:1026D00001FA02F21146234A0B435360214B5B6817
:1026E0003A7C012101FA02F211461E4A0B43536063
:1026F0001C4B5B683A7D012101FA02F2D24311467C
:10270000184A0B40536061E0BB79052B2CD1154B67
:102710005B687A79012101FA02F21146114A0B43F2
:102720005360104B5B683A79012101FA02F21146BD
:102730000C4A0B4353600B4B5B683A7C012101FA56
:1027400002F2D2431146074A0B405360054B5B68C7
:102750003A7D012101FA02F21146024A0B4353600D
:1027600034E000BF00100140BB79062B2ED11A4B7C
:102770005B687A79012101FA02F21146164A0B438D
:102780005360154B5B683A79012101FA02F2114658
:10279000114A0B435360104B5B683A7C012101FAEC
:1027A00002F211460C4A0B4353600B4B5B683A7DB7
:1027B000012101FA02F21146074A0B43536005E07A
:1027C00000BF04E000BF02E000BF00E000BF00BFA8
:1027D0000837BD4690BC70470010014080B584B0FA
:1027E00002AF0346FB710B46BB7113467B71FB794D
:1027F0000F2B00F2D38001A252F823F03D280008ED
:1028000053280008692800087F2800089528000838
:10281000AB280008C1280008D7280008ED280008C8
:1028200003290008192900082F2900084529000854
:102830005B29000871290008872900087979B8798F
:10284000032301930223009301230022FFF7FAF9E7
:10285000A4E07979B879072301930623009305232F
:102860000422FFF7EFF999E07979B8790B23019306
:102870000A23009309230822FFF7E4F98EE079790F
:10288000B8790F2301930E2300930D230C22FFF739
:10289000D9F983E07979B87913230193122300934E
:1028A00011231022FFF7CEF978E07979B879172350
:1028B00001931623009315231422FFF7C3F96DE04B
:1028C0007979B8791B2301931A23009319231822CD
:1028D000FFF7B8F962E07979B8791F2301931E23D5
:1028E00000931D231C22FFF7ADF957E07979B879E1
:1028F000032301930223009301230022FFF788FCA6
:102900004CE07979B87907230193062300930523D6
:102910000422FFF77DFC41E07979B8790B2301931C
:102920000A23009309230822FFF772FC36E0797925
:10293000B8790F2301930E2300930D230C22FFF788
:1029400067FC2BE07979B879132301931223009364
:1029500011231022FFF75CFC20E07979B879172366
:1029600001931623009315231422FFF751FC15E061
:102970007979B8791B2301931A230093192318221C
:10298000FFF746FC0AE07979B8791F2301931E23EB
:1029900000931D231C22FFF73BFC00BF00BF08373C
:1029A000BD4680BD90B583B000AF044608461146D1
:1029B0001A462346FB710346BB710B467B711346D7
:1029C0003B71FB79022B14D0022B19DC002B02D0B7
:1029D000012B07D014E03A797979BB791846FEF7D4
:1029E0009DF90DE03A797979BB791846FFF746F8F9
:1029F00006E03A797979BB791846FFF7EFFE00BF18
:102A000000BF0C37BD4690BD80B483B000AF034615
:102A1000FB710B46BB7113467B71FB79022B40D0D7
:102A2000022B60DC002B02D0012B1DD05BE07B79F8
:102A3000012B0AD12E4BDB68BA79012101FA02F28F
:102A400011462B4A0B43D36048E07B79002B45D1DC
:102A5000274BDB68BA79012101FA02F2D243114611
:102A6000234A0B40D36039E07B79012B0AD1214BFB
:102A7000DB68BA79012101FA02F211461D4A0B43C3
:102A8000D3602DE07B79002B2AD11A4BDB68BA7911
:102A9000012101FA02F2D2431146164A0B40D360DB
:102AA0001EE07B79012B0AD1134BDB68BA79012137
:102AB00001FA02F21146104A0B43D36012E07B790F
:102AC000002B0FD10C4BDB68BA79012101FA02F21D
:102AD000D2431146084A0B40D36003E000BF02E036
:102AE00000BF00E000BF00BF0C37BD4680BC704790
:102AF00000080140000C01400010014080B483B088
:102B000000AF0346FB71FB791F2B0AD8194B1B68DA
:102B1000FA79012101FA02F21146164A0B431360B9
:102B200022E0FB791F2B0ED9FB793F2B0BD8114BE1
:102B30005B68FA79203A012101FA02F211460D4A46
:102B40000B43536010E0FB793F2B0DD9FB79502BE1
:102B50000AD8084B9B68FA79403A012101FA02F23F
:102B60001146044A0B43936000BF0C37BD4680BC3E
:102B7000704700BF00E100E080B400AF0A4B1B6863
:102B8000094A43F400731360074B5B68064A43F03D
:102B900001035360044B5B68034A23F00203536054
:102BA00000BFBD4680BC70470010024080B483B0B7
:102BB00000AF0346FB71074B9B69FA79012101FACB
:102BC00002F21146034A0B43936100BF0C37BD4626
:102BD00080BC70470010024080B400AF0D4B1B68F2
:102BE0000C4A23F0010313600A4B1B68094A23F0C7
:102BF00002031360074B1B68064A23F004031360AB
:102C0000044B00225A60034B00229A6000BFBD466D
:102C100080BC704710E000E080B500AF104B1B781F
:102C2000DBB2002B11D10F4B1B680E4A23F00103BE
:102C300013600C4B1B680B4A23F0020313600A4B12
:102C40001B689847064B01221A70074B1B68984770
:102C5000064B1B680133054A136000BF80BD00BFEF
:102C60002000002010E000E01C00002024000020D4
:102C700080B400AF264B00221A60254BDB68244A43
:102C800023F48053D360224BDB68214A23F4806312
:102C9000D3601F4B1B691E4A23F4805313611C4BE6
:102CA0001B691B4A23F400531361194B1B69184A13
:102CB00023F400631361164BDB68154A23F080038D
:102CC000D360134BDB68124A23F04003D360104BF0
:102CD000DB680F4A23F02003D3600D4B40F24132F2
:102CE0009A600B4BDB680A4A43F00803D360084B39
:102CF000DB68074A43F00403D360054BDB68044AF2
:102D000043F40053D36000BFBD4680BC704700BF92
:102D10000038014080B483B000AF0346FB710B4A1A
:102D2000FB79536000BF094B1B689B0903F001034B
:102D3000002BF8D0054B1B68044A23F040031360B6
:102D400000BF0C37BD4680BC704700BF0038014053
:102D500080B584B000AF78600023FB7309E0FB7B93
:102D60007A6813441B781846FFF7D4FFFB7B0133C6
:102D7000FB73FB7B7A6813441B78002BEFD100BFF9
:102D800000BF1037BD4680BD80B483B000AF0023C4
:102D9000FB7100233B60124B1B68114A23F0200398
:102DA000136002E03B6801333B600D4B1B685B091D
:102DB00003F00103002B03D13B680A4A9342F1D987
:102DC0003B68094A934202D1FF23FB7102E0044BA6
:102DD0005B68FB71FB7918460C37BD4680BC7047B9
:102DE000003801403F5489004054890080B582B0CA
:102DF00000AF0023FB7106E0FB790B49BA79CA5496
:102E0000FB790133FB71FFF7BFFF0346BB71BB7951
:102E10000D2BF1D1FB79044A0021D154024B184605
:102E20000837BD4680BD00BF3400002080B500AF2C
:102E3000034B00221A60034B1B68984700BF80BDFC
:102E4000003801402800002080B500AF034B00226D
:102E50001A60034B1B68984700BF80BD00380140D3
:102E60002C00002080B500AF034B00221A60034BFA
:102E70001B68984700BF80BD00380140300000202B
:102E800080B582B000AFFFF777FE0220FFF78EFE1D
:102E90000E20FFF78BFE0020FFF788FEFFF79CFE59
:102EA0000323022200210020FFF77CFD01230022E2
:102EB0000A210020FFF776FD0523022209210020C8
:102EC000FFF770FD2520FFF719FEFFF7D1FEFFF792
:102ED0008DFF78607868FFF73BFF0E48FFF738FFFB
:102EE00079680D48FDF744F90346002B08D10B48DB
:102EF000FFF72EFF012200210020FFF785FDE6E706
:102F00000748FFF725FF002200210020FFF77CFD86
:102F1000DDE700BFD82F0008E02F0008E42F0008ED
:102F2000F02F00080D488546AFF300800C480D498E
:102F30000D4A002302E0D458C4500433C4188C4214
:102F4000F9D30A4A0A4C002301E013600432A2427A
:102F5000FBD300F011F8FFF793FFFEE700500020CD
:102F600000000020000000200830000800000020C1
:102F700048000020FEE7000070B500260C4D0D4C07
:102F8000641BA410A64209D100F01AF800260A4DCD
:102F90000A4C641BA410A64205D170BD55F8043B31
:102FA00098470136EEE755F8043B98470136F2E7BB
:102FB000003000080030000800300008043000082D
:102FC000F8B500BFF8BC08BC9E467047F8B500BF16
:082FD000F8BC08BC9E467047E6
:102FD80020200D0A00000000494D54006964656E08
:102FE800746963616C0D0A004E4F54206964656E04
:082FF800746963616C0D0A00AD
:04300000550100086E
:04300400310100088E
:0400000508002F259B
:00000001FF
