:020000040800F2
:100000000050002021020008270200082B020008EF
:100010009D020008A1020008E9020008000000009B
:100020000000000000000000000000003103000894
:10003000350300080000000039030008892100088A
:100040004D0300084D0300084D0300084D03000850
:100050004D0300084D0300084D0300084D03000840
:100060004D0300084D0300084D0300084D03000830
:100070004D0300084D0300084D0300084D03000820
:100080004D0300084D0300084D0300084D03000810
:100090004D0300084D0300084D0300084D03000800
:1000A0004D0300084D0300084D0300084D030008F0
:1000B0004D0300084D0300084D0300084D030008E0
:1000C0004D0300084D0300084D0300084D030008D0
:1000D0004D0300084D0300084D0300084D030008C0
:1000E0004D0300084D0300084D0300080000000008
:1000F0000000000000000000000000000000000000
:1001000000000000000000005FF808F100B583B0B7
:1001100000F0AAF9304B314A1360314A1360314B79
:10012000314A32498B4204D21168196004330432D7
:10013000F7E72A4B1A682E4B9A4200D0FEE7284B6D
:100140001A682C4B9A42F9D1234B2B4A13602B4A45
:1001500013602B4B02E000221A600433294A9342B9
:10016000F9D3254B1B6813B9244B1B6803B1FEE779
:1001700000F086F9694601A800F022F9224C234BD1
:10018000E41AA4100025AC4214DC214C214BE41AE3
:10019000A4100025AC4213DC0099019802F014F879
:1001A00005461D4C1D4BE41AA410002C0EDC2846FD
:1001B00000F0E2F8154B53F8253098470135E2E797
:1001C000144B53F8253098470135E3E7013C134BB6
:1001D00053F824309847E8E7BABADECA0000002096
:1001E0008400002000000020D45100088800002076
:1001F0007856341232547698880000202801002066
:10020000880000202C0100207803000878030008F3
:1002100078030008780300087803000878030008D2
:1002200008B5FFF773FF00BEFEE71EF0040F0CBF1A
:10023000EFF30880EFF309807146414A10472DE93A
:10024000F04182B004468846124B5E6B9F6B9D6AFC
:100250001B6B13F0020F03D00E4BDB6A002B0CDB81
:100260000D4800F0B5F8CDF800803B4632462946EF
:10027000204600F009F900BEFEE74BF6AB6100F046
:100280007DF90028ECD0034B4FF00042DA6202B057
:10029000BDE8F08100ED00E05C2B000800BEFEE749
:1002A0001EF0040F0CBFEFF30880EFF309807146D6
:1002B000244A10472DE9F04182B004468846084B95
:1002C0005E6B9F6B9D6A074800F082F8CDF8008056
:1002D0003B4632462946204600F0D6F800BEFEE7EF
:1002E00000ED00E06C2B00081EF0040F0CBFEFF3D4
:1002F0000880EFF309807146134A10472DE9F04159
:1003000082B004468846084B5E6B9F6B9D6A074827
:1003100000F05EF8CDF800803B4632462946204684
:1003200000F0B2F800BEFEE700ED00E0782B000818
:1003300000BEFEE700BEFEE700BEFEE7704700001D
:100340003F020008B5020008FD02000800BEFEE7FB
:10035000D45100080000002088000020D45100087B
:100360000000000000000000880000202C01002098
:08037000000000000000000085
:10037800FEE7000008B503460C4A12685AB10B4A5A
:100388001068033323F003030344094A934206D851
:10039800064A136008BD054A06491160EFE701F0F7
:1003A8001BFF0C2303604FF0FF30F3E78C000020A5
:1003B800004C00202C01002001230360014B0B603E
:1003C800704700BF040000200FB400B583B004AB31
:1003D80053F8042B01938021064801F02FFF0028D1
:1003E80003DD0146034800F037F803B05DF804EB7D
:1003F80004B07047940000202DE9F04385B004460E
:100408000F4643560BB10E461EE0042528462146EA
:10041800ABBE0446384605B0BDE8F08314F9011BAD
:1004280004AA1A4402F8101C0133AB42F6D304AAFA
:100438001344002203F8102C4FF00408E946404604
:100448004946ABBE8046761B002EE3D03546102EBB
:1004580028BF10250023E8E708B5FFF7CDFF08BD42
:1004680008B500F0FDF8024A024B9A6008BD00BFCB
:100478000000000800ED00E008B500F019F908BD1B
:10048800F8B504460D4617461E462748FFF79CFF59
:1004980021682648FFF798FF61682548FFF794FF11
:1004A800A1682448FFF790FFE1682348FFF78CFF15
:1004B80021692248FFF788FF61692148FFF784FF17
:1004C800A1692048FFF780FFE1691F48FFF77CFF1B
:1004D8001E48FFF779FF29461D48FFF775FF1D4C99
:1004E800E16A1D48FFF770FF216B1C48FFF76CFF9E
:1004F800E16B1B48FFF768FF15F0800F0AD115F470
:10050800004F0CD11748FFF75FFF06991648FFF711
:100518005BFFF8BD39461548FFF756FFEFE7314650
:100528001348FFF751FFEDE7402A0008502A00085A
:10053800602A0008702A0008802A0008902A00080B
:10054800A02A0008B02A0008C02A0008D02A0008FB
:10055800DC2A000800ED00E0EC2A0008FC2A00086C
:100568000C2B00083C2B0008442B00081C2B00080F
:100578002C2B000883691A888A4201D00020704712
:100588000268033A012A03D80233836101207047C5
:100598000020704782B00023019300932C4A13680F
:1005A80043F4803313602A4B1B6803F40033009331
:1005B800019B01330193009B1BB9019BB3F5A06F0D
:1005C800F1D1234B1B6813F4003F06D0012300939D
:1005D800009B012B04D002B0704700230093F7E77B
:1005E8001C4B1A6842F010021A601A6822F00302C3
:1005F8001A601A6842F002021A60A3F580535A681A
:100608005A605A685A605A6842F480625A605A6856
:1006180022F47C125A605A6842F4E8125A601A6846
:1006280042F080721A600A4B1B6813F0007FFAD000
:10063800074B5A6822F003025A605A6842F00202D5
:100648005A60034B5B6803F00C03082BF9D1C2E72F
:10065800001002400020024008B5FFF79BFF08BDCC
:1006680008B5104B1A6842F001021A6059680E4A20
:100678000A405A601A6822F0847222F480321A60A2
:100688001A6822F480221A605A6822F4FE025A601C
:100698004FF41F029A60FFF7DFFF044B4FF0006230
:1006A8009A6008BD001002400000FFF800ED00E06D
:1006B8001F4B5B6803F00C03042B15D0082B17D0D5
:1006C8001BB11C4B1C4A1A6002E01A4B1A4A1A60EA
:1006D800174B5B68C3F30313184AD35CDAB21549A6
:1006E8000B68D3400B607047124B134A1A60EFE750
:1006F8000F4A53685268C3F38343023312F4803FAE
:100708000AD00B4A526812F4003F0BD00C4A02FB85
:1007180003F3084A1360DBE7094A02FB03F3054ABF
:100728001360D5E7044A02FB03F3024A1360CFE7DC
:10073800001002401C00002000127A000C0000206B
:1007480000093D0038B5264C2368264DEA5C02F0C6
:1007580001020021084601F0B3FC2368EA5CC2F3F9
:1007680040020121002001F0ABFC2368EA5CC2F3DF
:1007780080020221002001F0A3FC2368EA5CC2F396
:10078800C0020321002001F09BFC2368EA5CC2F34D
:1007980000120421002001F093FC2368EA5CC2F3F4
:1007A80040120521002001F08BFC2368EA5CC2F3AB
:1007B80080120621002001F083FC2368EA5CD2093C
:1007C8000721002001F07CFC2368013323602268A4
:1007D80042F218639A4200D038BD00222260FBE73B
:1007E80014010020882B000808B5032301220021EA
:1007F800084601F04CFC032301221146002001F0B9
:1008080046FC032301220221002001F040FC0323BF
:1008180001221946002001F03AFC03230122042199
:10082800002001F034FC032301220521002001F0FF
:100838002EFC032301220621002001F028FC0323BB
:1008480001220721002001F022FC01F0A7FC08BDCD
:1008580008B5034801F09CFC7D2001F0A5FC08BD0B
:100868004D07000870B49DF80C409DF810500328FF
:1008780041D8DFE810F004005C00C8003501E9B198
:1008880001293AD0022936D1B2490E68012000FA6E
:1008980002F226EA02020A600A6800FA03F322EA70
:1008A80003030B600B6800FA04F423EA04040C60E9
:1008B8000B6800FA05F51D430D601CE001F180414D
:1008C80001F584310E68012000FA02F226EA0202DC
:1008D8000A600A6800FA03F322EA03030B600B6854
:1008E80000FA04F423EA04040C600B6800FA05F526
:1008F80023EA05050D6070BC704796490E68012013
:1009080000FA02F226EA02020A600A6800FA03F311
:1009180022EA03030B600B6800FA04F41C430C6022
:100928000B6800FA05F523EA05050D60E3E70329DE
:100938001DD0042935D005294CD00629DBD185499D
:100948000E68012000FA02F232430A600A6800FACF
:1009580003F322EA03030B600B6800FA04F41C4358
:100968000C600B6800FA05F51D430D60C3E7794973
:100978000E68012000FA02F232430A600A6800FA9F
:1009880003F322EA03030B600B6800FA04F423EA7A
:1009980004040C600B6800FA05F523EA05050D60F0
:1009A800A9E76C490E68012000FA02F232430A6096
:1009B8000A6800FA03F322EA03030B600B6800FAE3
:1009C80004F41C430C600B6800FA05F523EA0505DE
:1009D8000D6090E75F490E68012000FA02F2324389
:1009E8000A600A6800FA03F322EA03030B600B6843
:1009F80000FA04F423EA04040C600B6800FA05F515
:100A08001D430D6077E703291ED0042936D0052938
:100A18004DD006297FF46FAF4E490E68012000FAC9
:100A280002F226EA02020A600A6800FA03F3134394
:100A38000B600B6800FA04F41C430C600B6800FAA6
:100A480005F51D430D6056E742490E68012000FA7E
:100A580002F226EA02020A600A6800FA03F3134364
:100A68000B600B6800FA04F423EA04040C600B68BA
:100A780000FA05F523EA05050D603CE735490E68DF
:100A8800012000FA02F226EA02020A600A6800FA65
:100A980003F313430B600B6800FA04F41C430C6067
:100AA8000B6800FA05F523EA05050D6023E72949D7
:100AB8000E68012000FA02F226EA02020A600A68B9
:100AC80000FA03F313430B600B6800FA04F423EAFB
:100AD80004040C600B6800FA05F51D430D600AE775
:100AE80003291DD0042937D005294DD006297FF4C4
:100AF80002AF18490E68012000FA02F232430A6078
:100B08000A6800FA03F313430B600B6800FA04F455
:100B18001C430C600B6800FA05F51D430D60EAE6FE
:100B28000C490E68012000FA02F232430A600A6892
:100B380000FA03F313430B600B6800FA04F423EA8A
:100B480004040C600B6800FA05F523EA05050D603E
:100B5800D1E600BF0008014017490E68012000FADD
:100B680002F232430A600A6800FA03F313430B6087
:100B78000B6800FA04F41C430C600B6800FA05F5D6
:100B880023EA05050D60B6E60B490E68012000FA58
:100B980002F232430A600A6800FA03F313430B6057
:100BA8000B6800FA04F423EA04040C600B6800FAEA
:100BB80005F51D430D609EE60008014070B49DF8E0
:100BC8000C409DF81050032841D8DFE810F00400CD
:100BD8005C00C8003501E9B101293AD0022936D1B3
:100BE800B2494E68012000FA02F226EA02024A607F
:100BF8004A6800FA03F322EA03034B604B6800FAE1
:100C080004F423EA04044C604B6800FA05F51D431C
:100C18004D601CE001F1804101F584314E680120EE
:100C280000FA02F226EA02024A604A6800FA03F36E
:100C380022EA03034B604B6800FA04F423EA040435
:100C48004C604B6800FA05F523EA05054D6070BC59
:100C5800704796494E68012000FA02F226EA02021D
:100C68004A604A6800FA03F322EA03034B604B68C0
:100C780000FA04F41C434C604B6800FA05F523EABB
:100C880005054D60E3E703291DD0042935D0052962
:100C98004CD00629DBD185494E68012000FA02F2C2
:100CA80032434A604A6800FA03F322EA03034B60BE
:100CB8004B6800FA04F41C434C604B6800FA05F5D5
:100CC8001D434D60C3E779494E68012000FA02F2DE
:100CD80032434A604A6800FA03F322EA03034B608E
:100CE8004B6800FA04F423EA04044C604B6800FAE9
:100CF80005F523EA05054D60A9E76C494E68012012
:100D080000FA02F232434A604A6800FA03F322EA20
:100D180003034B604B6800FA04F41C434C604B68B7
:100D280000FA05F523EA05054D6090E75F494E682E
:100D3800012000FA02F232434A604A6800FA03F3DB
:100D480022EA03034B604B6800FA04F423EA040424
:100D58004C604B6800FA05F51D434D6077E70329A1
:100D68001ED0042936D005294DD006297FF46FAF4F
:100D78004E494E68012000FA02F226EA02024A6051
:100D88004A6800FA03F313434B604B6800FA04F413
:100D98001C434C604B6800FA05F51D434D6056E74F
:100DA80042494E68012000FA02F226EA02024A602D
:100DB8004A6800FA03F313434B604B6800FA04F4E3
:100DC80023EA04044C604B6800FA05F523EA05059C
:100DD8004D603CE735494E68012000FA02F226EAE8
:100DE80002024A604A6800FA03F313434B604B68F7
:100DF80000FA04F41C434C604B6800FA05F523EA3A
:100E080005054D6023E729494E68012000FA02F2E2
:100E180026EA02024A604A6800FA03F313434B6069
:100E28004B6800FA04F423EA04044C604B6800FAA7
:100E380005F51D434D600AE703291DD0042937D065
:100E480005294DD006297FF402AF18494E680120C4
:100E580000FA02F232434A604A6800FA03F3134385
:100E68004B604B6800FA04F41C434C604B6800FA72
:100E780005F51D434D60EAE60C494E68012000FA6D
:100E880002F232434A604A6800FA03F313434B60A4
:100E98004B6800FA04F423EA04044C604B6800FA37
:100EA80005F523EA05054D60D1E600BF00080140BD
:100EB80017494E68012000FA02F232434A604A6834
:100EC80000FA03F313434B604B6800FA04F41C4325
:100ED8004C604B6800FA05F523EA05054D60B6E657
:100EE8000B494E68012000FA02F232434A604A6810
:100EF80000FA03F313434B604B6800FA04F423EA47
:100F080004044C604B6800FA05F51D434D609EE6ED
:100F18000008014010B582B00C4611460F2812D8BF
:100F2800DFE800F008131D27313B454F59636D7703
:100F3800818B959F032301930223009301230022B1
:100F48002046FFF78FFC02B010BD0723019306234C
:100F58000093052304222046FFF784FCF3E70B23C4
:100F680001930A230093092308222046FFF77AFCFD
:100F7800E9E70F2301930E2300930D230C2220464B
:100F8800FFF770FCDFE7132301931223009311236B
:100F980010222046FFF766FCD5E717230193162396
:100FA8000093152314222046FFF75CFCCBE71B2394
:100FB80001931A230093192318222046FFF752FCA5
:100FC800C1E71F2301931E2300931D231C222046E3
:100FD800FFF748FCB7E7032301930223009301239B
:100FE80000222046FFF7EAFDADE707230193062319
:100FF8000093052304222046FFF7E0FDA3E70B2317
:1010080001930A230093092308222046FFF7D6FDFF
:1010180099E70F2301930E2300930D230C222046FA
:10102800FFF7CCFD8FE713230193122300931123BD
:1010380010222046FFF7C2FD85E7172301931623E8
:101048000093152314222046FFF7B8FD7BE71B23E6
:1010580001931A230093192318222046FFF7AEFDA7
:1010680071E71F2301931E2300931D231C22204692
:10107800FFF7A4FD67E7000070B49DF80C409DF8E9
:10108800105003283ED8DFE810F004005900C500CE
:101098003201E9B1012937D0022933D1B0490E68AC
:1010A800012000FA02F226EA02020A600A6800FA3F
:1010B80003F322EA03030B600B6800FA04F423EA43
:1010C80004040C600B6800FA05F51D430D6019E077
:1010D800A3490E68012000FA02F226EA02020A6019
:1010E8000A6800FA03F322EA03030B600B6800FAAC
:1010F80004F423EA04040C600B6800FA05F523EAFB
:1011080005050D6070BC704795490E68012000FA0E
:1011180002F226EA02020A600A6800FA03F322EAE7
:1011280003030B600B6800FA04F41C430C600B68A3
:1011380000FA05F523EA05050D60E3E703291DD04C
:10114800042935D005294CD00629DBD184490E68FD
:10115800012000FA02F232430A600A6800FA03F337
:1011680022EA03030B600B6800FA04F41C430C60CA
:101178000B6800FA05F51D430D60C3E778490E6852
:10118800012000FA02F232430A600A6800FA03F307
:1011980022EA03030B600B6800FA04F423EA040450
:1011A8000C600B6800FA05F523EA05050D60A9E750
:1011B8006B490E68012000FA02F232430A600A689D
:1011C80000FA03F322EA03030B600B6800FA04F445
:1011D8001C430C600B6800FA05F523EA05050D6051
:1011E80090E75F490E68012000FA02F232430A6074
:1011F8000A6800FA03F322EA03030B600B6800FA9B
:1012080004F423EA04040C600B6800FA05F51D4396
:101218000D6077E703291ED0042936D005294DD063
:1012280006297FF46FAF4E490E68012000FA02F2DA
:1012380026EA02020A600A6800FA03F313430B6005
:101248000B6800FA04F41C430C600B6800FA05F5FF
:101258001D430D6056E742490E68012000FA02F26C
:1012680026EA02020A600A6800FA03F313430B60D5
:101278000B6800FA04F423EA04040C600B6800FA13
:1012880005F523EA05050D603CE735490E680120A0
:1012980000FA02F226EA02020A600A6800FA03F378
:1012A80013430B600B6800FA04F41C430C600B68D2
:1012B80000FA05F523EA05050D6023E728490E68BD
:1012C800012000FA02F226EA02020A600A6800FA1D
:1012D80003F313430B600B6800FA04F423EA0404D5
:1012E8000C600B6800FA05F51D430D600AE7032939
:1012F8001DD0042936D005294CD006297FF402AF29
:1013080017490E68012000FA02F232430A600A689F
:1013180000FA03F313430B600B6800FA04F41C4350
:101328000C600B6800FA05F51D430D60EAE60C49F0
:101338000E68012000FA02F232430A600A6800FAD5
:1013480003F313430B600B6800FA04F423EA040464
:101358000C600B6800FA05F523EA05050D60D1E677
:10136800000C014017490E68012000FA02F23243CE
:101378000A600A6800FA03F313430B600B6800FA6B
:1013880004F41C430C600B6800FA05F523EA050514
:101398000D60B7E60B490E68012000FA02F23243ED
:1013A8000A600A6800FA03F313430B600B6800FA3B
:1013B80004F423EA04040C600B6800FA05F51D43E5
:1013C8000D609FE6000C014070B49DF80C409DF83C
:1013D800105003283ED8DFE810F004005900C5007B
:1013E8003201E9B1012937D0022933D1B0494E6819
:1013F800012000FA02F226EA02024A604A6800FA6C
:1014080003F322EA03034B604B6800FA04F423EA6F
:1014180004044C604B6800FA05F51D434D6019E063
:10142800A3494E68012000FA02F226EA02024A6045
:101438004A6800FA03F322EA03034B604B6800FA98
:1014480004F423EA04044C604B6800FA05F523EA27
:1014580005054D6070BC704795494E68012000FA3B
:1014680002F226EA02024A604A6800FA03F322EA14
:1014780003034B604B6800FA04F41C434C604B6850
:1014880000FA05F523EA05054D60E3E703291DD0B9
:10149800042935D005294CD00629DBD184494E686A
:1014A800012000FA02F232434A604A6800FA03F364
:1014B80022EA03034B604B6800FA04F41C434C60B7
:1014C8004B6800FA05F51D434D60C3E778494E683F
:1014D800012000FA02F232434A604A6800FA03F334
:1014E80022EA03034B604B6800FA04F423EA04047D
:1014F8004C604B6800FA05F523EA05054D60A9E73D
:101508006B494E68012000FA02F232434A604A6889
:1015180000FA03F322EA03034B604B6800FA04F471
:101528001C434C604B6800FA05F523EA05054D603D
:1015380090E75F494E68012000FA02F232434A60A0
:101548004A6800FA03F322EA03034B604B6800FA87
:1015580004F423EA04044C604B6800FA05F51D43C3
:101568004D6077E703291ED0042936D005294DD0D0
:1015780006297FF46FAF4E494E68012000FA02F247
:1015880026EA02024A604A6800FA03F313434B60F2
:101598004B6800FA04F41C434C604B6800FA05F5EC
:1015A8001D434D6056E742494E68012000FA02F299
:1015B80026EA02024A604A6800FA03F313434B60C2
:1015C8004B6800FA04F423EA04044C604B6800FA00
:1015D80005F523EA05054D603CE735494E680120CD
:1015E80000FA02F226EA02024A604A6800FA03F3A5
:1015F80013434B604B6800FA04F41C434C604B687F
:1016080000FA05F523EA05054D6023E728494E68E9
:10161800012000FA02F226EA02024A604A6800FA49
:1016280003F313434B604B6800FA04F423EA040401
:101638004C604B6800FA05F51D434D600AE7032925
:101648001DD0042936D005294CD006297FF402AFD5
:1016580017494E68012000FA02F232434A604A688C
:1016680000FA03F313434B604B6800FA04F41C437D
:101678004C604B6800FA05F51D434D60EAE60C49DD
:101688004E68012000FA02F232434A604A6800FAC2
:1016980003F313434B604B6800FA04F423EA040491
:1016A8004C604B6800FA05F523EA05054D60D1E664
:1016B800000C014017494E68012000FA02F232433B
:1016C8004A604A6800FA03F313434B604B6800FA18
:1016D80004F41C434C604B6800FA05F523EA050541
:1016E8004D60B7E60B494E68012000FA02F232431A
:1016F8004A604A6800FA03F313434B604B6800FAE8
:1017080004F423EA04044C604B6800FA05F51D4311
:101718004D609FE6000C014010B582B00C461146A2
:101728000F2812D8DFE800F008131D27313B454F7A
:1017380059636D77818B959F03230193022300934F
:10174800012300222046FFF797FC02B010BD0723B3
:10175800019306230093052304222046FFF78CFCFF
:10176800F3E70B2301930A23009309230822204659
:10177800FFF782FCE9E70F2301930E2300930D2363
:101788000C222046FFF778FCDFE71323019312238E
:101798000093112310222046FFF76EFCD5E717238C
:1017A800019316230093152314222046FFF764FCA7
:1017B800CBE71B2301931A230093192318222046F1
:1017C800FFF75AFCC1E71F2301931E2300931D2333
:1017D8001C222046FFF750FCB7E70323019302239E
:1017E8000093012300222046FFF7EEFDADE7072313
:1017F800019306230093052304222046FFF7E4FD06
:10180800A3E70B2301930A23009309230822204608
:10181800FFF7DAFD99E70F2301930E2300930D23B9
:101828000C222046FFF7D0FD8FE7132301931223E4
:101838000093112310222046FFF7C6FD85E71723E2
:10184800019316230093152314222046FFF7BCFDAD
:101858007BE71B2301931A230093192318222046A0
:10186800FFF7B2FD71E71F2301931E2300931D2389
:101878001C222046FFF7A8FD67E7000070B49DF81A
:101888000C409DF81050032841D8DFE810F0040000
:101898005C00C8003501E9B101293AD0022936D1E6
:1018A800B2490E68012000FA02F226EA02020A6032
:1018B8000A6800FA03F322EA03030B600B6800FAD4
:1018C80004F423EA04040C600B6800FA05F51D43D0
:1018D8000D601CE001F1804101F588310E6801209E
:1018E80000FA02F226EA02020A600A6800FA03F322
:1018F80022EA03030B600B6800FA04F423EA0404E9
:101908000C600B6800FA05F523EA05050D6070BC4C
:10191800704796490E68012000FA02F226EA020290
:101928000A600A6800FA03F322EA03030B600B68F3
:1019380000FA04F41C430C600B6800FA05F523EA6E
:1019480005050D60E3E703291DD0042935D00529D5
:101958004CD00629DBD185490E68012000FA02F235
:1019680032430A600A6800FA03F322EA03030B60B1
:101978000B6800FA04F41C430C600B6800FA05F5C8
:101988001D430D60C3E779490E68012000FA02F291
:1019980032430A600A6800FA03F322EA03030B6081
:1019A8000B6800FA04F423EA04040C600B6800FADC
:1019B80005F523EA05050D60A9E76C490E680120C5
:1019C80000FA02F232430A600A6800FA03F322EAD4
:1019D80003030B600B6800FA04F41C430C600B68EB
:1019E80000FA05F523EA05050D6090E75F490E68E2
:1019F800012000FA02F232430A600A6800FA03F38F
:101A080022EA03030B600B6800FA04F423EA0404D7
:101A18000C600B6800FA05F51D430D6077E7032994
:101A28001ED0042936D005294DD006297FF46FAF82
:101A38004E490E68012000FA02F226EA02020A6004
:101A48000A6800FA03F313430B600B6800FA04F406
:101A58001C430C600B6800FA05F51D430D6056E742
:101A680042490E68012000FA02F226EA02020A60E0
:101A78000A6800FA03F313430B600B6800FA04F4D6
:101A880023EA04040C600B6800FA05F523EA05054F
:101A98000D603CE735490E68012000FA02F226EA9B
:101AA80002020A600A6800FA03F313430B600B682A
:101AB80000FA04F41C430C600B6800FA05F523EAED
:101AC80005050D6023E729490E68012000FA02F296
:101AD80026EA02020A600A6800FA03F313430B605D
:101AE8000B6800FA04F423EA04040C600B6800FA9B
:101AF80005F51D430D600AE703291DD0042937D0D9
:101B080005294DD006297FF402AF18490E68012037
:101B180000FA02F232430A600A6800FA03F3134338
:101B28000B600B6800FA04F41C430C600B6800FAA5
:101B380005F51D430D60EAE60C490E68012000FA20
:101B480002F232430A600A6800FA03F313430B6097
:101B58000B6800FA04F423EA04040C600B6800FA2A
:101B680005F523EA05050D60D1E600BF0010014028
:101B780017490E68012000FA02F232430A600A6827
:101B880000FA03F313430B600B6800FA04F41C43D8
:101B98000C600B6800FA05F523EA05050D60B6E64A
:101BA8000B490E68012000FA02F232430A600A6803
:101BB80000FA03F313430B600B6800FA04F423EAFA
:101BC80004040C600B6800FA05F51D430D609EE6E1
:101BD8000010014070B49DF80C409DF81050032887
:101BE80041D8DFE810F004005C00C8003501E9B115
:101BF80001293AD0022936D1B2494E68012000FAAB
:101C080002F226EA02024A604A6800FA03F322EA6C
:101C180003034B604B6800FA04F423EA04044C60A5
:101C28004B6800FA05F51D434D601CE001F1804149
:101C380001F588314E68012000FA02F226EA020214
:101C48004A604A6800FA03F322EA03034B604B68D0
:101C580000FA04F423EA04044C604B6800FA05F522
:101C680023EA05054D6070BC704796494E6801200F
:101C780000FA02F226EA02024A604A6800FA03F30E
:101C880022EA03034B604B6800FA04F41C434C60DF
:101C98004B6800FA05F523EA05054D60E3E70329DB
:101CA8001DD0042935D005294CD00629DBD185491A
:101CB8004E68012000FA02F232434A604A6800FA8C
:101CC80003F322EA03034B604B6800FA04F41C4355
:101CD8004C604B6800FA05F51D434D60C3E7794930
:101CE8004E68012000FA02F232434A604A6800FA5C
:101CF80003F322EA03034B604B6800FA04F423EA77
:101D080004044C604B6800FA05F523EA05054D60AC
:101D1800A9E76C494E68012000FA02F232434A6092
:101D28004A6800FA03F322EA03034B604B6800FA9F
:101D380004F41C434C604B6800FA05F523EA0505DA
:101D48004D6090E75F494E68012000FA02F2324385
:101D58004A604A6800FA03F322EA03034B604B68BF
:101D680000FA04F423EA04044C604B6800FA05F511
:101D78001D434D6077E703291ED0042936D0052975
:101D88004DD006297FF46FAF4E494E68012000FA06
:101D980002F226EA02024A604A6800FA03F3134391
:101DA8004B604B6800FA04F41C434C604B6800FA23
:101DB80005F51D434D6056E742494E68012000FA7B
:101DC80002F226EA02024A604A6800FA03F3134361
:101DD8004B604B6800FA04F423EA04044C604B6837
:101DE80000FA05F523EA05054D603CE735494E68DC
:101DF800012000FA02F226EA02024A604A6800FA62
:101E080003F313434B604B6800FA04F41C434C6023
:101E18004B6800FA05F523EA05054D6023E72949D3
:101E28004E68012000FA02F226EA02024A604A6875
:101E380000FA03F313434B604B6800FA04F423EAF7
:101E480004044C604B6800FA05F51D434D600AE731
:101E580003291DD0042937D005294DD006297FF440
:101E680002AF18494E68012000FA02F232434A6074
:101E78004A6800FA03F313434B604B6800FA04F412
:101E88001C434C604B6800FA05F51D434D60EAE6BB
:101E98000C494E68012000FA02F232434A604A684F
:101EA80000FA03F313434B604B6800FA04F423EA87
:101EB80004044C604B6800FA05F523EA05054D60FB
:101EC800D1E600BF0010014017494E68012000FA12
:101ED80002F232434A604A6800FA03F313434B6044
:101EE8004B6800FA04F41C434C604B6800FA05F593
:101EF80023EA05054D60B6E60B494E68012000FA55
:101F080002F232434A604A6800FA03F313434B6013
:101F18004B6800FA04F423EA04044C604B6800FAA6
:101F280005F51D434D609EE60010014010B582B0D6
:101F38000C4611460F2812D8DFE800F008131D27B9
:101F4800313B454F59636D77818B959F03230193EF
:101F580002230093012300222046FFF78FFC02B0E2
:101F680010BD07230193062300930523042220466E
:101F7800FFF784FCF3E70B2301930A23009309235B
:101F880008222046FFF77AFCE9E70F2301930E2386
:101F980000930D230C222046FFF770FCDFE7132384
:101FA800019312230093112310222046FFF766FCA9
:101FB800D5E71723019316230093152314222046EF
:101FC800FFF75CFCCBE71B2301931A23009319232B
:101FD80018222046FFF752FCC1E71F2301931E2356
:101FE80000931D231C222046FFF748FCB7E7032374
:101FF800019302230093012300222046FFF7EAFD04
:10200800ADE7072301930623009305230422204606
:10201800FFF7E0FDA3E70B2301930A2300930923AD
:1020280008222046FFF7D6FD99E70F2301930E23D8
:1020380000930D230C222046FFF7CCFD8FE71323D6
:10204800019312230093112310222046FFF7C2FDAB
:1020580085E717230193162300931523142220469E
:10206800FFF7B8FD7BE71B2301931A23009319237D
:1020780018222046FFF7AEFD71E71F2301931E23A8
:1020880000931D231C222046FFF7A4FD67E710B527
:102098000C461146012808D010B102280AD010BDFC
:1020A8001A462046FEF736FFF9E71A462046FFF79C
:1020B80033FBF4E71A462046FFF738FFEFE7000046
:1020C800012817D010B1022827D07047012A0AD05A
:1020D800002A2DD11A48C368012202FA01F123EA25
:1020E8000101C16070471648C36802FA01F119433B
:1020F800C1607047012A09D0D2B91248C3680122C9
:1021080002FA01F123EA0101C16070470D48C36872
:1021180002FA01F11943C1607047012A09D03AB99E
:102128000948C368012202FA01F123EA0101C160EA
:1021380070470548C36802FA01F11943C160704746
:1021480000080140000C014000100140064B1A68CD
:1021580042F400721A605A6842F001025A605A68E2
:1021680022F002025A6070470010024003498B694E
:10217800012202FA00F003438B617047001002400D
:1021880008B5024B1B68984708BD00BF2401002012
:10219800014B1860704700BF24010020014B022248
:1021A8001A60704710E000E00138044B58600022C4
:1021B8009A601A6842F001021A60704710E000E065
:1021C80008B5FFF7C3FF0220FFF7D0FFFEF70CFBAF
:1021D800FEF73EFBFEE70000014B1868704700BFA2
:1021E8002000002030B5141E05469BB0184605DABD
:1021F8008B234FF0FF302B601BB030BD4FF40273C0
:10220800ADF80C300CBF234604F1FF33029305935D
:102218004FF6FF7300910491ADF80E3002461E9BF5
:102228006946284600F072F8431CBCBF8B232B601C
:10223800002CE1D00022009B1A70DDE707B500935F
:1022480013460A46014603480068FFF7CBFF03B070
:102258005DF804FB200000202DE9F0478E688246D7
:102268009E420C469046994637D88A8912F4906F58
:1022780031D00223256809696F1A656905EB4505A0
:1022880095FBF3F509F101033B449D4238BF1D4618
:10229800530530D5294600F035FB064650B90C23C6
:1022A8004FF0FF30CAF80030A38943F04003A38100
:1022B800BDE8F0873A46216900F0B4FAA38923F40F
:1022C800906343F08003A38126613E4426604E4616
:1022D8006561ED1BA5604E4500D94E463246414624
:1022E800206800F0AAFAA36800209B1BA36023685B
:1022F8001E442660DCE72A4600F05EFB06460028FE
:10230800E2D12169504600F0B1FAC8E72DE9F04F53
:102318009DB003938B8980461D060C4616460FD543
:102328000B696BB9402100F0EDFA2060206128B9F3
:102338000C23C8F800304FF0FF30C7E0402363613A
:102348000023099320238DF8293030234FF0010B07
:102358008DF82A3037463D4615F8013B0BB1252B41
:102368003ED1B7EB060A0BD05346324621464046CB
:10237800FFF772FF013000F0A480099B53440993D2
:102388003B78002B00F09D8000234FF0FF32CDE911
:102398000523049307938DF853301A932F4605228B
:1023A80017F8011B4F4800F02FFA049BD0B9D90643
:1023B80044BF20228DF853201A0744BF2B228DF8E2
:1023C80053202A782A2A15D02F4600200A25079A52
:1023D800394611F8013B303B092B4DD9B8B10FE014
:1023E8002F46B8E73F4A3D46801A0BFA00F01843DB
:1023F8000490D3E7039A111D12680391002A01DBA8
:10240800079204E0524243F00203079204933B7898
:102418002E2B0CD17B782A2B33D1039B02371A1D24
:102428001B680392002BB8BF4FF0FF3305932E4D66
:1024380003223978284600F0E7F938B14023401BD9
:1024480003FA00F0049B013703430493397806220A
:1024580026487E1C8DF8281000F0D6F9002838D0C0
:10246800234B13BB039B073323F007030833039362
:10247800099B4B4409936DE705FB023201200F4687
:10248800A6E700230A25194601370593384610F8B0
:10249800012B303A092A03D9002BC8D00591C6E789
:1024A80005FB012101230746F0E703AB0093224611
:1024B800104B04A94046AFF30080B0F1FF3F8146BE
:1024C800D6D1A3895B063FF536AF09981DB0BDE8A4
:1024D800F08F03AB00932246064B04A9404600F058
:1024E80081F8EAE7A0510008A6510008AA5100089F
:1024F80000000000612200082DE9F04791461F46C0
:102508008A680B6906469342B8BF1346C9F800307B
:1025180091F843200C46DDF8208012B10133C9F848
:1025280000302368990642BFD9F800300233C9F851
:102538000030256815F0060507D104F1190AE3688B
:10254800D9F800209B1AAB4229DC94F84330226862
:10255800003318BF012392062ED404F143023946F2
:102568003046C047013021D02368E56803F00603F0
:10257800042B18BF0025D9F800204FF0000908BF28
:10258800AD1AA368226908BF25EAE5759342C4BF5E
:102598009B1AED181A344D451AD1002008E0012382
:1025A800524639463046C047013003D14FF0FF301C
:1025B800BDE8F0870135C2E73020E11881F8430013
:1025C8005A1C94F845102244023382F84310C4E799
:1025D8000123224639463046C0470130E6D009F18A
:1025E8000109D8E72DE9F04301F1430C0C46097EB7
:1025F80085B06E291746064698460C9A00F0B380B7
:1026080022D8632936D00AD8002900F0B980582981
:1026180000F0838004F1420584F8421032E0642916
:1026280001D06929F6D120681368050603F1040171
:102638002AD51B681160002B03DA2D225B4284F82F
:1026480043206F480A2239E0732900F09D8008D89A
:102658006F2920D07029DDD1236843F0200323603F
:1026680003E0752917D07829D4D17823654884F8F0
:10267800453055E0136804F14205191D1B681160C7
:1026880084F8423001238CE01B6810F0400F116081
:1026980018BF1BB2CFE713682568181D10602806FD
:1026A80001D51B6802E06806FBD51B886F2914BF9B
:1026B8000A2208225248002184F843106568002D38
:1026C800A560C0F29580216821F004012160002BEB
:1026D8003DD1002D40F08E806546082A0BD1236835
:1026E800DB0708D5236962689A42DEBF302305F804
:1026F800013C05F1FF35ACEB05032361CDF8008003
:102708003B4603AA21463046FFF7F6FE01304DD17D
:102718004FF0FF3005B0BDE8F083394884F8451024
:10272800136821681D1D1B6815600A060BD5CA07AA
:1027380044BF41F0200121601BB9226822F0200229
:1027480022601022B7E74D0648BF9BB2EFE7654607
:10275800B3FBF2F102FB1133C35C05F8013D0B46F4
:102768000029F5D1B9E713682568181D616910605B
:1027780028061B6801D5196002E06A06FBD5198096
:10278800002365462361B9E71368191D11601D68A8
:1027980062680021284600F037F808B1401B6060E5
:1027A80063682361002384F84330A7E723692A4636
:1027B80039463046C0470130AAD023689B0713D456
:1027C800E068039B9842B8BF1846A3E701234A462E
:1027D80039463046C04701309AD00135E368039A3C
:1027E8009B1AAB42F2DCEBE7002504F11909F5E787
:1027F800002BACD1037804F1420584F842306CE731
:10280800B1510008C251000810B5C9B20244904243
:10281800034601D1002303E01C7801308C42F6D135
:10282800184610BD10B5431E0A44914200D110BD90
:1028380011F8014B03F8014FF7E7884210B501EB97
:10284800020307D8421E99420AD011F8014B02F838
:10285800014FF8E78342F5D98118D21AD34200D143
:1028680010BD13F8014D01F8014DF7E738B50546DD
:10287800002943D051F8043C0C1F002BB8BFE418C2
:1028880000F0D0F81E4A1368104633B9636014602C
:102898002846BDE8384000F0C6B8A3420BD92168E5
:1028A8006218934201BF1A685B685218226063601D
:1028B8000460EDE713465A680AB1A242FAD91968CA
:1028C8005818A0420BD12068014458188242196058
:1028D800DED110685268014419605A60D8E702D9FD
:1028E8000C232B60D4E7206821188A4201BF1168A5
:1028F80052680918216062605C60C9E738BD00BF92
:102908001801002070B5CD1C25F0030508350C2DE5
:1029180038BF0C25002D064601DBA94203D90C233C
:102928003360002070BD00F07DF8214A146821460C
:1029380091B9204C23681BB9304600F063F8206039
:102948002946304600F05EF8431C24D10C2330465B
:10295800336000F068F8E4E70B685B1B18D40B2BB6
:102968000FD90B60CC18CD50304600F05CF804F15C
:102978000B00231D20F00700C31AD3D05A42E2509F
:10298800D0E74B688C4216BF636013600C46EBE7D8
:102998000C464968CCE7C41C24F00304A04205D0C7
:1029A800211A304600F02EF80130CFD02560DBE741
:1029B800180100201C010020F8B5074614460E46F1
:1029C80021B9BDE8F8401146FFF79CBF22B9FFF7CF
:1029D8004DFF25462846F8BD00F026F8A0420FD244
:1029E80021463846FFF78EFF05460028F2D03146CB
:1029F8002246FFF717FF31463846FFF737FFE9E76A
:102A08003546E7E738B50023054C054608462360F8
:102A1800FDF7B0FC431C02D1236803B12B6038BD1D
:102A2800200100207047704751F8043C181F002B04
:102A3800BCBF0B58C0187047537461636B20667233
:102A4800616D653A0A000000205230203D202025A3
:102A58003038580A00000000205231203D2020253F
:102A68003038580A00000000205232203D2020252E
:102A78003038580A00000000205233203D2020251D
:102A88003038580A0000000020523132203D2025FD
:102A98003038580A00000000204C52203D202025E4
:102AA8003038580A00000000205043203D202025DF
:102AB8003038580A0000000020505352203D20258D
:102AC8003038580A000000004653522F4641523A07
:102AD8000A0000002043465352203D20202530386C
:102AE800580A00002048465352203D2020253038FF
:102AF800580A00002044465352203D2020253038F3
:102B0800580A00002041465352203D2020253038E5
:102B1800580A0000204D4D464152203D20253038AE
:102B2800580A00002042464152203D2020253038D6
:102B3800580A00004D6973630A000000204C522FA8
:102B48004558435F52455455524E3D20253038581C
:102B58000A0000005B486172644661756C745D0A26
:102B6800000000005B4275734661756C745D0A0075
:102B78005B55736167654661756C745D0A0000009A
:102B88006337394E66729394AB896A4D484D6396A4
:102B9800B1E0C4B99880697E9F9DA2A29C7A7652C2
:102BA8006D87868F8398B3B7A19DA7B6BDAB9CA050
:102BB8008F4132415F7D869486642E31181F4543CC
:102BC8003043503038414560706C6F7477689CB8FA
:102BD8009E89AD9E78754F7B8F8EA2B5B2AC8874F6
:102BE8009D9E968385847B847F9F9E938E8087811C
:102BF800ACB7C8CDA89373615663677583827A8032
:102C080071656C6D7042294E532F2741617690583B
:102C18002B38406188A3ACAB98A08C806A69729409
:102C2800A7767D8B9BB6DACEB898AAB7A29C889176
:102C3800AACCC4CAB8B2ADA5C4A9A7D1E1E8D9AC99
:102C4800AF9A755F59686DAEAA89704D5C797D58E9
:102C58002A25321511161852895D35221E285DA0C5
:102C6800885F598488562E2624708B7E7C62768AEB
:102C78008B8D73515844445D6A656F6F838E81866E
:102C8800AECCB4A7ADD2F7E4C0ACA4C3A09FBFD765
:102C9800CFCAC5B5BD9FA5B49E7F7E707278847576
:102CA8006A5979AAAC8F76808CA072888E69411F88
:102CB80035525E6B696E766B6C5D604C2338453CB3
:102CC8004F2735362F527393887C7074584F62851E
:102CD8009B957A666A8A9796A8A1CCBEACC0BFCCF1
:102CE800B6A1A8A8A3AA9A8C8E8B91BDD6CAC5B343
:102CF800AFA8A7A49EAB9E928A88928180989C9A3E
:102D08009681736D5F625A464346382D33212145BB
:102D18005A585933234C616D73795D342F2C3958C7
:102D280071969A82768799896E58567EA276666ED3
:102D3800779BAF97818B9CA4929483A5D1CEB48FB7
:102D4800878DA5B3C1AEB7C7B7C1C8CEBCAFB3AC4A
:102D58009C918276757399AAADB09481798BA2946F
:102D68009B8D8285696C7598A1AE976C78838E8DE2
:102D7800887C6C67735B463D2E2F423F4F626460D0
:102D880058645C616267696F6351524F52647A7824
:102D9800707976625B56545652506040334055679E
:102DA800656F79948A716A7E9BACB09393B2A19057
:102DB800989AACB4A4B0D2C09DA5ABAF9B8D9EA78A
:102DC800A98A9AB7A2A3A5A5B1AEB2BEBFA8918998
:102DD80094A79F9097A3948990A3BBB99C9C928138
:102DE8006D545D616D62677C6E4C5F746F735E6D70
:102DF8007364554858657A6B4D474B5C5D618F9697
:102E0800776F565A74735D59595B4A5158496781AF
:102E1800846D7B7B778A8A988B68707878777294D0
:102E28009DA3AAA9916E6A7171868673644A5E6BC6
:102E3800748693756B737079788B99B5A4918C8B24
:102E480092869AA3AD9E9BA8B2A89BAD9899998C9F
:102E580086808E918F7274888B8887A0A5A3978BA4
:102E68008E959BA39A8D98939291969A96A5AAABC4
:102E780095848278847D746E6455544E4D5D5F6D83
:102E88006C6F676458666D676E6C786C7C76766B71
:102E98005F7170736F78655167726A6A67666456A6
:102EA8004D505961575964728481857D8180787E3F
:102EB8007E8887777B867B7E857F8181808A918BE0
:102EC8008F8B8986807C656C747C8384939A99A0A7
:102ED800B4B0AEB1B1A5A4AD9EA3A29DA1A2939991
:102EE800A49B98968D7D777A8C877D7E7E7E817F68
:102EF8008C969A9D8C8F8491919693959E89816FDB
:102F080078726A717C787E776C7B69667073645AB4
:102F180051575A626D5C5C68686365636460778A60
:102F28007A6E6362716F6E908A86857A867F807406
:102F380070736269756E737D808A857F87858884E2
:102F48007F8481807C736C6A5C637D7D7F807E7208
:102F58007287887F77777B7E817F838B8982877B67
:102F68007773718489948A8A959E978A8889969AB4
:102F7800A496909BA09E9DA69C9C9199AEA6B5995F
:102F880094987B7C787D7F8D8D8F8C84929096A091
:102F9800A69D878B87888B838D857D856D586C76FC
:102FA8007C747D847370735A6A7D7C8D826E4D4506
:102FB80046545E556C7E787B6F70777A7D857E7817
:102FC8007A7E897F8071634E708A76676C7F5E5DDA
:102FD8007D6A6E7166594F6C6E6B706C789CAC9A9A
:102FE8006C576C7C7A867F9FAE8B7B5D7492AF99B1
:102FF80067536797B7AB7A6887AFAB9A80716F747E
:103008008A8E8492B2B59B778DBEBE9C7374A6CD12
:10301800AE938AB9CFAF8778A2A9B3847A8D807A24
:10302800779D82706C6F714D587A9288715763845E
:103038009C734E696A4343818C7A39479296ACAF48
:10304800AB9051576A8586563E3354646687A4A26E
:10305800906D70937665676C7B5E48597D9F816340
:10306800677C8F8C9EACB8A87B7BA6B88F4B3E4DF7
:103078006A7F656A786B58666F52714E396C808AC0
:103088006F90928D8D6A6D675A739995A1A6A5A7C1
:103098009D8EA1B2A08C768C918A80829BA1A097EC
:1030A80089818B78728C7C899F9A8B9BB3A5998830
:1030B800979A8F685964717C6A7C8D95868A9292FA
:1030C8008890AD97836E666C7B8684736A85846C02
:1030D800667B818469638D7E6B666F5463937966C2
:1030E80077866C877D614D4A7C99936E747E76668F
:1030F8006E6F89928782718A94A58D7F7F625F63E4
:1031080078ADBCAF907E71606D769CA48B7D7B8B17
:10311800B3954E4D7AAAA99E8597A46E6191AD8606
:10312800778B8D8B8B7067737E7F5C5A79917E80ED
:10313800A97C505B46394961826C575F6E90875E07
:10314800504D3F697F7C9B9A6F4E5983807FA48B3B
:103158007C785D52667EB1AE8B7A5D628CAD998962
:103168007C81708FA7C5D38DA18A7C9196B09192EE
:10317800988D7E7CA0998696A5919A97AFB18FA2DB
:10318800A9C3B5BCB2989F7C9AA28A9E916B413A1A
:103198004D718888745954696A6E817E713B405EAE
:1031A80046446156434657665E6381845F45557D54
:1031B800554E8068492B4C7857617E7C737B6F58DD
:1031C800759B8E7A628E9F88A6BAAE8A7C7CA6B7DB
:1031D800CABAAE867F8F93B5C6C8A9826FABBFC384
:1031E800B39A7E80818D8D93A9BFBD7D8EA9AE8D4A
:1031F80084977A587DA3947DA7BA91664C67848298
:103208004F68A78C6D80828A7D4D4B68503C4F4C2F
:1032180060695B4049442960886A5C5623274943B2
:103228007677536E54555A7781727A5C6B7F877BB9
:103238006A717883876FB0BF868A676B839B9C8B24
:103248008366788F9299BBBCB5BA979BB09E7B7703
:103258006D95B499B2C2BABD878EAF9CA590937F85
:103268008D988A9F8B9AA2747089887C74769191C4
:103278008291838283816355684C4E6981846C6F27
:103288004F3D5A5C63665B676C4E79825D67654D3E
:10329800498295869689785F4F79706A81AB9E746A
:1032A8008C9A906E6A6545556F8CA599A08B9B94F6
:1032B8009CA5909E907E5485A5AEACBDC395A9995A
:1032C8007C617F91736A8FB5D5C1B0B5977D6D70FC
:1032D8006097858F8D8CAD798C806E545E8160553A
:1032E8007A757F633C61677C676F838E7E696A67E6
:1032F800773D4E485B4F3F7F737C74798150446BB8
:103308005A5B60756A7C857E927B8B666A919F9713
:10331800878FA27B6289A18D7B88948C8E9DA4C0A7
:10332800B7A28B9AB9A070849A6F638D9693B1B047
:10333800C8AFA39E83967A6A7FA899718AB79B7B48
:103348008F83766F5A6F73627566748B74769A740E
:10335800646C5C79594A86926343608976555668ED
:103368005842455D796862574C62586D5769915A61
:10337800546774838C674F59839B7175CDB5676AA1
:10338800707D6467727B77748C96C3BD9F978D9EA2
:103398009393989AA09AAB99AEC4A7AA9C89989B34
:1033A800AE967CA1B8966AA1B29181776BA0A16E06
:1033B8008398855E7C8C83838085756D8470896F26
:1033C800416A8A6C5B756B70645D6B6E4A4B4E47E5
:1033D800414456798D7F73767F4D5468454476799C
:1033E8007D9894ABA0887672735D7483887087AC7F
:1033F800949884939A767D7E8AA9898BA6A48A94C8
:10340800AD9EAC94868D858C9EA4B2A59AB19892F7
:10341800A4A88382A3838B9479A3A386A1746567E8
:10342800506E7D8792998D7A655A604F45526A72BF
:1034380073749090553F6A57274E54646253818243
:103448006C7376684D4A4D4758516A766D918C9CDD
:10345800A565769189877F99A28787A48F72979CA3
:103468007C89819297767299A387959AADA78DA446
:10347800B39F93A6A3949A99AFA09EBFB7AC8C8D27
:10348800947E60688C7D728E9F8D8D8C99885A771A
:103498006B5B706F839187798072668076614B5021
:1034A8006640326B6252564D5A5F4F51766058648F
:1034B800526E68607C6D6863737573797B837E84F4
:1034C8008D939394827E657E8B7A979A9A9EA1A219
:1034D8009789AA9D798E929B9EA1B09299A3929A60
:1034E800A0AAA2A19A91A3AC98879D8E817D8EAC4B
:1034F8009597909991808C93847781807C6D837463
:103508006B5F578262536B796B5A53646B4D4848B3
:1035180056484A5E807C6E7F7D75646264634E594E
:10352800666E68658C907574766669768692857A1B
:10353800999C7C87957C6E7F9A7F8C9196AE9696A7
:1035480099A68A8188878E7C879B92A0ABA5AABE04
:10355800A89CA69795979B8F8E7E8A9193A19A8611
:1035680083827E878B76607C74657A88827E7878A1
:1035780062616C6C7178727284757573695F56508C
:103588004D4F5B5359625D676967585C6C685F644F
:1035980078808089918F8589776F82868180888AF3
:1035A800807A808979718A8287908B8B94918891AF
:1035B8009E9E8C91A3A6A69D8D919B95929CA8A555
:1035C8009EA19F90858A8F85889287818D98928702
:1035D800747C8E7A7F90958F85726D756C5E618034
:1035E800806E7E8B6B5A6B6952465456645A56717C
:1035F800736B656D69574F4F4F616F7381837C8320
:10360800887B6C75837E68747C7C7E738A8A867EF0
:103618007A9798898E8B8D94979E9588969A95928D
:103628008D9EA09DA2ADAF9684838499B9B5ABA8B1
:10363800A09487898B8A939583A0A18689888979A4
:103648007269777A6E7A6F5F6A73617B8B81786E45
:10365800816D5F675D59667E76667168544D3A463E
:103668005B536563626A6871736E7D8864697A64A6
:103678005C797E77889D898A8D848E7E7A83928E06
:103688008587888B9D8B91988B9C8F8189878C8A65
:10369800879DA6A59BA3A297A49C859A9A94A59C6E
:1036A800A59C92A19D8A7A7F94796C7E77807965B2
:1036B8006E8079867B7773777A79766D7C777156A9
:1036C80072766E6E5E5E665A5E584A4F4C59625DFF
:1036D800717777734E79706F6F637B806F8D8A7D9A
:1036E800806F8069777F768077779F989C9594A084
:1036F800898A9F92909B889694AEA2939F8C959A64
:10370800928E899FA494AEA3A7A08D948798A5793B
:103718008E988E9598A78C85836F5B6A6874737989
:10372800767A96877675746D6B70776F7466646752
:103738006B7865616E595F5C5062675240556A6587
:103748005B6F7674797C7A6C727572767B777C7F26
:103758007075838B8E7D7B92949B8F8C89868B82F0
:103768007E8E8DA2A98AA0AFB2A0938C82858E91FD
:10377800A0A4A9B8A4A09F999C8B829099A89C9575
:10378800A8A7988B817B7479666270757B7A767747
:103798007E7F8063626A6B6C626367736F5E6D8243
:1037A8007B6550484F5A524B535C6B665764706F39
:1037B8007974686F7F81686672818275777F768990
:1037C8008D83928C93948590A0A498879296969ACC
:1037D8008E8E88909F97A0A9ACA19594988D979468
:1037E8008E9896B2AB9DA79FA19892989095857E4A
:1037F80095917C726B71676E817175726C7E707257
:103808007B827E636B81726861656A5869726A60DF
:10381800575A4E4A55596250466B7156535C696700
:103828006A7C898B81818C89868584847685918C54
:10383800847F8C8B868B8C959283898F9292989EAD
:103848008F889BA49C9194A8A59799A3A2969DA4C0
:10385800A8AEAAABAD9591A2958B878F8D7E737913
:103868007C70656C7575747683796B757E73727907
:103878006E646A717670686264696A6864665F58C3
:1038880061605A58594B4E5B5C655F5F6669737639
:103898007B919086847E817C7E7E7D8B8B919496B5
:1038A8009FA2A0A598898E85878C8F958F989C98C4
:1038B8009F8D90928C9694989D9AA3A4A0AAA3A257
:1038C800A19A9A939A9B92858387817372766B7675
:1038D8007470736C7672737A787B7B767B7B79777E
:1038E8007C8073767B6967615D5F505966665B545F
:1038F800585C5759535766595E6871807A89888928
:103908009483848C818489848781867F80928C8F3C
:1039180087808677808A8C94939799949C93939DBB
:10392800909F9E9CA59CA096929E9DA5A69C9C96C9
:10393800979C8D9C90848A7F838080837273726F3A
:10394800796D787C7681757B826F79716F7C757201
:103958006860696569696B76625D5E55616260621F
:103968005A64615E5B58646165717082877F847D8B
:103978008B93838A8F8F8B808986879389828283B2
:103988008C8A90908D9B908E9093958D8D8E8C9136
:103998009A9F9F99A39C939A9FA6A1979A9C9A9F56
:1039A8009B8E818081777B716F786B6C7273787C6A
:1039B8007C77777D747B817B7A75767A7A807C6C6C
:1039C800716E696260676A67625B5A5655585051F2
:1039D8004C53635E5E6671797C838B8D8E8D919678
:1039E800949690908A7F8A877D8184898D8786883E
:1039F8008B817980818794999895939A9FA19C9DB2
:103A0800A9A7A7ABADB1ADA3A09A9A98938C8589C5
:103A1800827D80807F7D746F6D707472767C7B7A16
:103A28007A7A7882887675797576726C6C6867654B
:103A380065626068635E5C5356565152585B5E5EC1
:103A480060666B777377787A828384889090928E99
:103A58008986857E7C807F7B7C8B8C8A93969493E9
:103A6800949293908E9094989A9DA1A59C9BA1A2C4
:103A7800A6A49694979B9A92989D97918886857EFE
:103A880077787D7A727A7A72797B7C7B75706C70C4
:103A9800756C737E807C7072787566606064696A24
:103AA8006369766E696F6161675D5A5758626E71B6
:103AB800646774737175837D8B8D8992978E8B98EB
:103AC800908589938F9192878E938D867E8586883F
:103AD80083848780877D707C7F7A838C989EA09F63
:103AE8009DADA398AEB8B5ACA4ABA49A8D848586D9
:103AF8008F7F74787174786A7069646E738985775A
:103B0800677A888E846F7377715E44545C42433A57
:103B18004F6D7779918A82866A728B6E616C76A115
:103B28008C7A98A97E381E2F2F202434597F8481BF
:103B380098A1A3836190B49FB1CBEEECC3D0D8DD3C
:103B4800CB978B94926C405F816E61706F686950FF
:103B580040716F4F6C7EB7CA9391D2DCA18191C23C
:103B6800CB9C96D0DEBB9A837A70421D73803B381B
:103B78003861551F14314E40263A72A0988DACB169
:103B88009C8CAEC8C69683ACD2A674606BAC775ECC
:103B98006170683635435F5A434B56514D5E6D5BD5
:103BA8006B5C6B7173795B5A73AEA8A2B6988793F6
:103BB8008786A3A2939B7C9B9998BAA7A095ACAF44
:103BC800B47B82927188A4AA826F5D47525D5C744F
:103BD800607B6F5483A7A099BEB2B4BA968BA696A1
:103BE8009C97ADDBC18B8397766857636763464FB5
:103BF8007F837657606B5D392041472624304533F3
:103C0800232350696757446C7C6B597BA4BFA5BCC0
:103C1800D9DAE8BBAEBDCAB99FA8CED99EA9BEB7AE
:103C2800C160526C626542486FA27775B7A88888F0
:103C38007D6A897B67747E77667488C58B598372C1
:103C480078706C6CB4D5C0B8C3DCA99E928F9E877F
:103C58007AB4D7C2ABB9CFCD98656A656D575B7436
:103C68008E916C4E54531D09221C17251712203FA4
:103C78003D404B5853261A33353047675A87A3615E
:103C8800977A798F74877F7F94BEADA4C6DBD5B34E
:103C9800A8BCB4BEA7CFEAD2BFCDEDD1DCB5BAB0CF
:103CA800A99F99A9A5A566567D9061503E576F5664
:103CB8004E626851321C5956575F4D58303739504B
:103CC800986E5481A492885B5E905A6A989DB09FC2
:103CD80061699CB1857080857C6E9BD0D4A5BFAF8F
:103CE800BADF8B93BAAA95B6CCCBDBB67E92CBA0C3
:103CF8006E9BA28E8D607D8F73746D5C79673A6060
:103D08003C3C4353695C5E2B1F4445394A433E465D
:103D1800403E475A67727A6850535864564679A2AB
:103D2800A091A79E87936F98B3B2AB8EA69D90A6DD
:103D3800ADB2E5B979A3AE9CB2AAB5B0A4B58287F5
:103D480087887176B4C0A678A89E88A78AA2D9B8B1
:103D58006B68866B6D6D6D86A1905770664E47597E
:103D68006D73483A463B4B57281F85582532706378
:103D78005872508595617680575F6B8A838F8D82E4
:103D8800858987A3998AAC718EB28B79738D957169
:103D9800A9BA8E96A48E92A1928F8DAE934CA0C292
:103DA8007AA0A08E99ACA594819D8580AFA28974D4
:103DB8007F767F9C9D6A929183797977628571621B
:103DC8007E94756B63454A595B876F696256524E9C
:103DD800563B38262F294832436851637C8F866CBE
:103DE800708686A585A1B88C899BB2B0A8A2B3AF0E
:103DF800C1A79FC4CAC5927AB7B289A9909496966A
:103E0800B1C1B2A3A4BCDB98A1B4939E9A998E8346
:103E1800A4AA6B5B837076887F5E4846506A575EBB
:103E28008277646B4C40484745657A64757E4435B3
:103E3800675855646976623F58787B85857F7C60D2
:103E480042413D4B54769791A06A477C77538A9FAD
:103E58007B8C5C697F788BB3CAC8B57E82857D7B95
:103E6800A0CFC8B5AB71737A7A8F9DA09C907986E4
:103E780091A5B4CFB5C0B894857A8AA4BAD7CFBB78
:103E8800B883788890948B9FA66668586F8784A1BA
:103E9800A194795353774D8DA88FA8958171555664
:103EA8006F74858A78694C393F4A675D71613E3F16
:103EB8001E3746394766685956594D466E585D7CD7
:103EC800655F4F43587082A79A9E9F7A707E9D9433
:103ED8008C87848E867676858E8A858B978C797F7B
:103EE80080979B99AAC9C49EA1A38F9E9988A0A1D7
:103EF8009C969D9FA48E797C86755C798B786B9156
:103F0800939FAB888E929EA3767F8A828E90979E8F
:103F1800AF9176918C8D848D80697867857E7E8E51
:103F2800867E7D80737A58616F6E89A5A981857EAA
:103F3800606A7D7B6E668584838C8C9378847372CB
:103F480081645063675553666956554D505E5D5D93
:103F58006650565B555C786157686581705B546A3A
:103F68006B62618A867081778683898A9D918C933A
:103F780082A7B4A9A3B1A8A3B2B0A1A7A9959EAFDF
:103F8800A3969A9EAA93919E9099847B8579868917
:103F98008A94958B898E8A787576777F839A93959C
:103FA8008D827E8889888481898387868F93886FAC
:103FB80076726E6E7980888C8988798573737B8038
:103FC80090856C626B63505256636B626B676D6F62
:103FD800545057575E594E5D6553617176735B4C0B
:103FE80058706A59688682707C7F6F827B697B868D
:103FF8008D7C7DA39E8F92A09495977B867F858DDF
:10400800838C9D9C9DA0A29A8A8787938D8576969E
:10401800AA99A9A0A29E9A907F7B79867C8B9B897E
:104028008F8C828679747881797A898E9D9B9A9112
:104038008780777976727F867A7D8C7F8183798A8B
:1040480081786F787E72758490908A8FA499919206
:10405800878990837B787C8081787478746C767A91
:1040680060666C6C73696D79716D64515367594BF7
:104078005E6358605D6A6E59534E6470726665740B
:10408800706671828984777778818A8186888E883C
:10409800798E9B887785898C89849193909493A352
:1040A800A39F91919B8D898D8E8391948D9AA08CDD
:1040B800857F868A8991A09B8F99A7978F9D888CE9
:1040C800868B9CA39F9D989EA59594847B7B7173FA
:1040D8007C807E79868B7B6A6C76797D7473879613
:1040E80082819191937F767779736E6D717762692A
:1040F800747B756767636C66576970605E64636834
:104108006B6763697061525E6E6D5E5C7F7D777D03
:104118007175685F5F686860717C8A858389829041
:104128008B8A959188848A93A79A97AA9F94969345
:104138008A8992828A948C90897E8190847D8781F5
:1041480070706A74887F7E8D8F8F94938990918028
:1041580091959192867E8C94878787909991958581
:104168008B8B8F95889190937E7F8C7D8D9894957D
:10417800929A9189888F848C9D856D75786A8285DD
:1041880067747C6369686972786A5F716A5D68647C
:1041980062656665615E5C5D5C626F736B7B6C4ECD
:1041A8006272585776767B7B6367717C8D806A82F2
:1041B8008B808B7F787F9992828C7B818C838B928A
:1041C8008A909D817B838585798B918D7D7C817B90
:1041D800777789838B897B89898F7F8EA392857D69
:1041E80094A1A293A0AB9C90807F86988785A5A177
:1041F800998E7F7B877E7487867370878A8F8E8D72
:104208008F918C757A8194877C959E8E716A6F796F
:104218007A7062677767675D6B7C677379786665C4
:104228006C6C6A7276767D6D70756C786B5F797E72
:104238006A5D647476757C7380755D6A706C7A7477
:104248008CA17E7787907F7186908D8B78819897E7
:104258008D84849A9178707B898C8F8D8983747111
:10426800867F767B8084826E6B797F7B788E877978
:104278007D75829E938E888B967F7680838F908EB5
:10428800968283828190817B989093968A918B8E77
:104298009394A49986938D9EA683849195957B7F0C
:1042A800827A8B827883746A6575825F678979728E
:1042B800796A747A716670836D5B5F63706A5A6A33
:1042C8007772736351636A5B5A6C6F655F627A7267
:1042D80060728072707E7A818C87859F987E818AD1
:1042E8009192888D9D9F9C918F8C998F83929D84AC
:1042F8007B878E8D787E8B9079737C82848B848685
:1043080093867275848C917C8195907E837A7F8860
:104318007A7C858D7E7B89918A827D8F8A76878853
:1043280087939196988B8F8489958B8987878D89B8
:104338008283707C887D726E746E656E7071737026
:1043480082796D776C616E6A72756D78736F72754C
:10435800716968736A6A7C767678777A75796F6935
:104368007A7872808F8F82798E918382888F868205
:104378008481878D84868E898C837E9092847E89C1
:1043880084808C847D8E80717F81837B76919581FA
:1043980081898A83888978848B8089898A8E847DBB
:1043A8008E86757F7D76828C7C80897F7C838983ED
:1043B80082858988878E8E8485998E8E957E868F54
:1043C80089818784787E7B7D837B707F806C717325
:1043D8006E76847775807E76737A78756B74786C70
:1043E8006F67696D7574646D766A68706B6D656802
:1043F800777A7A716C6B7A8174777F7C7A85888F0B
:104408008B87929299897878839187879CA38F93D9
:104418009389908B8B888A878784828B8D878A96ED
:10442800817F85797F7E8B94908C87858285858036
:104438007B867C6E817D787B7D7E7F877E70727ABD
:10444800777E848D887A8A837B82888D87918A811A
:10445800808B8B7F858788787A7D72767B7A767E6B
:104468007B7E79767C798989807176827473748190
:1044780077767C72726B68676A6B71686773736C46
:1044880062706F65707172747782868380817882BA
:10449800817E7E8290869197948F908B82828D9375
:1044A8008B918C928E83868287908D878480808082
:1044B8007B7A80848C8E89858A8583888A8985849D
:1044C800878381898387878483808482797D8885AF
:1044D8008082868685868A8B888286888488868676
:1044E800899190897F807D7476777B7278787976E8
:1044F800717079767674707B7375726D706F676B97
:1045080070756F6A6D6E706C6A6F6D6469696B71D6
:10451800686F767073797F817F7B7F8185808B95CB
:104528008287867F8788979A85878C7F7F858D8C01
:1045380082969C978B8585817F88929C999492908E
:104548008E95948D978F8F8187888D96989D8E856F
:104558007A7A838F908788897D7C787C8173767C52
:104568008187878A7570736B747D837B707186838E
:1045780084817D75667B7F6C6C76766F6A787C79D2
:1045880075736E69737A7C6F717B888D8D95897B65
:104598007979818D848D8786878C86717267798613
:1045A8008886897F6E7376717682796D7077748468
:1045B80073757E7F71676B687B6D787F7D81726EA6
:1045C8007B767D777A7F707F7E7D7D898F8C8F81EA
:1045D800756E748398A39DB5A18778749A99A6A8D7
:1045E8009F97A5A6938E7B989397AAA395828F846D
:1045F8007C87968D82889791807E818F97917B8921
:104608007E647F92745D5C789A786B5961978A6151
:10461800484F729597875C3B4280B88D5B3A799A90
:104628008E6052767E916D8A857F7E787D717385E6
:10463800B5A94C4D8B74766B748D86624B68A4CC8F
:10464800A47E7D5F5F6C7073879C89899697788D4F
:10465800ADB5927F888193725F3D72A281A7955113
:10466800244191CABB8E6F554D6E7E91AFA57C607B
:104678008090988A80848C9199A6AD875477977C8E
:10468800638095849E7B766E68A58E8F7552628C4A
:104698008C8A9D6A3E76A79682898992829FD3C228
:1046A800A77B6B56605966577EAEA08C769FA19FFC
:1046B800B0B37B60383355577FB8B98984775B3A94
:1046C800629095928A704548516F6864638EA281A2
:1046D8007E74715F5E72918E896A4B54838F6669AE
:1046E8008088847E87786679ABBE9684768FA29C14
:1046F8009193786770719EAFB485778C76828A6D56
:104708005D6F7F6E7AA8A77B5E5E597F979A937FCD
:10471800814B4D7599D0B467639B835F539E9E7799
:104728009A889881482C3F70B6C9AB764E6A6A520F
:104738006194C0B67D80BA99595458585D80A7A92C
:104748007F80696E9D6E8BA9896266958C9EA6B4E2
:10475800B2B1A157578995585BBCE3B294977FB221
:104768009779A1826E617F6B777B74734F90A26893
:1047780083A16B5A6B8F9C5E59706A807D9D91797D
:10478800865C617363769587717D95936C534F3A18
:104798004552766669A4B1BB8E9172594C3672AD9A
:1047A800AC83796E9DB0878C7E45455F5344707E9F
:1047B80072B0AA6A758672684D7AC99E81A98F6A95
:1047C80082B1BBAE88808F875059A5CAD4917862D0
:1047D8004F866F3B8CA66F5872AFB08882B9C88A73
:1047E80069706E59385087C3A67FA09C9886607FF1
:1047F800A9A28273817D85878597B09B656B52627C
:10480800907590C6BE7E6EA189554F5390B489733A
:104818005E738E6F7589998E55395B7D86736F8946
:10482800907E636F57696874977F8B61569178980B
:10483800B1919D7F73526F8859616E769E9D757890
:1048480085728E9C63748379727E96948F938E841E
:104858007F7364597D9086939482514966779279E3
:1048680067638FA87B849E9B7E85829FB5836E70CD
:104878006B82BA94807659617E916C807D7389864B
:10488800728D8280A38A847981756974817E756747
:104898006A8DA7C29F8A85808A838C8880605779B1
:1048A8009D968E848484777B656B7F816F969772E3
:1048B8006261615E8F9F8F9397847090AA786F7DF5
:1048C80074848657556484A493839A8A525D758A42
:1048D800A6A168797B56557D998F9D917B767865E1
:1048E800616D8D8F755F8B7344738586766B6852A7
:1048F80060755C7385918B826B6660668595968F13
:104908008C7D7E5E807792AFB0967D9E989B8898CE
:10491800AB98796D72977A6D94989179697176757B
:1049280081719883868667836666757D857A5E7CE5
:104938008876808397858AA1817E8497A3899196BA
:1049480098A38E7D9189887A7B7F877D6E818D8003
:104958005E94A28251667B7478667A9AA06C678EA0
:1049680099726F838E846E72627D844F71957C69B3
:104978008291828A90768E915F75827152687B8966
:104988008882807C826F9084938E686C847153795E
:1049980067738378748F764E666C745F727E8486D4
:1049A800637D916D7980738E826F85A49D8B809CC9
:1049B800B99C6B6C8F9CAC8C8A9EA3927A8E8C77F8
:1049C8007E6F7AA8A0A5969D9B8582877A7D7E605A
:1049D8007E8D715F74646B977F6A9EA69B8B91A98D
:1049E8008774807A6A81858785A4988A976F6E9282
:1049F80091607C8786806A63637E7370798E776145
:104A080080807981768B7D6A716F9D8D7E848181AE
:104A18006C6E6D6B938C788C9A915E575A59617154
:104A2800658895677C86917B687C79676763758CF8
:104A38008E7181917A706160668177756F6F707C15
:104A48007D8B92787277747E87747E83767B936E83
:104A58006A918A7D9B97888A7F878E958A8EA69E83
:104A6800796E9B967483898EA6B28889AA9E7D8961
:104A78009A836E71777C8D84718D99807D8E9C9BD5
:104A88009A828284806C658A9477818D909A918CC1
:104A98008B9583797493987A86817570726664753C
:104AA80061687D867D7179787B6B746D7577737FAE
:104AB800758D836E818C8E7E9498787D7B898370CA
:104AC8007271727F7F7575837C7B84666C7769658C
:104AD80071847C707975816962796E6C687076878B
:104AE8008173837D7C837E79816F72918F8F7C81C6
:104AF800867B89757A877E8781939F98909AA892FA
:104B08009B9582928778869091828A8C9793828DE2
:104B1800807F898E828B9F8D7578787F7B748F9844
:104B280097888B867B7570918D85726A77716A5FBD
:104B3800707D7D7B8286978978797C847172738396
:104B48008987A3BB947D7E7A75727A616C7C79675C
:104B5800718A6B626D766F6664637F92928EABB575
:104B68009D8D8A8F8E90919183807D7474766C6D03
:104B780061565A65736B60686257645F615D4A5835
:104B88006D747D7D7B7A9CA19BA3A2B2A193919722
:104B9800A188707175757C846E6F584D5B6A6A5810
:104BA800686078997C778D979F95A097ADB296931A
:104BB800AAD3D9CDB6A5848CA18E7B68564A51500C
:104BC8003F49454852525F5E828E839FC0C9DDDEF1
:104BD800A395B2BCB2B0A8928D957D5F73685767F4
:104BE800502F4F564051808C73866B426496755E89
:104BF8007164869E877AA08F98B29792ACAD88AC84
:104C0800C0C6B69F6A628261493B1F172C211B27C9
:104C18004C57545A6A7A8C7F86C7D3D39E6896BFFE
:104C2800B17667808A855F5D8CC9A77F98A6AB95AA
:104C38008794B5BF86372B595A2D1A1E2F3220203C
:104C4800467F918D8FA0B2B59DA0D7F1DB9899D200
:104C5800D3A69699A4C9A78696C2CEAFAD9EA5A79E
:104C68007C6C8EA5741D2156542F090E273E2313E4
:104C780039818061676687826E7DC7DC90617FB00D
:104C8800A3696986B0BD8E95DBF9CAA7B7D7BE837D
:104C980071B9E3AC5C5E9D9A5F3F41769831328F83
:104CA800A8896B86ABAE674E86B5A44B3F79883E24
:104CB80021537281716280C9B280A2CCC0906E8289
:104CC800ACA67A5E7C9E7D3D42747044355A8372F0
:104CD80058516A6B4129427C76371C3C55311C245B
:104CE8003B613E286BA79279708BA9794760A7AB87
:104CF800776281B8A4737C97ABA698A7CED2C1C3BC
:104D0800D2EDEAB9C5EDEECCA2BBE2C79291B4CD23
:104D18009E7DA5CDDEAE95B8B38A607AAEC39C4CB5
:104D280059825421386A87623D6076521D295B504A
:104D3800331D235E551E0F2D613C0A0F445B342B37
:104D48006EA375555E9A9C615C97D7DAB490BCEAFD
:104D5800B58DA0BBCCB89CC1F8DEA998BFC6A4711C
:104D68008CCCC08C4F7BAB7C3A4D7B8C77497BA835
:104D780083676E736F5A334E7D7B562641633410BA
:104D880023494F33335B8D8265758F80686890C780
:104D9800B8836F97A16E5F7084997E7CC0D6AC99FA
:104DA800B1C9B2857CADE0DCA580C5E4AA8188AB39
:104DB800A88B84C0C8A998979674593E6EA3966329
:104DC800597C84441C406C5C364A7A91705F809AA6
:104DD800763A2353826D344378864C243A64622DA4
:104DE8003E779D8F6965755533427BB6B78183B62B
:104DF800AD746B8598A299A9D6D3BABDD0D1AC961B
:104E0800A9D2D2B47B8CB69A666A9192796B8BB12F
:104E1800A38898A89C74637AAFB4956A8E997057E2
:104E28003E5B543B2D687A6D5B5C704A282559833C
:104E38007F492F5B6F392D425654373A70816C6326
:104E48007D94605B6687B3B07D6F9F9C736E879718
:104E5800887386BDAC8A9AB4B0807A91BED0C0916E
:104E6800A7D2B78591BCC4AD86B7E6D5C0CED5C5A7
:104E7800937F8FBDD1A56C89C7905F5F859D754E67
:104E880090C7A3838BA572453B71A1965F39696C66
:104E9800331A384D49262F67714E5069704A202FB2
:104EA80073957851477C6A2E1A4660492E5798792F
:104EB8005E6A878046346CA5AB795896BC82546983
:104EC8009E9F7F7FABC0AD9DB3D7B5968FBDDBC12D
:104ED8009182BCBA816B97BEB4878DCDD49887A7D1
:104EE80097664C7DC3C99F58679C7B3E3F84906AF8
:104EF8004B89C5AA86879C724D2E57A2A666397C17
:104F08009F5819366569453A8EB182667C93664525
:104F18004180A59559589487502A58746D465FA6C4
:104F2800A282738A8E6B5369BDCD9C6776A883462F
:104F3800437E8C7D78B1DEBD9DB1C09E705888CF10
:104F4800D7A691C6CA774364988F6F75B1B3847C2E
:104F580098A57B484291C3924E509A9748335B7EFE
:104F6800693F5599A4746588895734509DC2A36CCC
:104F7800607F5E25275A8678537DBBA17D718E8B15
:104F88005C4A76BFC29E7A91B78250668589756EF3
:104F9800A5DFC0A2A9C6A363618ECFC69574A0B1D0
:104FA8006F475682906B63AFCBA89290AF975853D8
:104FB80093BFAE885C7F9D5A244A6E6B5650889288
:104FC8006D4F58704B1E2566908154406D7537198A
:104FD800435F4E3D47899C7E7988A27E454186B5D0
:104FE800B09380B4BD7959768B897672A7C4A091A5
:104FF8009BAC9D7377B2E0CCAA89A5B685708CB3BB
:10500800A9857BB1C29F91A2B58D54518DC0C69A16
:1050180086ADC07F4B5F909C7472B1D0A694939A72
:105028007E4134679AA17B5C788C65363F54563F45
:105038002C5E8B766A767D793E1540798263425480
:105048008065312F4950402E5993827072797F4D77
:10505800244C97B5A8857CA7925749607F806683C2
:10506800C0C0A59E9BA889515D9ABDB7B89DB7CA17
:10507800916C77807C7D7CABCBBBB6C1C0AC785AD9
:1050880079ABC3CDB8A8CEB16B5D70717C7075AAD1
:105098009A8195998F79484B7E9D9D9680859C71C4
:1050A8004A566163665B80A39290918B7E542F4B26
:1050B800869AA5A490978B5238424A525361848CA1
:1050C8007D7B7E7C6E402552808C96958083734ACA
:1050D8004549575B5F6C8EA09C9B8C806D484574DE
:1050E80090A9BFB8A09A86685D5B6E73767D99A516
:1050F8009E9D917F715755768DAABBA6888C8A6F25
:10510800595E6C787D8AA8B4B4A5958F846A5B755E
:10511800A2C6C7AE96958A5849555C6E7882A5A6F0
:10512800989D927B68594D75A0B9BFC0B99B906C8A
:1051380050525C606A7DA1A4999D8E7D5F412D4B84
:105148006586A4A8A88F81745A3F3A414E6171823E
:10515800858A938F7F73635B768CA9B3AA9B9085AE
:105168006E6662727E8D949FA49B938D74464347AE
:105178005A7E9A9FAAA36F6E746660565067838F93
:10518800AEBDB6AC97715E63637994B5BCC4B08E9E
:105198008D734229414C676F232D302B2000686C9A
:1051A8004C00656667454647003031323334353642
:1051B800373839414243444546003031323334357B
:0B51C8003637383961626364656600A9
:1051D4007856341290000020000000000000000007
:1051E40000000000010203040607080900A24A04A3
:1051F4002400002000000000000000000000000067
:10520400000000000000000000000000000000009A
:10521400000000000000000000000000000000008A
:10522400000000000000000000000000000000007A
:10523400000000000000000000000000000000006A
:10524400000000000000000000000000000000005A
:085254000000000032547698BE
:040000050800010DE1
:00000001FF
